:020000040800F2
:10000000D806002029020008EB0F00081F0F000887
:10001000E90F00081F040008391400080000000060
:10002000000000000000000000000000A513000810
:100030002104000800000000ED0F0008A7130008CD
:10004000430200084302000843020008430200087C
:10005000430200084302000843020008430200086C
:10006000430200084302000843020008430200085C
:10007000430200084302000843020008430200084C
:10008000430200084302000843020008430200083C
:10009000430200084302000843020008430200082C
:1000A000430200084302000843020008430200081C
:1000B000430200084302000843020008430200080C
:1000C00043020008430200084302000843020008FC
:1000D00043020008430200084302000843020008EC
:1000E00043020008430200084302000843020008DC
:1000F00043020008430200084302000843020008CC
:1001000043020008430200084302000843020008BB
:1001100043020008430200084302000843020008AB
:10012000430200084302000843020008430200089B
:10013000430200084302000843020008430200088B
:10014000430200084302000843020008430200087B
:10015000430200084302000843020008430200086B
:10016000430200084302000843020008430200085B
:100170004302000843020008430200080000000098
:10018000430200084302000800F002F800F03CF8C7
:100190000AA090E8000C82448344AAF10107DA45E2
:1001A00001D100F031F8AFF2090EBAE80F0013F0F8
:1001B000010F18BFFB1A43F0010318476433000016
:1001C00084330000103A24BF78C878C1FAD85207A7
:1001D00024BF30C830C144BF04680C6070470000C1
:1001E0000023002400250026103A28BF78C1FBD840
:1001F000520728BF30C148BF0B6070471FB501F0E0
:1002000047F91FBD10B510BD00F0CFF81146FFF73C
:10021000F5FF01F023F900F0EDF803B4FFF7F2FF6A
:1002200003BC00F0F5F80000094880470948004782
:10023000FEE7FEE7FEE7FEE7FEE7FEE7FEE7FEE796
:10024000FEE7FEE704480549054A064B70470000F3
:100250002914000889010008D8000020D8060020D1
:10026000D8020020D802002053EA020C00F0698076
:100270002DE9F04B4FF00006002B1FBFB3FA83F5BA
:1002800003FA05F424FA05F65E4012BF1643B2FAEB
:1002900082F502FA05F4C5F120051EBF22FA05FC1D
:1002A00044EA0C04203556EA044C4FEA144418BFC3
:1002B000641C4FF000084FF00009904271EB030CF2
:1002C00039D3002919BFB1FA81F701FA07F6B0FA5C
:1002D00080F700FA07F6C7F120071EBF20FA07FCD7
:1002E00046EA0C062037B6FBF4FCA7EB0507103FE7
:1002F00007F01F0BCBF120060CFA0BFB2CFA06F6CD
:1003000044BFB3460026202FA4BF5E464FF0000B2B
:100310005BEA060C08BF4FF0010B19EB0B09ABFBB6
:10032000027C48EB0608C01B06FB02CC0BFB03CC8F
:1003300071EB0C01C1E70B46024641464846BDE859
:10034000F08B13B54FF000004FF00001AFF30080C9
:10035000BDE81C4070474FF0000200B513469446BC
:100360009646203922BFA0E80C50A0E80C50B1F10D
:100370002001BFF4F7AF090728BFA0E80C5048BF21
:100380000CC05DF804EB890028BF40F8042B08BFBF
:10039000704748BF20F8022B11F0804F18BF00F8BB
:1003A000012B7047704770477047754600F02CF876
:1003B000AE4605006946534620F00700854618B052
:1003C00020B5FFF73FFFBDE820404FF000064FF09B
:1003D00000074FF000084FF0000B21F00701AC467A
:1003E000ACE8C009ACE8C009ACE8C009ACE8C00999
:1003F0008D46704710B50446AFF300802046BDE837
:100400001040FFF70ABF000000487047740000204A
:1004100001491820ABBEFEE7260002007047FEE748
:100420007047000070B5044600F00CF90546601CEA
:1004300002D004480078044400F004F9401BA042B4
:10044000FAD370BD0C0000202DE9F84FDFF8BCA1F5
:10045000002201250AF1040B03264FF00F090BF1CE
:10046000040E00BF0B6805FA02F42340A34270D1CA
:100470000F7907F00307012F01D0022F16D18768EB
:100480004FEA420806FA08FC27EA0C07D1F80CC02C
:100490000CFA08FC4CEA070CC0F808C04768A743F0
:1004A0000C79C4F3001494403C4344600C79E44359
:1004B000A4070AD0C4684FEA420C06FA0CF7BC4302
:1004C0008F6807FA0CF72743C7600C7904F0030420
:1004D000022C12D1D40800EB840CDCF82040570722
:1004E000FF0E09FA07F824EA0804D1F8108008FA88
:1004F00007F848EA0408CCF8208004684FEA420C68
:1005000006FA0CF7BC430F7907F0030707FA0CF75C
:10051000274307604C6814F4403F70D03C4C276878
:1005200047F480472760246822F0030704F48044DE
:100530000094384C07EB040CDCF8084897074FEAA6
:10054000177809FA08F7BC43334FB84202D10027A5
:1005500024E054E0314FB84201D101271EE0304F72
:10056000B84201D1022719E02E4FB84201D103272A
:1005700014E02D4FB84201D104270FE02B4FB842B1
:1005800001D105270AE02A4FB84201D1062705E02C
:10059000284FB84201D1072700E0082707FA08F7DB
:1005A0002743CCF80878DAF800405746D1F804C061
:1005B0009C435FEACC3C00D51C433C60DBF8004028
:1005C0005F46D1F804C09C435FEA8C3C00D51C43D5
:1005D0003C60DEF800407746D1F804C09C435FEAF7
:1005E000CC2C00D51C433C60084F0C373C68D1F83C
:1005F00004C09C435FEA8C2C00D51C433C60521C19
:10060000102AFFF42FAFBDE8F88F0000003C014036
:100610004438024000300140000002400004024023
:1006200000080240000C024000100240001402408A
:1006300000180240001C02400AB1816170470904A1
:10064000FBE7000001488068704700000C000020B4
:100650000248816802781144816070470C000020D4
:100660000B4810B5016841F400710160016841F464
:1006700080610160016841F480710160032000F035
:1006800061F80F2000F006F800F024F8002010BDFB
:10069000003C024070B50D4D04464FF47A71287845
:1006A000B1FBF0F00A490968B1FBF0F000F023FC5F
:1006B00048B9102C07D200222146501E00F022F823
:1006C00000206C6070BD012070BD00000C00002097
:1006D000180000200A4808B5016841F48041016013
:1006E000006800F4804000900548001F016841F058
:1006F00080510160006800F08050009008BD00004B
:1007000044380240F0B40E4B1B680C46C3F302237E
:10071000C3F10705042D00D90425191D072901D2AD
:10072000002300E0DB1E012606FA05F1491E2140E8
:1007300099409E40761E16403143F0BC00F07DBECD
:100740000CED00E0064900F0070208684FF6FF03D1
:10075000184040EA0220034A104308607047000036
:100760000CED00E00000FA052DE9F0470E4605000B
:1007700065D0DFF81481D8F80000F7B200F0070068
:10078000B04207D288F80070D8F8000000F00700E7
:10079000B04254D128683D4C810712D5400703D59B
:1007A000206840F4E05020602878000703D52068D6
:1007B00040F4604020602068A96820F0F000084301
:1007C00020602878C0072DD0304968680839012892
:1007D00012D0022813D0032811D0096889070029F4
:1007E0002DDA216821F0030101432160FFF72AFF80
:1007F000814641F2883A0EE009688903EFE709680B
:100800008901ECE7FFF71EFFA0EB0901514502D972
:100810000320BDE8F0872068696800F00C00B0EBA9
:10082000810FEFD1D8F80010404601F00701B14226
:1008300007D90770006800F00700B04201D001201E
:10084000E7E72878400705D52068E96820F4E050FC
:10085000084320602878000706D52068296920F41D
:10086000604040EAC100206000F018F82168084AA2
:10087000C1F30311515CC84006490860064800688E
:10088000FFF708FF0020C4E7003C024008380240A0
:100890000E3500081800002010000020154810B583
:1008A000006810F00C02144813D01449042A0FD029
:1008B000082A0ED10F4C241F2268236802F03F0241
:1008C0005B0207D52068C0F38810A0FB010106E099
:1008D000084610BD2168C1F38811A1FB0001002367
:1008E000FFF7C2FC2168C1F30141491C4900B0FB7C
:1008F000F1F010BD083802400024F40040787D017A
:100900002DE9F84F04006ED02078DFF84C93C00733
:10091000A9F104054AD009F104000168C1F381017D
:10092000012908D00068C0F3810002280AD1D9F853
:100930000000400206D52868800337D5606800288B
:10094000E1D033E06068B0F5803F10D0B0F5A02F63
:10095000286810D020F480302860286820F4802097
:1009600028606068A8B1FFF76DFE06460DE02868B4
:1009700040F48030F4E740F480202860F7E700BFBF
:10098000FFF760FE801B642873D828688003F7D5C2
:100990000CE0FFF757FE064605E000BFFFF752FEEA
:1009A000801B6428F0D828688003F7D42078DFF80B
:1009B000AC8280074FF0000A3ED5A748001D0168B1
:1009C00011F00C0F08D00068C0F3810002280BD191
:1009D000D9F80000400207D42868800716D5E068DF
:1009E000012800D112E033E1E068B8B10120C8F875
:1009F0000000FFF727FE064605E000BFFFF722FED6
:100A0000801B0228C0D828688007F7D5286821698C
:100A100020F0F80040EAC10028600DE0C8F800A00E
:100A2000FFF710FE064604E0FFF70CFE801B0228CD
:100A30001FD828688007F7D42078000722D5864F72
:100A400087486169703771B101210160FFF7FAFDD4
:100A5000064604E0FFF7F6FD801B022809D8386837
:100A60008007F7D50EE0C0F800A0FFF7EBFD0646C3
:100A700005E082E0FFF7E6FD801B02287DD838689C
:100A80008007F7D42078400768D5DFF8CCB100277D
:100A90000BF13C0BDBF80000C0000BD4DBF80010BE
:100AA00041F08051CBF80010DBF80000012700F086
:100AB000805000906B4E3068C00510D4306840F410
:100AC00080703060FFF7BEFD009005E0FFF7BAFDD3
:100AD0000099401A022850D83068C005F6D55E4EFD
:100AE000A0686C3601280FD00528306810D020F09F
:100AF00001003060306820F004003060A068B8B1B8
:100B0000FFF7A0FD00900FE0306840F00100F4E72F
:100B100040F004003060F7E7FFF794FD0099411AB8
:100B200041F28830814266D830688007F4D50EE003
:100B3000FFF788FD009007E0FFF784FD0099411A58
:100B400041F28830814256D830688007F4D42FB102
:100B5000DBF8001021F08051CBF80010A069C8B379
:100B60003D49091D0968C1F3810102294AD00228C3
:100B7000504607D0C8F8600000E03CE0FFF762FD97
:100B800004463BE04746C8F86000FFF75BFD0646B9
:100B900005E000BFFFF756FD801B02282BD8286810
:100BA0008001F7D4D4E907010843A16A2E4A490815
:100BB00002EB0141626A41EA8211084394F82C1069
:100BC00040EA0161C9F8001001203866FFF73AFDDC
:100BD000044606E03EE000BFFFF734FD001B02289C
:100BE00009D828688001F7D534E000BFFFF72AFD57
:100BF000001B022802D90320BDE8F88F2868800175
:100C0000F4D427E00128F7D0D9F80000E26900F415
:100C1000800191421CD1226A00F03F01914217D11C
:100C200047F6C071626A0140B1EB821F10D1A26A1F
:100C30004FF0FF3300F4403103EB5202B1EB024FAF
:100C400006D194F82C1000F07060B0EB016F01D069
:100C50000120D1E70020CFE70438024000004742DE
:100C6000800E4742007000400000FFFF70B5040096
:100C700009D0606A002540B125616561A56294F8DC
:100C8000510040B10CE0012070BD6068B0F5827F7A
:100C9000F4D0E561F2E784F85050204600F044F8C3
:100CA000022084F851002068016821F040010160B1
:100CB000A088218900F4827001F404410843A189CD
:100CC00001F400610843217C01F002010843217D09
:100CD00001F001010843218B01F400710843217FD9
:100CE00001F03801084394F8201001F08001084316
:100CF000218D01F40051084321680860A069042196
:100D000001EA104094F8241001F010010843216812
:100D100048602068C16921F40061C16165650120F6
:100D200084F85100002070BD10B586B0044614212F
:100D30006846FFF710FB13492068884220D112480B
:100D40000021026842F480520260006800F4805082
:100D500005900D481438026842F0010202600068F4
:100D600000F001000590E02000900220CDE9010193
:100D7000032003900520049069460448FFF764FBB4
:100D800006B010BD0030014044380240000002406F
:100D90002DE9F84F044690F8500000271D461646EE
:100DA000894601280DD04FF0010B84F850B0FFF7B1
:100DB00049FC804694F85100BA46012804D0022725
:100DC00093E00220BDE8F88FB9F1000F73D0002E38
:100DD00071D0032084F85100C4F854A0C4F83090B6
:100DE000A686E686C4F838A0A4F83CA0A4F83EA0E5
:100DF000C4F844A0C4F840A0A068B0F5004F09D1E1
:100E00002068016821F0400101602068016841F418
:100E10008041016020680168490603D4016841F0FF
:100E200040010160E068B0F5006F606803D030B346
:100E3000012E24D041E008B1012E1CD1206B216885
:100E40000088C86006E020688168890709D5216BA1
:100E50000988C160206B801C2063E08E401EE08604
:100E600009E0FFF7EFFBA0EB0800A84202D3681CE3
:100E700001D031E07DB3E08E0028E4D120E0206B8A
:100E800021680078087306E020688168890709D521
:100E9000216B09780173206B401C2063E08E401E9B
:100EA000E0860AE0FFF7CEFBA0EB0800A84203D3E0
:100EB000681C02D010E017E06DB1E08E0028E3D18D
:100EC00042462946204600F093F808B1202060658C
:100ED000A06818B106E0FFE7032706E02068C168B4
:100EE00080680090606D00B1012784F851B084F8EB
:100EF00050A0384666E710B5401EB0F1807F01D3A0
:100F0000012010BD4FF0E02460610F21601700F058
:100F100094FA0020A06107202061002010BDFEE7A8
:100F20002DE9F04186B014216846FFF714FA1B48FA
:100F30000024016841F001010160016801F0010134
:100F40000591016841F0040101600068144F00F050
:100F500004004FF400750590224629463846FFF7F5
:100F60006BFBDFF840804FF440760022314640466C
:100F7000FFF762FB00950125CDE90154694638462B
:100F80000394FFF761FA0096CDE9015469464046A3
:100F90000394FFF759FA06B0BDE8F08130380240FB
:100FA00000080240000002400E4810B50C490160E4
:100FB0004FF48271416000218160C1604FF4007282
:100FC0000161C0E90512C1610162416281620A21C9
:100FD000C162FFF74BFE002801D072B6FEE710BDDC
:100FE000003001401C000020FEE7FEE770470000D3
:100FF00038B504461248134B0068B0FBF3F04FF4C9
:101000007A73584300906068B0F5827F0DD10B462B
:10101000009200228021204600F016F870B1606D29
:1010200040F020006065032038BD009830B1401EBC
:10103000009020688068C0430006F6D5002038BDC7
:101040001800002000366E012DE9F8431E46914637
:1010500088460446089DFFF7F5FA401B351AFFF74E
:10106000F1FA074625480068C0F3CB30684338E002
:10107000701C37D0FFF7E6FAC01BA84203D215B1A7
:10108000009860B32CE02068416821F0E0014160E5
:101090006068B0F5827F0BD1A068B0F5004F02D038
:1010A000B0F5806F04D12068016821F04001016033
:1010B000A06AB0F5005F09D12068016821F40051F1
:1010C00001602068016841F400510160012084F84A
:1010D0005100002084F850000320BDE8F88300256B
:1010E000401E00902068816838EA010004D0002189
:1010F0004945BDD10020F0E70121F9E718000020A3
:101100002DE9F05F05461A480C469846B0F90610DE
:1011100091468D422ADAB0F90400844226DA05EBC2
:1011200009077F1E8F4221DA04EB0806761E8642ED
:101130001CDADFF840B04FF4007A002251465846DE
:10114000FFF77AFAF3B2FAB2E1B2E8B200F0D4F8FB
:101150004FEA490101FB08F10A9800F00DF95146E8
:101160005846BDE8F05F0122FFF766BABDE8F09F80
:1011700000000020000802402DE9F04110F8015B5A
:10118000044617E0207800F0E3F86078A41C00F033
:10119000800730F0800604D03146204600F0ECF89D
:1011A00034443FB114F8010BFF2801D14FF4FA7019
:1011B000FFF738F96D1EEDB2E4D2BDE8F081000012
:1011C0002DE9F84F074629480E46DDF82880B0F98A
:1011D00006101C4615468F4246DAB0F904008642D6
:1011E00042DA7A19521E8A4201DBC91B8DB23119CB
:1011F000491E814201DB801B84B2DFF874A04FF4EA
:101200000079002249465046FFF716FA3019401E71
:10121000C3B27819401EC2B2F1B2F8B200F06CF855
:101220004FEA18208DF8000001228DF8018011028C
:101230001048FFF701FA26464FF0FF370DE02C4625
:1012400007E03B46022269460B48FFF7A1FD641EFA
:10125000A4B2002CF5D1761EB6B2002EEFD1012239
:1012600049465046FFF7E8F9BDE8F88F0000002036
:1012700000080240000002401C00002008B5009059
:1012800004488188C0888BB282B200210846FFF7EB
:1012900097FF08BD0000002070B5144D4FF4007496
:1012A000002221462846FFF7C7F9114E002280216F
:1012B0003046FFF7C1F91420FFF7B4F8012280216E
:1012C0003046FFF7B9F90B48FFF756FF09483B30A6
:1012D000FFF752FF07484830FFF74EFF21462846E8
:1012E000BDE870400122FFF7A7B9000000080240E6
:1012F000000002409A140008F8B504461D46164640
:101300000F462A2000F024F82146104C00200090BF
:10131000607801448DF8011030448DF803000421F9
:10132000684600F029F82B2000F012F8A078391850
:101330008DF8011028448DF803000421684600F060
:101340001BF82C2000F004F8F8BD0000000000207D
:1013500001B500224FF480710548FFF76DF94FF099
:10136000FF33012269460348FFF712FD08BD000064
:10137000000002401C00002070B50D46044601220A
:1013800011020648FFF758F9AAB22146BDE870409D
:101390004FF0FF330248FFF7FBBC000000000240A3
:1013A0001C0000207047FFF753B9000010B592B041
:1013B00030216846FEF7CFFF14210CA8FEF7CBFFC3
:1013C00017480024016841F080510160006800F076
:1013D000805011901348016841F480410160006819
:1013E000069400F4804011900220009001200390A8
:1013F000102004906846FFF783FA08B172B6FEE742
:101400000F20CDE90C040E940F9400210CA8109429
:10141000FFF7AAF9002801D072B6FEE712B010BD9E
:1014200040380240007000400248016841F47001F9
:101430000160704788ED00E0FEE70907090E00280B
:1014400004DB00F1E02080F80014704700F00F008A
:1014500000F1E02080F8141D7047000008B5FFF788
:10146000FFF8FFF7A3FFFFF75BFDFFF79DFDFFF719
:1014700013FF4FF61F00FFF701FF044C40231A46ED
:10148000282120200094FFF73BFEF7E70E15000807
:101490004FF04070E1EE100A70470F018096118006
:1014A000FFB103012C2DB203012C2DB306012C2D0D
:1014B000012C2DB40107C003A20284C101C5C202E0
:1014C0000A00C3028A2AC4028AEEC5010E20003631
:1014D00001C03A0105022A040000007F2B0400002D
:1014E000007F04E010021C07123732292D29252B1A
:1014F0003900010310E110031D07062E2C292D2EA3
:101500002E373F0000021013800A29806400FFFF7D
:10151000FFFFFFFFFFFFFFFFFFFFFFFFFFFFFFFFDB
:10152000FFFFFFFFFFFFFFFFFFFFFFFFFFFFFFFFCB
:10153000FFFFFFFFFFFFFFFFFFFFFFFFFFFFFFFFBB
:10154000FFFFFFFFFFFFFFFFFFFFFFFFFFFFFFFFAB
:101C2000FFFFFFFFFFFFFFFFBAD60000000000002C
:101C30000000A2109EF7FFFFFFFFFFFFFFFFFFFF67
:101C4000FFFFFFFFFFFFFFFFFFFFFFFFFFFFFFFFA4
:101C5000FFFFFFFFBEF7000000000000000079CE8C
:101C6000FFFFFFFFFFFFFFFFFFFFFFFFFFFFFFFF84
:101C7000FFFFFFFFFFFFFFFFFFFFFFFFFFFF38C674
:101C80000000000000000000DFFFFFFFFFFFFFFF7C
:101C9000FFFFFFFFFFFFFFFFFFFFFFFFFFFFFFFF54
:101CA000FFFFFFFFFFFFFFFFB294000000000000F6
:101CB0000000000018C6FFFFFFFFFFFFFFFFFFFF50
:101CC000FFFFFFFFFFFFFFFFFFFFFFFFFFFFFFFF24
:101CD000FFFFFFFFBEF7000000000000000079CE0C
:101CE000FFFFFFFFFFFFFFFFFFFFFFFFFFFFFFFF04
:101CF000FFFFFFFFFFFFFFFFFFFFFFFFFFFF38C6F4
:101D00000000000000000000DFFFFFFFFFFFFFFFFB
:101D1000FFFFFFFFFFFFFFFFFFFFFFFFFFFFFFFFD3
:101D2000FFFFFFFFFFFFBEF70421000000000000DF
:101D3000000000006D6BFFFFFFFFFFFFFFFFFFFFD5
:101D4000FFFFFFFFFFFFFFFFFFFFFFFFFFFFFFFFA3
:101D5000FFFFFFFFBEF7000000000000000079CE8B
:101D6000FFFFFFFFFFFFFFFFFFFFFFFFFFFFFFFF83
:101D7000FFFFFFFFFFFFFFFFFFFFFFFFFFFF38C673
:101D80000000000000000000DFFFFFFFFFFFFFFF7B
:101D9000FFFFFFFFFFFFFFFFFFFFFFFFFFFFFFFF53
:101DA000FFFFFFFFFFFF18C600000000000000005B
:101DB0000000000000003CE7FFFFFFFFFFFFFFFF08
:101DC000FFFFFFFFFFFFFFFFFFFFFFFFFFFFFFFF23
:101DD000FFFFFFFFBEF7000000000000000079CE0B
:101DE000FFFFFFFFFFFFFFFFFFFFFFFFFFFFFFFF03
:101DF000FFFFFFFFFFFFFFFFFFFFFFFFFFFF38C6F3
:101E00000000000000000000DFFFFFFFFFFFFFFFFA
:101E1000FFFFFFFFFFFFFFFFFFFFFFFFFFFFFFFFD2
:101E2000FFFFFFFFFFFF8E73000000000000EB5A72
:101E300000000000000055ADFFFFFFFFFFFFFFFFA8
:101E4000FFFFFFFFFFFFFFFFFFFFFFFFFFFFFFFFA2
:101E5000FFFFFFFFBEF7000000000000000079CE8A
:101E6000FFFFFFFFFFFFFFFFFFFFFFFFFFFFFFFF82
:101E7000FFFFFFFFFFFFFFFFFFFFFFFFFFFF38C672
:101E80000000000000000000DFFFFFFFFFFFFFFF7A
:101E9000FFFFFFFFFFFFFFFFFFFFFFFFFFFFFFFF52
:101EA000FFFFFFFF3CE70000000000000842FBDEF0
:101EB0000000000000000842DFFFFFFFFFFFFFFF00
:101EC000FFFFFFFFFFFFFFFFFFFFFFFFFFFFFFFF22
:101ED000FFFFFFFFBEF7000000000000000079CE0A
:101EE000FFFFFFFFFFFFFFFFFFFFFFFFFFFFFFFF02
:101EF000FFFFFFFFFFFFFFFFFFFFFFFFFFFF38C6F2
:101F00000000000000000000DFFFFFFFFFFFFFFFF9
:101F1000FFFFFFFFFFFFFFFFFFFFFFFFFFFFFFFFD1
:101F2000FFFFFFFF55AD00000000000034A5FFFFDC
:101F30002C630000000000009AD6FFFFFFFFFFFFA8
:101F4000FFFFFFFFFFFFFFFFFFFFFFFFFFFFFFFFA1
:101F5000FFFFFFFFBEF7000000000000000079CE89
:101F6000FFFFFFFFFFFFFFFFFFFFFFFFFFFFFFFF81
:101F7000FFFFFFFFFFFFFFFFFFFFFFFFFFFF38C671
:101F80000000000000000000DFFFFFFFFFFFFFFF79
:101F9000FFFFFFFFFFFFFFFFFFFFFFFFFFFFFFFF51
:101FA000FFFFDFFF2842000000000000FBDEFFFF14
:101FB000D7BD000000000000518CFFFFFFFFFFFFB6
:101FC000FFFFFFFFFFFFFFFFFFFFFFFFFFFFFFFF21
:101FD000FFFFFFFFBEF7000000000000000079CE09
:101FE000FFFFFFFFFFFFFFFFFFFFFFFFFFFFFFFF01
:101FF000FFFFFFFFFFFFFFFFFFFFFFFFFFFF38C6F1
:102000000000000000000000DFFFFFFFFFFFFFFFF8
:10201000FFFFFFFFFFFFFFFFFFFFFFFFFFFFFFFFD0
:10202000FFFF9AD6000000000000EB5AFFFFFFFF01
:102030007DEF00000000000061089EF7FFFFFFFF3A
:10204000FFFFFFFFFFFFFFFFFFFFFFFFFFFFFFFFA0
:10205000FFFFFFFFBEF7000000000000000079CE88
:10206000FFFFFFFFFFFFFFFFFFFFFFFFFFFFFFFF80
:10207000FFFFFFFFFFFFFFFFFFFFFFFFFFFF38C670
:102080000000000000000000DFFFFFFFFFFFFFFF78
:10209000FFFFFFFFFFFFFFFFFFFFFFFFFFFFFFFF50
:1020A000FFFF718C000000000000B6B5FFFFFFFFCE
:1020B000FFFF1084000000000000D7BDFFFFFFFFFE
:1020C000FFFFFFFFFFFFFFFFFFFFFFFFFFFFFFFF20
:1020D000FFFFFFFFBEF7000000000000000079CE08
:1020E000FFFFFFFFFFFFFFFFFFFFFFFFFFFFFFFF00
:1020F000FFFFFFFFFFFFFFFFFFFFFFFFFFFF38C6F0
:102100000000000000000000DFFFFFFFFFFFFFFFF7
:10211000FFFFFFFFFFFFFFFFFFFFFFFFFFFFFFFFCF
:102120009EF7A2100000000000005DEFFFFFFFFF20
:10213000FFFF59CE0000000000000C63FFFFFFFF0F
:10214000FFFFFFFFFFFFFFFFFFFFFFFFFFFFFFFF9F
:10215000FFFFFFFFBEF7000000000000000079CE87
:10216000FFFFFFFFFFFFFFFFFFFFFFFFFFFFFFFF7F
:10217000FFFFFFFFFFFFFFFFFFFFFFFFFFFF38C66F
:102180000000000000000000DFFFFFFFFFFFFFFF77
:10219000FFFFFFFFFFFFFFFFFFFFFFFFFFFFFFFF4F
:1021A000F7BD000000000000CF7BFFFFFFFFFFFF37
:1021B000FFFFBEF74529000000000000FBDEFFFF27
:1021C000FFFFFFFFFFFFFFFFFFFFFFFFFFFFFFFF1F
:1021D000FFFFFFFFBEF7000000000000000079CE07
:1021E000FFFFFFFFFFFFFFFFFFFFFFFFFFFFFFFFFF
:1021F000FFFFFFFFFFFFFFFFFFFFFFFFFFFF38C6EF
:102200000000000000000000DFFFFFFFFFFFFFFFF6
:10221000FFFFFFFFFFFFFFFFFFFFFFFFFFFFFFFFCE
:102220002C6300000000000038C6FFFFFFFFFFFF27
:10223000FFFFFFFFD39C00000000000014A5FFFF7C
:10224000FFFFFFFFFFFFFFFFFFFFFFFFFFFFFFFF9E
:10225000FFFFFFFFBEF7000000000000000079CE86
:10226000FFFFFFFFFFFFFFFFFFFFFFFFFFFFFFFF7E
:10227000FFFFFFFFFFFFFFFFFFFFFFFFFFFF38C66E
:102280000000000000000000DFFFFFFFFFFFFFFF76
:10229000FFFFFFFFFFFFFFFFFFFFFFFFFFFF1CE749
:1022A000000000000000E318BEF7FFFFFFFFFFFF84
:1022B000FFFFFFFFBAD6000000000000C739DFFFB4
:1022C000FFFFFFFFFFFFFFFFFFFFFFFFFFFFFFFF1E
:1022D000FFFFFFFFBEF7000000000000000079CE06
:1022E000FFFFFFFFFFFFFFFFFFFFFFFFFFFFFFFFFE
:1022F000FFFFFFFFFFFFFFFFFFFFFFFFFFFF38C6EE
:102300000000000000000000DFFFFFFFFFFFFFFFF5
:10231000FFFFFFFFFFFFFFFFFFFFFFFFFFFF34A5F2
:102320000000000000009294FFFFFFFFFFFFFFFF8F
:10233000FFFFFFFFFFFF494A00000000000079CEC9
:10234000FFFFFFFFFFFFFFFFFFFFFFFFFFFFFFFF9D
:10235000FFFFFFFFBEF7000000000000000079CE85
:10236000FFFFFFFFFFFFFFFFFFFFFFFFFFFFFFFF7D
:10237000FFFFFFFFFFFFFFFFFFFFFFFFFFFF38C66D
:102380000000000000000000DFFFFFFFFFFFFFFF75
:10239000FFFFFFFFFFFFFFFFFFFFFFFFDFFFC7396B
:1023A0000000000000009AD6FFFFFFFFFFFFFFFFC5
:1023B000FFFFFFFFFFFF75AD00000000000010846D
:1023C000FFFFFFFFFFFFFFFFFFFFFFFFFFFFFFFF1D
:1023D000FFFFFFFFBEF7000000000000000079CE05
:1023E000FFFFFFFFFFFFFFFFFFFFFFFFFFFFFFFFFD
:1023F000FFFFFFFFFFFFFFFFFFFFFFFFFFFF38C6ED
:102400000000000000000000DFFFFFFFFFFFFFFFF4
:10241000FFFFFFFFFFFFFFFFFFFFFFFF79CE000081
:1024200000000000E739DFFFFFFFFFFFFFFFFFFFB6
:10243000FFFFFFFFFFFF3CE700000000000000007F
:102440007DEFFFFFFFFFFFFFFFFFFFFFFFFFFFFF2E
:10245000FFFFFFFFBEF7000000000000000079CE84
:10246000FFFFFFFFFFFFFFFFFFFFFFFFFFFFFFFF7C
:10247000FFFFFFFFFFFFFFFFFFFFFFFFFFFF38C66C
:102480000000000000000000DFFFFFFFFFFFFFFF74
:10249000FFFFFFFFFFFFFFFFFFFFFFFF3084000094
:1024A0000000000034A5FFFFFFFFFFFFFFFFFFFF5D
:1024B000FFFFFFFFFFFFFFFF4D6B0000000000006C
:1024C000B6B5FFFFFFFFFFFFFFFFFFFFFFFFFFFFAF
:1024D000FFFFFFFFBEF7000000000000000079CE04
:1024E000FFFFFFFFFFFFFFFFFFFFFFFFFFFFFFFFFC
:1024F000FFFFFFFFFFFFFFFFFFFFFFFFFFFF38C6EC
:102500000000000000000000DFFFFFFFFFFFFFFFF3
:10251000FFFFFFFFFFFFFFFFFFFF7DEF0000000059
:1025200000000000FBDEFFFFFFFFFFFFFFFFFFFFDC
:10253000FFFFFFFFFFFFFFFFF7BD000000000000EF
:10254000CB5AFFFFFFFFFFFFFFFFFFFFFFFFFFFF74
:10255000FFFFFFFFBEF7000000000000000079CE83
:10256000FFFFFFFFFFFFFFFFFFFFFFFFFFFFFFFF7B
:10257000FFFFFFFFFFFFFFFFFFFFFFFFFFFF38C66B
:102580000000000000000000DFFFFFFFFFFFFFFF73
:10259000FFFFFFFFFFFFFFFFFFFFD7BD00000000B1
:1025A0000000EB5AFFFFFFFFFFFFFFFFFFFFFFFFF2
:1025B000FFFFFFFFFFFFFFFF9EF761080000000025
:1025C0000000DBDEFFFFFFFFFFFFFFFFFFFFFFFF5E
:1025D000FFFFFFFFBEF7000000000000000079CE03
:1025E000FFFFFFFFFFFFFFFFFFFFFFFFFFFFFFFFFB
:1025F000FFFFFFFFFFFFFFFFFFFFFFFFFFFF38C6EB
:102600000000000000000000DFFFFFFFFFFFFFFFF2
:10261000FFFFFFFFFFFFFFFFFFFFEB5A000000007F
:102620000000B6B5FFFFFFFFFFFFFFFFFFFFFFFF4B
:10263000FFFFFFFFFFFFFFFFFFFF308400000000F0
:102640000000D39CFFFFFFFFFFFFFFFFFFFFFFFF27
:10265000FFFFFFFFBEF7000000000000000079CE82
:10266000FFFFFFFFFFFFFFFFFFFFFFFFFFFFFFFF7A
:10267000FFFFFFFFFFFFFFFFFFFFFFFFFFFF18C68A
:102680000000000000000000FFFFFFFFFFFFFFFF52
:10269000FFFFFFFFFFFFFFFFFBDE00000000000069
:1026A000000000000000000000000000000000002A
:1026B000000000000000000000000000000000001A
:1026C00000004529BEF7FFFFFFFFFFFFFFFFFFFFF1
:1026D000FFFFFFFFDFFF000000000000000038C622
:1026E000FFFFFFFFFFFFFFFFFFFFFFFFFFFFFFFFFA
:1026F000FFFFFFFFFFFFFFFFFFFFFFFFFFFFD7BD54
:102700000000000000008631FFFFFFFFFFFFFFFF1A
:10271000FFFFFFFFFFFFFFFFF39C00000000000032
:1027200000000000000000000000000000000000A9
:102730000000000000000000000000000000000099
:102740000000000038C6FFFFFFFFFFFFFFFFFFFF95
:10275000FFFFFFFFFFFF8631000000000000D7BD34
:10276000FFFFFFFFFFFFFFFFFFFFFFFFFFFFFFFF79
:10277000FFFFFFFFFFFFFFFFFFFFFFFFFFFF75AD45
:10278000000000000000CB5AFFFFFFFFFFFFFFFF2C
:10279000FFFFFFFFFFFFBEF76529000000000000FC
:1027A0000000000000000000000000000000000029
:1027B0000000000000000000000000000000000019
:1027C00000000000CF7BFFFFFFFFFFFFFFFFFFFFC9
:1027D000FFFFFFFFFFFF0C63000000000000F39C01
:1027E000FFFFFFFFFFFFFFFFFFFFFFFFFFFFFFFFF9
:1027F000FFFFFFFFFFFFFFFFFFFFFFFFFFFF718CEA
:10280000000000000000CF7BFFFFFFFFFFFFFFFF86
:10281000FFFFFFFFFFFF59CE0000000000006D6BBF
:10282000FFFFFFFFFFFFFFFFFFFFFFFFFFFFFFFFB8
:10283000FFFFFFFFFFFFFFFFFFFFFFFFDFFF652938
:102840000000000000005DEFFFFFFFFFFFFFFFFF44
:10285000FFFFFFFFFFFFF39C0000000000006D6B17
:10286000FFFFFFFFFFFFFFFFFFFFFFFFFFFFFFFF78
:10287000FFFFFFFFFFFFFFFFFFFFFFFFFFFF8A528A
:1028800000000000000075ADFFFFFFFFFFFFFFFF2E
:10289000FFFFFFFFFFFFEF7B000000000000D7BD40
:1028A000FFFFFFFFFFFFFFFFFFFFFFFFFFFFFFFF38
:1028B000FFFFFFFFFFFFFFFFFFFFFFFFFFFFB294E0
:1028C00000000000000096B5FFFFFFFFFFFFFFFFC5
:1028D000FFFFFFFFFFFF59CE0000000000000000D7
:1028E0007DEFFFFFFFFFFFFFFFFFFFFFFFFFFFFF8A
:1028F000FFFFFFFFFFFFFFFFFFFFFFFF1CE70000E1
:102900000000000000009AD6FFFFFFFFFFFFFFFF5F
:10291000FFFFFFFF5DEF00000000000000005DEF23
:10292000FFFFFFFFFFFFFFFFFFFFFFFFFFFFFFFFB7
:10293000FFFFFFFFFFFFFFFFFFFFFFFFFFFF9AD635
:10294000000000000000694AFFFFFFFFFFFFFFFFDC
:10295000FFFFFFFFFFFFBEF765290000000000003A
:1029600075ADFFFFFFFFFFFFFFFFFFFFFFFFFFFF53
:10297000FFFFFFFFFFFFFFFFFFFFFFFF14A50000AA
:10298000000000002842DFFFFFFFFFFFFFFFFFFF07
:10299000FFFFFFFF96B50000000000004D6BFFFF3A
:1029A000FFFFFFFFFFFFFFFFFFFFFFFFFFFFFFFF37
:1029B000FFFFFFFFFFFFFFFFFFFFFFFFFFFFDFFF47
:1029C0006529000000000000BAD6FFFFFFFFFFFFEF
:1029D000FFFFFFFFFFFFFFFF55AD000000000000FD
:1029E000E3183CE7FFFFFFFFFFFFFFFFFFFFFFFFD5
:1029F000FFFFFFFFFFFFFFFFFFFFFBDE0000000008
:102A000000000000B6B5FFFFFFFFFFFFFFFFFFFF65
:102A1000FFFFFFFF8A52000000000000D7BDFFFF4C
:102A2000FFFFFFFFFFFFFFFFFFFFFFFFFFFFFFFFB6
:102A3000FFFFFFFFFFFFFFFFFFFFFFFFFFFFFFFFA6
:102A4000B294000000000000B294FFFFFFFFFFFF00
:102A5000FFFFFFFFFFFFFFFF9EF7AA5200000000ED
:102A600000002842FBDEFFFFFFFFFFFFFFFFFFFF2D
:102A7000FFFFFFFFFFFFFFFFBAD6A63100000000F7
:102A800000002C63BEF7FFFFFFFFFFFFFFFFFFFF0C
:102A9000FFFFDBDE00000000000000005DEFFFFF35
:102AA000FFFFFFFFFFFFFFFFFFFFFFFFFFFFFFFF36
:102AB000FFFFFFFFFFFFFFFFFFFFFFFFFFFFFFFF26
:102AC0009AD60000000000000421BEF7FFFFFFFFC0
:102AD000FFFFFFFFFFFFFFFFFFFF1CE7452900008F
:102AE000000000000000718C59CE7DEFBEF7FFFFA3
:102AF000BEF75DEF59CE30840000000000000000FA
:102B0000C7395DEFFFFFFFFFFFFFFFFFFFFFFFFF85
:102B1000FFFFB2940000000000004D6BFFFFFFFFBD
:102B2000FFFFFFFFFFFFFFFFFFFFFFFFFFFFFFFFB5
:102B3000FFFFFFFFFFFFFFFFFFFFFFFFFFFFFFFFA5
:102B4000DFFF452900000000000018C6FFFFFFFF5F
:102B5000FFFFFFFFFFFFFFFFFFFFFFFF3CE7EB5A19
:102B60000000000000000000000000000000000065
:102B700000000000000000000000000000004D6B9D
:102B80005DEFFFFFFFFFFFFFFFFFFFFFFFFFFFFF07
:102B9000BEF70421000000000000B6B5FFFFFFFFF4
:102BA000FFFFFFFFFFFFFFFFFFFFFFFFFFFFFFFF35
:102BB000FFFFFFFFFFFFFFFFFFFFFFFFFFFFFFFF25
:102BC000FFFFB2940000000000008E73FFFFFFFFC4
:102BD000FFFFFFFFFFFFFFFFFFFFFFFFFFFFBEF74E
:102BE000B6B5284200000000000000000000000010
:102BF00000000000000000000000694AD7BDDFFFB0
:102C0000FFFFFFFFFFFFFFFFFFFFFFFFFFFFFFFFD4
:102C100038C600000000000000005DEFFFFFFFFF6E
:102C2000FFFFFFFFFFFFFFFFFFFFFFFFFFFFFFFFB4
:102C3000FFFFFFFFFFFFFFFFFFFFFFFFFFFFFFFFA4
:102C4000FFFF9AD600000000000000003CE7FFFFF5
:102C5000FFFFFFFFFFFFFFFFFFFFFFFFFFFFFFFF84
:102C6000FFFFDFFFBAD696B510842C632842E31825
:102C700028422C63308496B5DBDEDFFFFFFFFFFFC9
:102C8000FFFFFFFFFFFFFFFFFFFFFFFFFFFFFFFF54
:102C9000FFFFFFFFFFFFFFFFFFFFFFFFFFFFFFFF44
:102CA000FFFFFFFFFFFFFFFFFFFFFFFFFFFFFFFF34
:102CB000FFFFFFFFFFFFFFFFFFFFFFFFFFFFFFFF24
:10350000FFFFFFFFFFFFFFFFFFFFFFFFFFFF0000C9
:103510000000000000000102030406070809000083
:1035200040350008000000201C000000C401000815
:103530005C3500081C000020BC060000E00100080B
:1035400000020100A0008000408020000100000077
:0C35500010000000000000000024F40047
:040000050800018965
:00000001FF
