:020000040800F2
:1000000000090020C9010008CB1700082B160008C2
:10001000C917000825060008ED1F000800000000B1
:10002000000000000000000000000000651F000844
:100030002706000800000000CD170008671F000811
:10004000E3010008E3010008E3010008E301000800
:10005000E3010008E3010008E3010008E3010008F0
:10006000E3010008E3010008E3010008E3010008E0
:10007000E3010008E3010008E3010008E3010008D0
:10008000E3010008E3010008E3010008E3010008C0
:10009000E3010008E3010008E3010008E3010008B0
:1000A000E3010008E3010008E3010008E3010008A0
:1000B000E3010008E3010008E3010008E301000890
:1000C000E3010008E3010008E3010008E301000880
:1000D000E3010008E3010008E3010008E301000870
:1000E000E3010008E3010008E301000800F002F862
:1000F00000F041F80AA090E8000C82448344AAF181
:100100000107DA4501D100F036F8AFF2090EBAE87E
:100110000F0013F0010F18BFFB1A43F0010318473B
:100120000461000024610000103A24BF78C878C13F
:10013000FAD8520724BF30C830C144BF04680C60ED
:10014000704700000023002400250026103A28BF35
:1001500078C1FBD8520728BF30C148BF0B60704739
:10016000642900F08D80002070471FB500F075F9FC
:100170001FBD10B510BD00F01AFA1146FFF7F5FFCC
:1001800002F0B0FC00F038FA03B4FFF7F2FF03BC52
:1001900000F042FA0B49D1F800C04A685CF8043B11
:1001A0001068184442F8040B8C4528BFA1F1DC0C00
:1001B0008A4228BFA1F1DC02C1F800C04A6020F0E9
:1001C00000407047980200200948804709480047CE
:1001D000FEE7FEE7FEE7FEE7FEE7FEE7FEE7FEE7F7
:1001E000FEE7FEE704480549054A064B7047000054
:1001F000EB1F0008ED0000080003002000090020AC
:1002000000050020000500200FB41CB5074B06AA0E
:100210007B4469460090059800F0B1F900206946DA
:1002200000F0C0F91CBC5DF814FB00009103000055
:1002300070B5044685690068C10601D5302600E026
:100240002026C00707D070BDD4E901213046904771
:10025000206A401C20626D1EF6D570BD70B5044644
:1002600085690078C00707D170BDD4E9012120203D
:100270009047206A401C20626D1EF6D570BD0000BC
:100280002DE9F0410646002410687529314616A56F
:1002900010D0AFF30080002802DA404213A507E037
:1002A00031688A0701D512A502E0490704D511A5D6
:1002B000012401E0AFF3008000210A2206F12407A7
:1002C00009E0B0FBF2FCB0FBF2F302FB1C003030A3
:1002D00078541846491C0028F3D123462A46304654
:1002E000BDE8F04100F0ECB8000000002D00000077
:1002F0002B000000200000002DE9F05F8946044635
:100300004FF0000ADFF824B1FB44C0F820A02046DB
:10031000E168884700287DD0252806D0D4E901214E
:100320009047206A401C2062F1E700255F46204686
:10033000E16888472028064607DB312E05D2B81928
:1003400010F8200C08B10543F1E7A80701D525F006
:100350000405C4F81CA00027C4F818A02A2E09D050
:10036000304601F054FE38B304EB8708303EC8F83D
:10037000186019E059F8041B204604EB87029161CC
:10038000E1688847012F064618D1E069002820DA85
:1003900025F020051DE0D8F8180000EB800006EBE2
:1003A00040003038C8F818002046E1688847064603
:1003B00001F02DFE0028EED1012F0AD02E2E08D1FB
:1003C0002046E16888477F1C0646022F45F020053D
:1003D000C4DBA069002803DA404245F00105A061B2
:1003E000E80701D025F01005A6B1A6F141001928B3
:1003F00002D8203645F400654A463146204625603D
:100400004D46FFF7ADFE60B1012807D0ED1D25F088
:10041000070000E007E000F1080978E705F10409AA
:1004200075E730467AE7206ABDE8F09F045F000078
:100430000B4910B5A1F17C020A4CC2E937123721F1
:1004400006E000EB104342F82130074B00FB03406D
:100450000B1EA1F10101F4DC10BD0120E8E7000052
:1004600038020020E119D666CD0D01004FF00002E0
:1004700000B5134694469646203922BFA0E80C509A
:10048000A0E80C50B1F12001BFF4F7AF090728BF75
:10049000A0E80C5048BF0CC05DF804EB890028BFF1
:1004A00040F8042B08BF704748BF20F8022B11F01A
:1004B000804F18BF00F8012B704770477047704796
:1004C0002DE9F0470D4699469246044600F124086E
:1004D0000168880604D5E06921F01001216000E080
:1004E0000120A84201DD471B00E00027A1697A191D
:1004F00002EB0900081AA0612078C00602D4204649
:10050000FFF796FE002608E0D4E901211AF806005C
:100510009047206A401C761C20624E45F4DB207810
:10052000C0060AD52046FFF783FE06E0D4E9012184
:1005300030209047206A401C2062381EA7F1010736
:10054000F4DC07E0D4E9012118F805009047206A9F
:10055000401C2062281EA5F10105F3DC2046FFF7B0
:100560007DFE2078000602D50220BDE8F08701203C
:10057000FBE7000001694A1C02610878704700B57A
:100580008FB0CDE901310021059105497944CDE9CC
:10059000031011466846FFF7AFFE0FB000BD000024
:1005A000E5FFFFFF0A6802F8010B0A607047754615
:1005B00000F02CF8AE4605006946534620F00700CF
:1005C000854618B020B5FFF70DFEBDE820404FF07E
:1005D00000064FF000074FF000084FF0000B21F02D
:1005E0000701AC46ACE8C009ACE8C009ACE8C009FA
:1005F000ACE8C0098D46704710B50446AFF30080E3
:100600002046BDE81040FFF7BFBD0000004870471E
:10061000A00200207047000001491820ABBEFEE791
:1006200026000200FEE7704770B5044600F0FEF8B1
:100630000546601C02D004480078044400F0F6F837
:10064000401BA042FAD370BD340000202DE9F84FC2
:10065000DFF8A491002409F1040A0AF1040B2346EF
:100660004FF00F080BF1040EBEE00127A7403A40FF
:10067000BA4272D1DFF884C14D68A5EB0C0665451E
:100680002BD00DDC032D34D005DC35B3012D19D072
:10069000022D2FD11BE0112D16D0122D2AD119E0D9
:1006A000B6F5881F19D006DCB6F5803F15D0B6F533
:1006B000801F1FD111E0B6F5001F0ED0B6F5041F44
:1006C00018D10AE0CB6815E0CB681B1D12E0CB689F
:1006D00008330FE0CB680C330CE08B682BB1012B97
:1006E0004FF0080303D0476104E0042302E00761F0
:1006F00000E00023FF2A01D8064601E000F10406CD
:100700004FEA840501D9A5F12005376808FA05FCF0
:1007100027EA0C0703FA05F547EA050737604D6835
:10072000ED0060D5364DAE6946F00106AE61AD69AB
:1007300024F0030605F001050095324D7719BE68D7
:10074000A5072D0F08FA05FC26EA0C06DFF8B8C04D
:10075000604503D14FF0000C17E044E0DFF8ACC077
:10076000604502D14FF0010C0FE0DFF8A4C06045F6
:1007700002D14FF0020C08E0DFF898C0604502D1CA
:100780004FF0030C01E04FF0040C0CFA05FC4CEAAE
:10079000060CC7F808C04D68D9F80060ED034D4657
:1007A00001D5164300E096432E604D68DAF80060EC
:1007B000AD03554601D5164300E096432E604D68C3
:1007C000DBF80060ED025D4601D5164300E096437C
:1007D0002E604D68DEF80060AD02754601D5164307
:1007E00000E096432E60641C0A6832FA04F57FF438
:1007F0003CAFBDE8F88F000000040140000011107C
:10080000001002400000014000080140000C0140BF
:1008100000100140001401408068084000D0012011
:1008200070470AB1016170470904FBE7014880681D
:1008300070470000340000200248816802781144AB
:100840008160704734000020074810B5016841F00E
:1008500010010160032000F067F80F2000F006F897
:1008600000F024F8002010BD0020024070B50D4DAE
:1008700004464FF47A712878B1FBF0F00A49096810
:10088000B1FBF0F000F0BDFE48B9102C07D20022F9
:100890002146501E00F028F800206C6070BD012039
:1008A00070BD000034000020400000200C4808B556
:1008B000816941F001018161816901F001010091CB
:1008C000C16941F08051C161C069064900F08050A2
:1008D0000090486820F0E06040F00070486008BD7B
:1008E0000010024000000140F0B40E4B1B68C3F33F
:1008F0000223C3F10704042C00D904241D1D072D75
:1009000001D2002300E0DB1E012606FA04F56D1E6D
:100910000D409D409E40761E164045EA0601F0BC03
:1009200001F065BB0CED00E0064A00F0070110681D
:100930004FF6FF03184040EA0120034908431060C6
:10094000704700000CED00E00000FA0501490120AD
:100950000862704700000E4210B5014627A086B01D
:100960001DC88DE81D0029A0294C006804900020B6
:10097000012922D0022939D010291CD161682268AE
:10098000D20118D5C1F38342C9031DF8020009D56D
:10099000616804AAC1F34041515C1E4AB2FBF1F107
:1009A000484301E01C4948436168490203D44000C0
:1009B0000321B0FBF1F006B010BD216AC1F30122A2
:1009C000012A03D1890701D5D003F4E7022A05D112
:1009D000616A890702D549F64040ECE7032AEAD16B
:1009E00021688903E7D54FF22440E4E700F026F9B7
:1009F0006168C1F38131491C4900DAE7020304054B
:100A0000060708090A0B0C0D0E0F1010010200005A
:100A10000010024000127A0000093D002DE9F84361
:100A200004460078344FC00752D0F8690025C00052
:100A300008D4F86940F08050F861F869012500F0A9
:100A4000805000902D480168C90511D40168804686
:100A500041F480710160FFF7E9FE064604E0FFF70C
:100A6000E5FE801B642822D8D8F80000C005F6D522
:100A7000386A10F4407020D0A18801F4407181429E
:100A80001BD0386A1E49012220F440700A600022FF
:100A90000A603862C00710D0FFF7C8FE064641F270
:100AA000883807E0FFF7C2FE811B414502D90320C9
:100AB000BDE8F883386A8007F4D5386A616820F4A5
:100AC0004070084338621DB1F86920F08050F86129
:100AD0002078800705D57868A16820F44040084355
:100AE00078602078C00605D57868E16820F4800039
:100AF000084378600020DBE70010024000700040EF
:100B0000400442422DE9F0470D46040067D0DFF86B
:100B10001881D8F8000000F00700A8420CD2D8F8DD
:100B2000001021F007012943C8F80010D8F8000090
:100B300000F00700A84252D120683C4E810712D530
:100B4000400703D5706840F4E060706020780007CB
:100B500003D5706840F4605070607068A16820F040
:100B6000F000084370602078C00727D06068012833
:100B700010D03168022810D0890700292FDA716857
:100B800021F0030101437160FFF750FE074641F277
:100B900088390CE031688903EFE78901EDE7FFF759
:100BA00045FEC11B494502D90320BDE8F0877068A6
:100BB000616800F00C00B0EB810FF0D1D8F80010A4
:100BC000404601F00701A9420BD9016821F0070155
:100BD00029430160006800F00700A84201D001200D
:100BE000E3E72078400705D57068E16820F4E0600D
:100BF000084370602078000706D57068216920F4EA
:100C0000605040EAC100706000F028F87168084A3E
:100C1000C1F30311515CC8400649086006480068EA
:100C2000FFF724FE0020C0E7002002400010024031
:100C3000F861000840000020380000200448054901
:100C400000684968044AC1F3C221515CC84070473A
:100C500040000020001002400862000812A085B089
:100C60000FC88DE80F0014A0144B00680490596859
:100C7000134801F00C02042A10D0082A0ED1C1F347
:100C80008342C9031DF802000AD5596804AAC1F3BA
:100C90004041515C0A4A5043B0FBF1F005B0704747
:100CA00008494843FAE7000002030405060708095B
:100CB0000A0B0C0D0E0F1010010200000010024074
:100CC00000127A0000093D002DE9F84F04006FD0B2
:100CD0002078BE4DC00747D06868C0F38100012866
:100CE00007D06868C0F38100022809D16868C00392
:100CF00006D52868800337D560680028E7D033E040
:100D00006068B0F5803F0BD010B1B0F5A02F11D0C6
:100D1000286820F480302860286820F4802002E0D1
:100D2000286840F480302860606888B1FFF77EFD55
:100D3000064609E0286840F480202860F0E7FFF7C5
:100D400075FD801B642873D828688003F7D50BE0F5
:100D5000FFF76CFD064604E0FFF768FD801B642882
:100D6000F1D828688003F7D42078DFF86482800700
:100D70004FF0010A4FF0000939D5686810F00C0FE8
:100D800007D06868C0F38100022809D16868C003F1
:100D900006D42868800714D52069012808D110E0FE
:100DA0002069B0B1C8F800A0FFF740FD064605E095
:100DB00007E1FFF73BFD801B0228C4D828688007A5
:100DC000F7D52868616920F0F80040EAC100286082
:100DD0000DE0C8F80090FFF729FD064604E0FFF794
:100DE00025FD801B022823D828688007F7D42078A7
:100DF00000072CD57748A169D9B1C0F800A0FFF74A
:100E000015FD064604E0FFF711FD801B02280FD8F0
:100E1000686A8007F7D570484FF4FA510068B0FB54
:100E2000F1F0009000BF0098411E0091FAD20EE050
:100E30007CE0C0F80090FFF7F9FC064604E0FFF7FD
:100E4000F5FC801B022871D8686A8007F7D42078E7
:100E500040075BD5E8690027C00008D4E86940F086
:100E60008050E861E869012700F0805000905B48FD
:100E70000168C90511D40168834641F4807101609D
:100E8000FFF7D4FC064604E0FFF7D0FC801B642883
:100E90004CD8DBF80000C005F6D5E06801280AD080
:100EA00008B1052813D0286A20F001002862286ABA
:100EB00020F0040002E0286A40F001002862E068A7
:100EC00041F2883B88B1FFF7B1FC064609E0286A89
:100ED00040F004002862EEE7FFF7A8FC811B5945AB
:100EE0005BD8286A8007F7D50BE0FFF79FFC064622
:100EF00004E0FFF79BFC811B59454ED8286A800708
:100F0000F7D41FB1E86920F08050E861E069A8B328
:100F10006968C1F38101022946D00228484606D0FB
:100F2000C8F86000FFF782FC044639E035E0474628
:100F3000C8F86000FFF77AFC064604E0FFF776FC8D
:100F4000801B022829D828688001F7D4206AB0F5D0
:100F5000803F05D16868A16820F4003008436860CC
:100F6000D4E908010843696821F4741108436860F2
:100F7000C7F860A0FFF75AFC044605E023E0FFF73E
:100F800055FC001B022808D828688001F7D51AE014
:100F9000FFF74CFC001B022802D90320BDE8F88FA4
:100FA00028688001F4D40EE00128F7D06868226A2E
:100FB00000F48031914204D1616A00F470108842DB
:100FC00001D00120EAE70020E8E70000001002401D
:100FD0000000424280044242400000200070004075
:100FE000F8B505004FF0000016460C46009006D0FC
:100FF0002CB100226946284600F019F808B10120FA
:10100000F8BD287B2070E87BE070697B6170A97B6C
:10101000A17056B100F0E4FBE070607800F0E0FBF6
:101020006070A07800F0DCFBA0700020F8BD2DE916
:10103000F04791460C465FEA00084AD084B3D8F8DE
:1010400000004068400744D4404600F066FC4FF47E
:101050006162B0FBF2F10546B0FBF2F002FB105307
:101060003C20B3FBF0F36370B5FBF2F302FB1352C9
:10107000B2FBF0F300FB1320A070182931D3182025
:10108000B1FBF0F6B1FBF0F200FB1210207040460D
:1010900000F03CFC411C04D0A84202D9471B02E0EE
:1010A00017E04FF0FF37A6EB061000EB4000C0EB57
:1010B000001005EBC0152946404600F07DFC40B904
:1010C000781C01D0791900E03946404600F060FCF8
:1010D00010B10120BDE8F0873146404600F08BFB9F
:1010E00000E02170B9F1000F0BD0207800F078FB00
:1010F0002070607800F074FB6070A07800F070FBE6
:10110000A0700020E6E7000070B5040003D0607C0A
:10111000002610B105E0012070BD2674204600F0C5
:1011200043F802206074204600F012F9042578BBD1
:10113000204600F0B7FB58BB2068416821F007014A
:101140004160A06820B11748016821F001010160E9
:101150001448001F0168A26821F460711143016006
:101160006068411C04D10120FFF7F6FB80B1401EEE
:1011700021688A6822F00F0242EA10428A602168E0
:10118000CA6860F30F02CA60204600F0A5FB08B1F0
:101190006574C0E7E67301206073A073607400207B
:1011A00070BD0000306C004008B5006808498842F6
:1011B0000DD1FFF7CBFB0748C16941F00061C16168
:1011C000C069054900F0006000900120086008BD7A
:1011D00000280040001002403C0442422DE9F0414A
:1011E0000D4604003BD0C5B3207C01283AD04FF017
:1011F000010884F8108002206074E87872B300F06F
:10120000E6FAE073687800F0E2FA6073A87800F01C
:10121000DEFAA073C2B2617BE07B00F08EFB20732C
:101220002870204600F079FB4FF46161B0FBF1F1CA
:10123000002518292DD91822B1FBF2F1A1EB0111DB
:1012400001EB4101C1EB011100EBC1163146204613
:1012500000F0B2FB0427C8B90BE000E004E0012075
:10126000BDE8F0810220FBE7E07368786073A8783E
:10127000CFE7204600F04AFB411C0AD0B04208D21A
:1012800006490144204600F083FB10B167742574C1
:10129000E5E784F8118025740020E1E78051010022
:1012A0002DE9F0410D46040024D01DB3207C012817
:1012B00023D04FF0010884F8108002206074F2B14E
:1012C000287800F084FA4FF4616100FB01F6687839
:1012D00000F07DFAC0EB001006EB8006A87800F065
:1012E00076FA35182946204600F066FB00260427CA
:1012F00018BB10E00120BDE8F0810220FBE729784F
:101300004FF4616041436878C0EB001001EB80004E
:10131000A9784518E6E72068416821F00501416099
:10132000204600F0F3FA411C0AD0A84208D207492F
:101330000144204600F02CFB10B167742674D9E7F5
:1013400084F8118026740020D5E700008051010048
:1013500070B504000AD02068416821F0080141609E
:10136000FFF764FA05464FF47A7608E0012070BD75
:10137000FFF75CFA401BB04201D9032070BD206822
:1013800040680007F4D5002070BD70B5040009D096
:10139000606A002540B125616561A56294F851003D
:1013A00040B10CE0012070BD6068B0F5827FF4D0E0
:1013B000E561F2E784F85050204600F03FF8022043
:1013C00084F851002068016821F040010160A08884
:1013D000218900F4827001F404410843A18901F4D9
:1013E00000610843217C01F002010843217D01F0E6
:1013F00001010843218B01F400710843217F01F0B2
:101400003801084394F8201001F080010843218D31
:1014100001F40051084321680860A069042101EA31
:101420001040216848602068C16921F40061C161F1
:101430006565012084F85100002070BD00B585B0BD
:101440000021009101910291039100680F498842A7
:101450001AD10F48816941F480518161816901F499
:1014600080510491816941F004018161806969467C
:1014700000F004000490A0200090022001900320BE
:1014800003900448FFF7E2F805B000BD00300140CA
:1014900000100240000801402DE9F84F044690F882
:1014A000500000261D469046894601280ED04FF078
:1014B000010B84F850B0FFF7B9F9074694F85100D2
:1014C0004146B246012804D0022694E00220BDE83D
:1014D000F88FB9F1000F74D0B8F1000F71D003206C
:1014E00084F85100C4F854A0C4F83090A4F83480B3
:1014F000A4F83680C4F838A0A4F83CA0A4F83EA014
:10150000C4F844A0C4F840A0A068B0F5004F09D1C9
:101510002068026822F0400202602068026842F4FB
:101520008042026020680268520603D4026842F0DA
:1015300040020260E068B0F5006F606803D028B335
:10154000012923D03FE008B101291BD1206B21687C
:101550000088C86006E020688168890709D5216B8A
:101560000988C160206B801C2063E08E401EE086ED
:1015700008E0FFF75BF9C01BA84202D3681C01D04A
:1015800030E075B3E08E0028E5D11FE0206B2168C4
:101590000078087306E020688168890709D5216B07
:1015A00009780173206B401C2063E08E401EE086AA
:1015B00009E0FFF73BF9C01BA84203D3681C02D027
:1015C00010E017E06DB1E08E0028E4D13A462946DC
:1015D000204600F005FA08B120206065A06818B127
:1015E00006E0FFE7032606E02068C16880680090F7
:1015F000606D00B1012684F851B084F850A03046E7
:1016000065E710B5401EB0F1807F01D3012010BD09
:101610004FF0E02460610F21601700F0E8FC00202B
:10162000A06107202061002010BDFEE72DE9F04FEA
:1016300085B0002432480094019402940394816997
:1016400041F010018161816901F01001049181690B
:1016500041F020018161816901F0200104918169DB
:1016600041F004018161816901F004010491816903
:1016700041F0080181618069DFF8889000F008007E
:101680004FF400550490002229464846FFF7C9F858
:10169000DFF874A049F60F07002239465046FFF7DD
:1016A000C0F8DFF868B040F67A4800224146584654
:1016B000FFF7B7F80095022601250396CDE90154FE
:1016C00069464846FEF7C2FF00970396CDE90154EC
:1016D00069465046FEF7BAFF4020CDE9000469464E
:1016E00050460294FEF7B2FFCDF800800396CDE994
:1016F000015469465846FEF7A9FF05B0BDE8F08FD2
:10170000001002400010014000080140000C0140A0
:101710001CB500241A480094184901940160611E08
:10172000416080218160FFF7EFFC08B172B6FEE7EF
:101730008DF8004029208DF801008DF8024001222B
:1017400069460F48FFF7ACFD08B172B6FEE7062008
:101750008DF8040001208DF8050007208DF80600A3
:1017600022208DF80700012201A90548FFF736FD68
:10177000002801D072B6FEE71CBD00000028004022
:101780005C0000200F4810B50D4901604FF48271D4
:10179000416000218160C1604FF400720161C0E9C5
:1017A00005120822C0E90721416281620A21C16253
:1017B000FFF7EBFD002801D072B6FEE710BD000078
:1017C0000030014070000020FEE7FEE7704701098D
:1017D00001EB810100F00F0000EB4100C0B2704747
:1017E000002102E00A38C0B2491C0A28FAD20907CF
:1017F00040EA116070472DE9F04104460025C07BA6
:10180000627BA37B42E0012A16D0032A14D0052A6A
:1018100012D0072A10D0082A0ED00A2A0CD00C2A7F
:101820000AD0042A10D0062A0ED0092A0CD00B2A7E
:101830000AD0022A0DD028E01F2B0CD30C2A05D188
:1018400001221346401C20E01E2B04D30123521C0E
:101850001BE01C2B02D203F1010316E011D183B26D
:101860009E0710D16426B3FBF6F706FB173636B990
:101870004FF4C876B3FBF6F706FB17331BB91D23ED
:1018800003E01D2B01D1032201236D1C8D42BAD32D
:10189000D1B2E0736173DAB2A27300F04EF8207334
:1018A000BDE8F08170B50546FEF7C0FF04464FF471
:1018B0007A7606E0FEF7BAFF001BB04201D903209A
:1018C00070BD286840688006F4D52868416841F0FA
:1018D00010014160002070BD70B505460068416888
:1018E00021F010014160FEF7A1FF04464FF47A7623
:1018F00006E0FEF79BFF001BB04201D9032070BD3C
:10190000286840688006F4D5002070BD0068016A30
:10191000406A80B240EA01407047006881698AB23B
:10192000C1698BB2816989B28A4203D0C06961F30F
:101930001F40704743EA02407047F0B56426C1EB90
:10194000C1030925B700072403EB01130329B3FBE7
:10195000F5F100F5FA60114401440AD2401EB0FBD3
:10196000F6F201EB9001B0FBF7F0891A0844001D74
:1019700008E0B0FBF6F201EB9001B0FBF7F0891A3A
:101980000844801CB0FBF4F104FB1100C0B2F0BDB0
:1019900070B50D4606460024FFF784FF48B931684C
:1019A000280C08623168A8B248623046FFF794FFFD
:1019B00000B10124204670BD70B50D4606460024D6
:1019C000FFF770FF48B93168280C88613168A8B208
:1019D000C8613046FFF780FF00B10124204670BD8A
:1019E00038B50B46009204460022802100F008F82A
:1019F000002804D0606D40F020006065032038BDF1
:101A00002DE9F8431E46914688460446089DFEF798
:101A10000DFF401B351AFEF709FF074625480068F1
:101A2000C0F3CB30684338E0701C37D0FEF7FEFEC1
:101A3000C01BA84203D215B1009860B32CE0206807
:101A4000416821F0E00141606068B0F5827F0BD110
:101A5000A068B0F5004F02D0B0F5806F04D12068C7
:101A6000016821F040010160A06AB0F5005F09D172
:101A70002068016821F4005101602068016841F488
:101A800000510160012084F85100002084F85000CA
:101A90000320BDE8F8830025401E0090206881687F
:101AA00038EA010004D000204845BDD10020F0E70D
:101AB0000120F9E7400000202DE9F05F05461A48B3
:101AC0000C469846B0F9061091468D422ADAB0F9D4
:101AD0000400844226DA05EB09077F1E8F4221DAD3
:101AE00004EB0806761E86421CDADFF840B04FF49D
:101AF000006A002251465846FEF793FEF3B2FAB24E
:101B0000E1B2E8B200F094F94FEA490101FB08F1B3
:101B10000A9800F011FA51465846BDE8F05F0122DC
:101B2000FEF77FBEBDE8F09F14000020000C0140CE
:101B30002DE9F05F0D4604461746581BA2EB040141
:101B400000D54042002900DA4942884201DD0120E7
:101B500000E000205FEA000A04D020462C461F4621
:101B600005461346BC4205DD20463C46074628464E
:101B70001D460346381B0FFA80F8581B00D540421B
:101B80000FFA80FB08EBD87046109D4201DA012065
:101B900001E04FF0FF30814617E0BAF1000F02D0AC
:101BA000A1B2A8B201E0A9B2A0B20A9A00F012F85C
:101BB000A6EB0B0006B2002E05DA05EB090005B214
:101BC00006EB080006B2641C24B2BC42E5DDBDE8A9
:101BD000F09F00002DE9F843054616480C461646CE
:101BE000B0F906108D4222DAB0F9040084421EDA00
:101BF000DFF844804FF40067002239464046FEF784
:101C000010FE601CC3B2681CC2B2E1B2E8B200F0C0
:101C10000FF9300A8DF800008DF801600221684646
:101C200000F08AF9012239464046FEF7FAFDBDE888
:101C3000F883000014000020000C01402DE9FE4F45
:101C40001446DDE90DA90E460546984600224FF4DC
:101C500000611848DDF830B0FEF7E3FD08F0FF073B
:101C60001DE015497819B1F9063098420BDBC8F32D
:101C7000072083199EB2B1F9041000253044884230
:101C800010DA202A0AD0CDF800B0CDE901A94346E8
:101C90003146284600F0F8F8781985B2641C22789D
:101CA000002ADED103B00122BDE8F04FD102014885
:101CB000FEF7B7BD000C0140140000202DE9F041F3
:101CC00010F8015B044617E0207800F021F96078F5
:101CD000A41C00F0800730F0800604D03146204676
:101CE00000F02AF934443FB114F8010BFF2801D168
:101CF0004FF4FA70FEF798FC6D1EEDB2E4D2BDE829
:101D0000F08100002DE9F84F0C4629490746DDF81F
:101D10002880B1F906001D461646874245DAB1F91A
:101D200004108C4241DABA19521E824201DBC01BF8
:101D300086B26019401E884201DB081B85B2DFF8BD
:101D400074904FF4006A002251464846FEF769FD40
:101D50006019401EC3B2B819401EC2B2E1B2F8B257
:101D600000F066F84FEA18208DF8000001228DF887
:101D7000018091024846FEF754FD4FF0FF370DE019
:101D8000344607E03B46022269460B48FFF784FBD6
:101D9000641EA4B2002CF5D16D1EADB2002DEFD1A2
:101DA000012251464846FEF73CFDBDE8F88F000091
:101DB00014000020000C01407000002008B50090C5
:101DC00004488188C0888BB282B200210846FFF7A0
:101DD00099FF08BD1400002070B5134D4FF4006446
:101DE000002221462846FEF71CFD0022022128463B
:101DF000FEF717FD1420FEF717FC012202212846EA
:101E0000FEF70FFD0948FFF759FF08483B30FFF781
:101E100055FF06484830FFF751FF21462846BDE8E8
:101E200070400122FEF7FDBC000C01408441000817
:101E3000F8B504461D4616460F462A2000F068F8FD
:101E40000020009020460F4C617808448DF8010076
:101E500070188DF803000421684600F06DF82B20FF
:101E600000F056F8A07839188DF8011028448DF844
:101E700003000421684600F05FF82C2000F048F8C9
:101E8000F8BD0000140000200FB42DE9FC5F4A1ECD
:101E9000C3F307273A44D4B2DAB2431E01921A447C
:101EA000D2B2C9B2C0B22346FFF7C2FF002528E074
:101EB0000E981099203800FB0750002431F810606C
:101EC00011984FEA102B00F0FF0A12984FEA1029E0
:101ED00000F0FF0811E006FA04F0000404D58DF8C4
:101EE00000B08DF801A003E08DF800908DF801801E
:101EF0000221684600F020F8641C0198A042EAD84C
:101F00006D1CAF42D4D8BDE8FC1F5DF814FB000087
:101F100001B500224FF480610548FEF782FC4FF0C6
:101F2000FF33012269460348FFF7B6FA08BD0000F7
:101F3000000C01407000002070B50C4605460122DF
:101F400091020648FEF76DFCA2B22946BDE870403A
:101F50004FF0FF330248FFF79FBA0000000C01402A
:101F6000700000207047FEF767BC70B594B0282160
:101F70006846FEF77BFA14210AA8FEF777FA0024D8
:101F80000F940920012510940090119412944FF49D
:101F9000803004950695CDE901040226CDE907605D
:101FA0004FF4E01009906846FEF78EFE08B172B655
:101FB000FEE70F20CDE90A0680200C90C000CDE995
:101FC0000D0402210AA8FEF79DFD08B172B6FEE7D6
:101FD0004FF40070CDE90F500FA8FEF71FFD002849
:101FE00001D072B6FEE714B070BD7047FEE7090776
:101FF000090E002804DB00F1E02080F8001470478F
:1020000000F00F0000F1E02080F8141D7047303818
:102010000A2801D201207047002070472DE9FE43B5
:1020200000F072F8244D0446022802D0012C03D09F
:1020300005E06878401E01E06878401C68704FF643
:102040001F074FF01F081D4ECDE9018770680090F3
:102050000A211BA208463368FFF7F0FD68780128C3
:1020600004D0022804D0032806D116E019A100E00C
:102070001CA12048FEF7C8F8B946CDE9018970686F
:10208000009047461B4A14210A203368FFF7D6FD0B
:10209000052C04D00020BDE8FE8317A1E9E74846DF
:1020A000FFF78CFE59220023A02110460097FFF76E
:1020B0003FFD6878EFE700000000002004000020EA
:1020C0006261736C616E67696320656B72616E69D2
:1020D000000000005A4F524C554B203A204B4F4CB9
:1020E000415900005A4F524C554B203A204F525400
:1020F00041200000440000205A4F524C554B203ADA
:10210000205A4F52202000002DE9F047394C04217D
:102110002046FEF781FB824608212046FEF77CFB25
:10212000814602212046FEF777FB804601212046AA
:10213000FEF772FB074640212046FEF76DFB2E4D51
:10214000064601212846FEF767FBBAF1010F0ED0C3
:10215000B9F1010F16D0B8F1010F1ED0012F27D011
:10216000012E30D0012839D00020BDE8F0870421AD
:102170002046FEF751FB0028F9D10A20FEF754FA59
:102180000120F2E708212046FEF746FB0028F9D19E
:102190000A20FEF749FA0220E7E702212046FEF76F
:1021A0003BFB0028F9D10A20FEF73EFA0320DCE7CA
:1021B00001212046FEF730FB0028F9D10A20FEF766
:1021C00033FA0420D1E740212046FEF725FB002802
:1021D000F9D10A20FEF728FA0520C6E70121284692
:1021E000FEF71AFB0028F9D10A20FEF71DFA062097
:1021F000BBE7000000080140000C01402DE9F74F4B
:10220000AF4B074684B00420187000200122C0EBB9
:10221000C00101EB41013944401CCA740B28F6DBB4
:102220004FF0FF35FFF770FF032802D0042826D0B7
:1022300049E0A34C2078C0EBC00101EB41013944D7
:10224000294491F8541001293DD0062801D90620CF
:1022500020700A20FEF7E8F920784FF61F01401C95
:10226000C0B220706FF00602009102EBC0004FF682
:10227000FF71072301EAC50180B2082220E0904CDB
:102280002078C0EBC00101EB41013944294411F829
:10229000151C012916D008B9012020700A20FEF76C
:1022A000C3F920784FF61F01401EC0B22070009184
:1022B000C0004FF6FF7101EAC50107230822203054
:1022C000FFF720FD6D1E7E4E3078C0EBC00000EBA6
:1022D00040003844415D012952D02844417D012904
:1022E0004ED090F82A1001294AD090F83F000128DA
:1022F00046D00698FEF798F94FF01F08CDF80080F9
:102300003278EC004FF00109083409EBC2000723D2
:10231000A1B21A46FFF7F6FCCDF80080307809220A
:1023200002EBC0000723A1B21A46FFF7EBFCCDF881
:1023300000803078112202EBC0000723A1B21A46B8
:10234000FFF7E0FCCDF800803078192202EBC000E6
:102350000723A1B21A46FFF7D5FC4FF61F000090E5
:102360004FF6FF70327800EAC50109EBC20007237F
:102370001F22FFF7C7FC4FF000084FF0120925E0BD
:102380004F4A01211078C0EBC00000EB40003844F8
:10239000284400F8011C1078C0EBC00000EB40009E
:1023A0003844284401751078C0EBC00000EB4000B1
:1023B0003844284480F829101078C0EBC00000EBA6
:1023C00040003844284480F83E1074E04FF0000A82
:1023D000CAEBCA0000EB4000C11911F80900E8B3CC
:1023E00008F1010000F0FF08B8F10B0F48D1059883
:1023F0004FF000080A3080B205905FEA09043FD42C
:10240000E00008304FF61F0BCDE900B081B2072382
:1024100059220020FFF776FC4FF6FF7000EAC40057
:1024200000260290C6EBC60000EB400000EB070B55
:102430000BEB0401002011F8012D0BF804200870AB
:102440004FF61F0000900723592200200299FFF742
:1024500059FC1BF8040001280DD100E010E01F20FA
:1024600000900120019900EBC600072389B280B2D9
:102470001A46FFF747FC761C0B2ED3DB641EBFD534
:102480000AF1010ABAF10B0FA2DBA9F101094FF021
:102490000008B9F1000F99DC0020C0EBC00101EB8E
:1024A0004101795C012902D0401C0B28F5DB6D1C31
:1024B000142DFFF6B7AE059807B0BDE8F08F000009
:1024C000000000202DE9F74FA94B074684B00420F7
:1024D000187000200122C0EBC00101EB410139441A
:1024E000401CCA740B28F6DB4FF0FF36FFF70CFEDA
:1024F000032802D0042826D049E09D4C2078C0EB68
:10250000C00101EB41013944314491F854100129D3
:102510003DD0092801D9092020700A20FEF784F84F
:1025200020784FF61F01401CC0B220706FF00602E9
:10253000009102EBC0004FF6FF711F2301EAC601B4
:1025400080B2082220E08A4C2078C0EBC00101EB69
:1025500041013944314411F8151C012916D008B93C
:10256000012020700A20FEF75FF820784FF61F0147
:10257000401EC0B220700091C0004FF6FF7101EA0A
:10258000C6011F2308220830FFF7BCFB761E784DDA
:102590002878C0EBC00000EB400038443044C078DD
:1025A000012849D00698FEF73FF84FF01F09F400C4
:1025B000CDF8009004F108002A784FF0010881B2AC
:1025C00008EBC20007231A46FFF79CFBCDF80090EA
:1025D00004F110002A7881B208EBC20007231A46E2
:1025E000FFF790FBCDF8009004F118002A7881B233
:1025F00008EBC20007231A46FFF784FBCDF80090D2
:102600002A78203408EBC2000723A1B21A46FFF74C
:1026100079FB4FF61F0000904FF6FF702A7800EA12
:10262000C60108EBC20007231A46FFF76BFB4FF009
:1026300000084FF0120922E04D4A01211078C0EB4A
:10264000C00000EB40003844304400F8011C107812
:10265000C0EBC00000EB4000384481551078C0EB5F
:10266000C00000EB40003844304441701078C0EBAB
:10267000C00000EB400038443044817074E04FF0FB
:10268000000ACAEBCA0000EB4000C11911F80900AA
:10269000F0B308F1010000F0FF08B8F10B0F48D1CA
:1026A00005984FF000080A3080B205905FEA0904EF
:1026B0003FD4E00008304FF61F0BCDE900B081B2E7
:1026C000072359220020FFF71DFB4FF6FF7000EA99
:1026D000C40000250290C5EBC50000EB400000EBF4
:1026E000070B0BEB0401002011F8012D0BF804205F
:1026F00008704FF61F00009007235922002002990E
:10270000FFF700FB1BF8040001280DD11F2000E09B
:102710000FE000900120019900EBC500072389B26A
:1027200080B21A46FFF7EEFA6D1C0B2DD3DB641E48
:10273000BFD50AF1010ABAF10B0FA2DBA9F1010919
:102740004FF00008B9F1000F99DC0020C0EBC00188
:1027500001EB4101795C012902D0401C0B28F5DB1B
:10276000761C142EFFF6C2AE059807B0BDE8F08FB8
:10277000000000200EB5002202A90F48FEF757FC0A
:10278000002201A90C48FEF72BFC9DF809309DF8AA
:1027900008200AA10C48FDF737FD9DF807009DF8B9
:1027A000053000F5FA6000909DF8062007A10B485F
:1027B000FDF72AFD0EBD00005C00002025303264CC
:1027C0003A253032640000002A00002025303264AF
:1027D0002D253032642D253264000000AF01002029
:1027E0002DE9F74FBE4B054684B004201870002039
:1027F0000122C0EBC00101EB41012944401CCA7415
:102800000B28F6DB4FF0FF34FFF77EFC032802D0E5
:10281000042826D04AE0B24E3078C0EBC00101EB6C
:1028200041012944214491F82A1001293ED0082869
:1028300001D9082030700A20FDF7F6FE30784FF6F7
:102840001F01401CC0B230706FF00602009102EB15
:10285000C0004FF6FF710F2301EAC40180B20722C6
:1028600021E09F4E3078C0EBC00101EB41012944CB
:10287000214411F8151C012918D008B90120307025
:102880000A20FDF7D1FE30784FF61F01401EC0B27E
:102890003070009109224FF6FF7102EBC0000F2348
:1028A00001EAC4011A46FFF72DFA641E8C4E3078F7
:1028B000C0EBC00000EB40002844204441780129CF
:1028C00071D0807D01286ED00698FDF7ADFE4FF0E7
:1028D0001F08E70007F10800CDF8008032784FF0BC
:1028E000010A814681B20AEBC20007231A46FFF7AC
:1028F00009FACDF800801FFA89F132784FF0090902
:1029000009EBC20007231A46FFF7FCF907F1100094
:10291000CDF800803278834681B20AEBC2000723EB
:102920001A46FFF7EFF9CDF800803278072309EB5C
:10293000C2001FFA8BF11A46FFF7E4F94FF61F08A1
:102940004FF6FF70CDF8008000EAC401327807230B
:102950000AEBC2008B461A46FFF7D4F9CDF8008087
:102960003278072309EBC20059461A46FFF7CAF925
:10297000CDF800803278083F0AEBC2000723B9B2D5
:102980001A46FFF7BFF9CDF800803278072309EB2C
:10299000C200B9B21A46FFF7B5F94FF000084FF080
:1029A000120923E0FFE74E4A01211078C0EBC00076
:1029B00000EB40002844204400F8011C1078C0EBD4
:1029C000C00000EB40002844204401751078C0EBA3
:1029D000C00000EB4000284401551078C0EBC00057
:1029E00000EB400028442044417574E04FF0000A99
:1029F000CAEBCA0000EB4000411911F80900E8B326
:102A000008F1010000F0FF08B8F10B0F48D305985A
:102A10004FF000080A3080B205905FEA09063FD403
:102A2000F00008304FF61F0BCDE900B081B207234C
:102A300059220020FFF766F94FF6FF7000EAC60042
:102A400000270290C7EBC70000EB400000EB050B2E
:102A50000BEB0601002011F8012D0BF80620087081
:102A60004FF61F0000900723592200200299FFF71C
:102A700049F91BF8060001280DD100E010E01F20E5
:102A800000900120019900EBC700072389B280B2B2
:102A90001A46FFF737F97F1C0B2FD3DB761EBFD505
:102AA0000AF1010ABAF10B0FA2DBA9F101094FF0FB
:102AB0000008B9F1000F99DC0020C0EBC00101EB68
:102AC0004101695C012902D0401C0B28F5DB641C24
:102AD000142CFFF699AE059807B0BDE8F08F000002
:102AE000000000200EB5FDF7AFFEFFF73EFAFEF73F
:102AF0009DFDFEF747FEFEF70BFE012251036148E4
:102B0000FDF78FFE604C00224FF480512046FDF708
:102B100088FE0022E1142046FDF783FE00224FF4D8
:102B200000412046FDF77DFE584C00224021204602
:102B3000FDF777FE002220212046FDF772FE0022DD
:102B400010212046FDF76DFE012208212046FDF7E9
:102B500068FEFFF741F91F20FFF730F94C4840238A
:102B600000901A4628212020FEF7A6FF6420FDF7DA
:102B70005BFD4FF6FF714FF0000BCDE901B1454D04
:102B800045A27821686800900A202B68FFF756F864
:102B90004FF4FA70FDF748FD4FF61F073846FFF770
:102BA0000DF9DFF800A1DFF800814FF01F0946465C
:102BB00002E0FFF733FA307030780028F9D0C0B265
:102BC000012804D0022804D0032805D103E096246C
:102BD00002E0642400E03224FFF7CCFDCDE9019748
:102BE00068680090304A96210A325C202B68FFF713
:102BF00025F8FDF7CFFA032190FBF1F201FB12005B
:102C000070802948B28829A1801DFDF7FDFACDE921
:102C100001B76868009026A205215F202B68FFF7A6
:102C20000DF8B088CDE90197DAF8041000911E4A3A
:102C30000028DAF80030504602F106024FF0100189
:102C400005D06220FEF7FAFF708810B107E0692016
:102C5000F8E72246B1881848FFF7C2FDB0807088B7
:102C6000012805D12246B1881348FFF7C7FAB08082
:102C7000708802289BD12246B1880F48FFF722FCBA
:102C8000B08094E70010014000080140000C0140B2
:102C9000F8410008040000206261736C69796F726A
:102CA0002E2E2E000C0000202000002025640000A5
:102CB000534B4F5200000000C800002000000000ED
:102CC0000000000000000000000000000000000004
:102CD0000010001000100010001000100000001084
:102CE000000000000028002800280000000000006C
:102CF000000000000000000000240024007C0024EC
:102D00000048007C004800480000000000380054E3
:102D10000050003800140054005400380010000027
:102D2000002000540058003000280054001400080F
:102D300000000000001000280028001000340048A7
:102D400000480034000000000010001000100000D7
:102D5000000000000000000000000000000800105B
:102D6000002000200020002000200020001000088B
:102D700000200010000800080008000800080008F3
:102D80000010002000100038001000280000000093
:102D90000000000000000000000000000010001013
:102DA000007C001000100000000000000000000087
:102DB00000000000000000000000001000100010E3
:102DC00000000000000000000000003800000000CB
:102DD00000000000000000000000000000000000F3
:102DE00000000010000000000008000800100010A3
:102DF00000100010002000200000000000380044F7
:102E00000044005400440044004400380000000026
:102E100000100030005000100010001000100010D2
:102E200000000000003800440044000400080010C6
:102E30000020007C0000000000380044000400185E
:102E400000040004004400380000000000080018DE
:102E5000002800280048007C00080008000000004E
:102E6000007C00400040007800040004004400386A
:102E70000000000000380044004000780044004496
:102E80000044003800000000007C0004000800102E
:102E90000010002000200020000000000038004446
:102EA00000440038004400440044003800000000A2
:102EB0000038004400440044003C00040044003852
:102EC00000000000000000000010000000000000F2
:102ED00000000010000000000000000000000010D2
:102EE00000000000000000100010001000000000B2
:102EF000000C003000400030000C0000000000001A
:102F0000000000000000007C0000007C00000000C9
:102F1000000000000000000000600018000400181D
:102F200000600000000000000038004400040008B9
:102F300000100010000000100000000000380044E5
:102F4000004C0054005C00400040003800000000CD
:102F500000100028002800280028007C00440044BD
:102F60000000000000780044004400780044004461
:102F70000044007800000000003800440040004099
:102F8000004000400044003800000000007000488D
:102F90000044004400440044004800700000000069
:102FA000007C00400040007C004000400040007C6D
:102FB00000000000007C004000400078004000401D
:102FC0000040004000000000003800440040004085
:102FD000005C00440044003800000000004400444D
:102FE0000044007C00440044004400440000000011
:102FF0000038001000100010001000100010003801
:1030000000000000000400040004000400040004A8
:1030100000440038000000000044004800500060F8
:1030200000500048004800440000000000400040FC
:1030300000400040004000400040007C00000000D4
:103040000044006C006C0054004400440044004400
:103050000000000000440064006400540054004C70
:10306000004C0044000000000038004400440044CC
:103070000044004400440038000000000078004490
:103080000044004400780040004000400000000080
:103090000038004400440044004400440054003818
:1030A0000004000000780044004400440078004818
:1030B0000048004400000000003800440040003098
:1030C000000800040044003800000000007C0010EC
:1030D0000010001000100010001000100000000090
:1030E00000440044004400440044004400440038CC
:1030F000000000000044004400440028002800288C
:10310000001000100000000000440044005400546F
:103110000054006C00280028000000000044002833
:1031200000280010001000280028004400000000C3
:103130000044004400280028001000100010001077
:1031400000000000007C00040008001000100020B7
:103150000040007C0000000000180010001000106B
:1031600000100010001000100010001800200020B7
:1031700000100010001000100008000800000000FF
:10318000003000100010001000100010001000109F
:10319000001000300010002800280044000000004B
:1031A000000000000000000000000000000000001F
:1031B0000000000000000000000000FE00200010E1
:1031C00000000000000000000000000000000000FF
:1031D0000000000000380044003C0044004C003473
:1031E000000000000040004000580064004400441B
:1031F0000064005800000000000000000038004497
:1032000000400040004400380000000000040004BA
:103210000034004C00440044004C00340000000026
:103220000000000000380044007C004000440038EA
:1032300000000000000C0010007C001000100010C6
:103240000010001000000000000000000034004CDE
:1032500000440044004C003400040078004000406A
:103260000058006400440044004400440000000092
:10327000001000000070001000100010001000107E
:10328000000000000010000000700010001000108E
:1032900000100010001000E0004000400048005006
:1032A0000060005000480044000000000070001062
:1032B00000100010001000100010001000000000AE
:1032C00000000000007800540054005400540054E2
:1032D00000000000000000000058006400440044AA
:1032E00000440044000000000000000000380044DA
:1032F00000440044004400380000000000000000CA
:10330000005800640044004400640058004000403D
:10331000000000000034004C00440044004C003425
:103320000004000400000000005800640040004059
:103330000040004000000000000000000038004491
:103340000030000800440038000000000020002089
:10335000007800200020002000200018000000005D
:10336000000000000044004400440044004C0034CD
:103370000000000000000000004400440028002875
:10338000002800100000000000000000005400545D
:103390000054006C0028002800000000000000001D
:1033A0000044002800100010002800440000000025
:1033B0000000000000440044002800280010001015
:1033C0000010006000000000007C000800100020D9
:1033D0000040007C000000000018001000100010E9
:1033E0000020002000100010001000180010001035
:1033F000001000100010001000100010001000104D
:10340000003000100010001000080008001000102C
:10341000001000300000000000000074004C0000AC
:10342000000000000000000000000000000000009C
:10343000000000000000000000000000000000008C
:103440000000000000000000000000000000000C70
:10345000000C000C000C000C000C000C000C000C0C
:10346000000C000C0000000C000C0000000000002C
:103470000000001B001B001B001B001B00000000C5
:10348000000000000000000000000000000000003C
:103490000000000000008019801980198019C07F89
:1034A000C07F80190033C07FC07F003300330033FA
:1034B00000330000000000000000001E003F807587
:1034C00080650074003C001E0007800580658065F3
:1034D0008075003F001E0004000400000000007022
:1034E00000D840D8C0D880D900730006000C801BDB
:1034F000C036C066C046C006800300000000000061
:103500000000001E003F003300330033001E000C9B
:10351000C03CC066806380618063C03E801C000048
:10352000000000000000000C000C000C000C000C5F
:10353000000000000000000000000000000000008B
:1035400000000000000000008000000100030006F1
:1035500000060004000C000C000C000C000C000C19
:103560000004000600060003000180000020001097
:103570000018000C000C00040006000600060006FF
:10358000000600060004000C000C001800100020CB
:103590000000000C002D003F001E00330000000062
:1035A000000000000000000000000000000000001B
:1035B00000000000000000000000000C000C000CE7
:1035C000000CC0FFC0FF000C000C000C000C000041
:1035D00000000000000000000000000000000000EB
:1035E00000000000000000000000000000000000DB
:1035F0000000000C000C00040004000800000000A3
:103600000000000000000000000000000000001E9C
:10361000001E00000000000000000000000000008C
:10362000000000000000000000000000000000009A
:1036300000000000000000000000000C000C000072
:103640000000000000000003000300030006000665
:1036500000060006000C000C000C000C00180018FE
:1036600000180000000000000000001E003F0033B2
:10367000806180618061806D806D8061806180612A
:103680000033003F001E00000000000000000006A4
:10369000000E001E0036002600060006000600068A
:1036A00000060006000600060006000000000000FC
:1036B0000000001E003F8073806180618001000374
:1036C0000006000C001800300060807F807F000042
:1036D000000000000000001C003E006300630003C7
:1036E000000E000E00038001800180618073003FA6
:1036F000001E00000000000000000006000E000E8A
:10370000001E001E0016003600360066807F807F97
:103710000006000600060000000000000000007F18
:10372000007F006000600060006E007F80638001A9
:10373000800180618073003F001E000000000000D7
:103740000000001E003F803380610060006E007F3B
:1037500080738061806180618033003F001E0000C3
:10376000000000000000807F807F800100030003D4
:1037700000060006000C000C000C000800180018E1
:1037800000180000000000000000001E003F8063E1
:10379000806180610021001E003F80618061806146
:1037A0008061003F001E0000000000000000001EBD
:1037B000003F00738061806180618073803F801D65
:1037C000800180610073003F001E000000000000C7
:1037D00000000000000000000000000C000C0000D1
:1037E00000000000000000000000000C000C0000C1
:1037F00000000000000000000000000000000000C9
:10380000000C000C00000000000000000000000C94
:10381000000C00040004000800000000000000008C
:1038200080008003000E003800600038000E800326
:103830008000000000000000000000000000000008
:10384000000000000000807F807F00000000807F7B
:10385000807F000000000000000000000000000069
:10386000000000000000000000400070001C000785
:1038700080010007001C00700040000000000000F4
:10388000000000000000001F803FC071C060C00049
:10389000C00180030007000E000C000C0000000CAB
:1038A000000C0000000000000000001E003F8031FE
:1038B00080718063806F806D806D806F8067006035
:1038C0000032003E001C0000000000000000000E5E
:1038D000000E001B001B001B001B80318031803F4D
:1038E000803F8031C060C060C06000000000000008
:1038F0000000007C007E0063006300630063007EC4
:10390000007E0063806180618063007F007E000034
:10391000000000000000001E003F80318061006058
:103920000060006000600060006080618031003FE6
:10393000001E0000000000000000007C007F00630B
:1039400080638061806180618061806180610063EB
:103950000063007E007C0000000000000000807F0B
:10396000807F0060006000600060007F007F00607A
:10397000006000600060807F807F00000000000029
:103980000000807F807F0060006000600060007F3A
:10399000007F006000600060006000600060000068
:1039A000000000000000001E003F803180610060C8
:1039B0000060006080638063806180618031803F4F
:1039C000001E000000000000000080618061806136
:1039D000806180618061807F807F806180618061A3
:1039E0008061806180610000000000000000003FF5
:1039F000003F000C000C000C000C000C000C000C34
:103A0000000C000C000C003F003F00000000000014
:103A1000000080018001800180018001800180011F
:103A200080018001806180618073003F001E000082
:103A3000000000000000C060806100630066006656
:103A4000006C0078007C0066006600638061806125
:103A5000C060000000000000000000600060006026
:103A60000060006000600060006000600060006056
:103A70000060807F807F0000000000000000C071B7
:103A8000C071C07BC07AC06AC06AC06EC064C060CA
:103A9000C060C060C060C060C06000000000000086
:103AA000000080718071807980798079806D806D6F
:103AB000806D8065806780678067806380630000B9
:103AC000000000000000001E003F003380618061A4
:103AD0008061806180618061806180610033003F2E
:103AE000001E0000000000000000007E007F8063D8
:103AF0008061806180618063007F007E0060006083
:103B00000060006000600000000000000000001E77
:103B1000003F0033806180618061806180618061ED
:103B2000806580670033803F401E00000000000079
:103B30000000007E007F8063806180618063007F81
:103B4000007E00660063006380618061C0600000E9
:103B5000000000000000000E001F803180310030A6
:103B60000038001E00078003806180618031003FC3
:103B7000001E0000000000000000C0FFC0FF000C9D
:103B8000000C000C000C000C000C000C000C000CD5
:103B9000000C000C000C0000000000000000806120
:103BA000806180618061806180618061806180610D
:103BB000806180618073003F001E000000000000F3
:103BC0000000C060C060C060803180318031001B67
:103BD000001B001B001B000E000E000E0004000066
:103BE000000000000000C0C0C0C0C0C0C0C0C0C055
:103BF000C0CC804C804C805E80528052807380614B
:103C000080610000000000000000C0C08060806192
:103C10000033003B001E000C000C001E001F003B88
:103C200080718061C0C00000000000000000C0C0C2
:103C30008061806100330033001E001E000C000C08
:103C4000000C000C000C000C000C00000000000038
:103C50000000803F803F8001000300030006000C4D
:103C6000000C0018001800300060807F807F00008A
:103C700000000000000F000F000C000C000C000CF6
:103C8000000C000C000C000C000C000C000C000CD4
:103C9000000C000C000F000F0000001800180018A6
:103CA000000C000C000C000C0006000600060006CC
:103CB000000300030003000000000000001E001EBF
:103CC00000060006000600060006000600060006C4
:103CD000000600060006000600060006001E001E84
:103CE0000000000C000C001E001200330033806145
:103CF00080610000000000000000000000000000E3
:103D000000000000000000000000000000000000B3
:103D100000000000000000000000000000000000A3
:103D200000000000E0FF0000000000380018000C58
:103D30000000000000000000000000000000000083
:103D40000000000000000000000000000000000073
:103D5000000000000000001F803F80618001801F84
:103D6000803F80618063807FC038000000000000D9
:103D700000000060006000600060006E007F8073E3
:103D800080618061806180618073007F006E0000CF
:103D90000000000000000000000000000000001E05
:103DA000003F807380610060006080618073003F2D
:103DB000001E000000000000000080018001800162
:103DC0008001801D803F807380618061806180619F
:103DD0008073803F801D0000000000000000000094
:103DE000000000000000001E003F00738061807F23
:103DF000807F00608071003F001E00000000000016
:103E00000000C007C00F000C000C807F807F000CFA
:103E1000000C000C000C000C000C000C000C00004E
:103E2000000000000000000000000000801D803F36
:103E3000807380618061806180618073803F801DBC
:103E400080018063007F003E000000600060006031
:103E50000060006F807F807180618061806180611F
:103E600080618061806100000000000000000006A9
:103E7000000600000000003E003E000600060006AE
:103E80000006000600060006000600000000000014
:103E90000006000600000000003E003E000600068E
:103EA00000060006000600060006000600060046A2
:103EB000007E003C000000600060006000608061E7
:103EC00000630066006C007C007600630063806124
:103ED000C0600000000000000000003E003E000640
:103EE00000060006000600060006000600060006A2
:103EF00000060006000600000000000000000000B0
:103F000000000000000080DDC0FFC0CEC0CCC0CCEF
:103F1000C0CCC0CCC0CCC0CCC0CC000000000000E5
:103F200000000000000000000000006F807F807132
:103F3000806180618061806180618061806100005A
:103F40000000000000000000000000000000001E53
:103F5000003F807380618061806180618073003F79
:103F6000001E000000000000000000000000000033
:103F7000006E007F807380618061806180618073EA
:103F8000007F006E006000600060006000000000C4
:103F900000000000801D803F80738061806180612F
:103FA00080618073803F801D8001800180018001DD
:103FB000000000000000000000000067803F0039A2
:103FC00000300030003000300030003000300000A1
:103FD0000000000000000000000000000000001EC3
:103FE000803F80610060007F803F80018061007FB2
:103FF000001E000000000000000000000008001883
:104000000018007F007F0018001800180018001822
:104010000018801F800F000000000000000000005A
:10402000000000000000806180618061806180612B
:10403000806180618063807F803D0000000000001F
:1040400000000000000000000000C06080318031EE
:104050008031001B001B001B000E000E000600003C
:10406000000000000000000000000000000080DDF3
:1040700080DD80DD00550055005500770077002277
:10408000002200000000000000000000000000000E
:104090000000806100330033001E000C000C001E85
:1040A00000330033806100000000000000000000C9
:1040B0000000000080618061803100330033001B0C
:1040C000001B001B000E000E000E001C007C007088
:1040D00000000000000000000000C07FC07F8001E1
:1040E00000030006000C00180030C07FC07F0000F5
:1040F000000000008003800700060006000600069E
:104100000006000E001C001C000E00060006000643
:104110000006000680078003000600060006000671
:10412000000600060006000600060006000600065F
:104130000006000600060006000600060038003CE7
:10414000000C000C000C000C000C000E0007000717
:10415000000E000C000C000C000C000C003C0038A1
:104160000000000000000000000000000000803897
:10417000807F0047000000000000000000000000F9
:10418000000000000F0180961180FFB103012C2D6B
:10419000B203012C2DB306012C2D012C2DB40107E7
:1041A000C003A20284C101C5C2020A00C3028A2A56
:1041B000C4028AEEC5010E20003601C03A01050294
:1041C0002A040000007F2B040000007F04E010029E
:1041D0001C07123732292D29252B3900010310E144
:1041E00010031D07062E2C292D2E2E373F0000020E
:1041F0001013800A29806400FFFFFFFFFFFFFFFF0D
:10420000FFFFFFFFFFFFFFFFFFFFFFFFFFFFFFFFBE
:10421000FFFFFFFFFFFFFFFFFFFFFFFFFFFFFFFFAE
:10422000FFFFFFFFFFFFFFFFFFFFFFFFFFFFFFFF9E
:10423000FFFFFFFFFFFFFFFFFFFFFFFFFFFFFFFF8E
:10498000FFFFFFFFFFFFFFFFFFFFFFFFFFFFACFD8C
:10499000E4E8E4E8E4E8E4E8E4E8E4E8E4E8E4E8B7
:1049A000BF65FFFFFFFFFFFFFFFFFFFFFFFFFFFFF1
:1049B000FFFFFFFFFFFF20B3E4E8E4E8E4E8E4E8FA
:1049C000E4E8E4E83603FFFFFFFFFFFFFFFFFFFF20
:1049D000FFFFFFFF87DCE4E8E4E8E4E8E4E8E4E87C
:1049E000E4E8D201FFDFFFFFFFFFFFFFFFFFFFFF54
:1049F000FFFFFFFFFFFFFFFFFFFFFFFFFFFFFFFFC7
:104A0000FFFFFFFFFFFFFFFFFFFFFFFFFFFF20B3E1
:104A1000E4E8E4E8E4E8E4E8E4E8E4E8E4E8E4E836
:104A2000D201FFDFFFFFFFFFFFFFFFFFFFFFFFFFE1
:104A3000FFFFFFFFFFFF20B3E4E8E4E8E4E8E4E879
:104A4000E4E8E4E83603FFFFFFFFFFFFFFFFFFFF9F
:104A5000FFFFFFFF87DCE4E8E4E8E4E8E4E8E4E8FB
:104A6000E4E8D201FFDFFFFFFFFFFFFFFFFFFFFFD3
:104A7000FFFFFFFFFFFFFFFFFFFFFFFFFFFFFFFF46
:104A8000FFFFFFFFFFFFFFFFFFFFFFFFD2FE00382A
:104A9000E4E8E4E8E4E8E4E8E4E8E4E8E4E8E4E8B6
:104AA0000700DF96FFFFFFFFFFFFFFFFFFFFFFFF96
:104AB000FFFFFFFFFFFF20B3E4E8E4E8E4E8E4E8F9
:104AC000E4E8E4E83603FFFFFFFFFFFFFFFFFFFF1F
:104AD000FFFFFFFF87DCE4E8E4E8E4E8E4E8E4E87B
:104AE000E4E8D201FFDFFFFFFFFFFFFFFFFFFFFF53
:104AF000FFFFFFFFFFFFFFFFFFFFFFFFFFFFFFFFC6
:104B0000FFFFFFFFFFFFFFFFFFFFFFFF87DCE4E882
:104B1000E4E8E4E8E4E8E4E8E4E8E4E8E4E8E4E835
:104B2000E4E89B3CFFFFFFFFFFFFFFFFFFFFFFFFEE
:104B3000FFFFFFFFFFFF20B3E4E8E4E8E4E8E4E878
:104B4000E4E8E4E83603FFFFFFFFFFFFFFFFFFFF9E
:104B5000FFFFFFFF87DCE4E8E4E8E4E8E4E8E4E8FA
:104B6000E4E8D201FFDFFFFFFFFFFFFFFFFFFFFFD2
:104B7000FFFFFFFFFFFFFFFFFFFFFFFFFFFFFFFF45
:104B8000FFFFFFFFFFFFFFFFFFFFFBFFC091E4E818
:104B9000E4E8E4E8E4E8E4E8E4E8E4E8E4E8E4E8B5
:104BA000E4E8D201FFDFFFFFFFFFFFFFFFFFFFFF92
:104BB000FFFFFFFFFFFF20B3E4E8E4E8E4E8E4E8F8
:104BC000E4E8E4E83603FFFFFFFFFFFFFFFFFFFF1E
:104BD000FFFFFFFF87DCE4E8E4E8E4E8E4E8E4E87A
:104BE000E4E8D201FFDFFFFFFFFFFFFFFFFFFFFF52
:104BF000FFFFFFFFFFFFFFFFFFFFFFFFFFFFFFFFC5
:104C0000FFFFFFFFFFFFFFFFFFFFD2FE0038E4E8DA
:104C1000E4E8E4E8E4E8E4E8E4E8E4E8E4E8E4E834
:104C2000E4E80700DF96FFFFFFFFFFFFFFFFFFFF46
:104C3000FFFFFFFFFFFF20B3E4E8E4E8E4E8E4E877
:104C4000E4E8E4E83603FFFFFFFFFFFFFFFFFFFF9D
:104C5000FFFFFFFF87DCE4E8E4E8E4E8E4E8E4E8F9
:104C6000E4E8D201FFDFFFFFFFFFFFFFFFFFFFFFD1
:104C7000FFFFFFFFFFFFFFFFFFFFFFFFFFFFFFFF44
:104C8000FFFFFFFFFFFFFFFFFFFF87DCE4E8E4E833
:104C9000E4E8E4E8E4E82C030060E4E8E4E8E4E8BD
:104CA000E4E8E4E83603FFFFFFFFFFFFFFFFFFFF3D
:104CB000FFFFFFFFFFFF20B3E4E8E4E8E4E8E4E8F7
:104CC000E4E8E4E83603FFFFFFFFFFFFFFFFFFFF1D
:104CD000FFFFFFFF87DCE4E8E4E8E4E8E4E8E4E879
:104CE000E4E8D201FFDFFFFFFFFFFFFFFFFFFFFF51
:104CF000FFFFFFFFFFFFFFFFFFFFFFFFFFFFFFFFC4
:104D0000FFFFFFFFFFFFFFFFFBFFC091E4E8E4E8C8
:104D1000E4E8E4E8E4E8BF6520B3E4E8E4E8E4E8D4
:104D2000E4E8E4E80C00FFB7FFFFFFFFFFFFFFFF31
:104D3000FFFFFFFFFFFF20B3E4E8E4E8E4E8E4E876
:104D4000E4E8E4E83603FFFFFFFFFFFFFFFFFFFF9C
:104D5000FFFFFFFF87DCE4E8E4E8E4E8E4E8E4E8F8
:104D6000E4E8D201FFDFFFFFFFFFFFFFFFFFFFFFD0
:104D7000FFFFFFFFFFFFFFFFFFFFFFFFFFFFFFFF43
:104D8000FFFFFFFFFFFFFFFFACFDE4E8E4E8E4E81E
:104D9000E4E8E4E80C00FFB7ACFDE4E8E4E8E4E8AC
:104DA000E4E8E4E8E4E8BF65FFFFFFFFFFFFFFFF83
:104DB000FFFFFFFFFFFF20B3E4E8E4E8E4E8E4E8F6
:104DC000E4E8E4E83603FFFFFFFFFFFFFFFFFFFF1C
:104DD000FFFFFFFF87DCE4E8E4E8E4E8E4E8E4E878
:104DE000E4E8D201FFDFFFFFFFFFFFFFFFFFFFFF50
:104DF000FFFFFFFFFFFFFFFFFFFFFFFFFFFFFFFFC3
:104E0000FFFFFFFFFFFFFFFF20B3E4E8E4E8E4E873
:104E1000E4E8E4E8D201FFDFF6FF0060E4E8E4E85C
:104E2000E4E8E4E8E4E83603FFFFFFFFFFFFFFFFED
:104E3000FFFFFFFFFFFF20B3E4E8E4E8E4E8E4E875
:104E4000E4E8E4E83603FFFFFFFFFFFFFFFFFFFF9B
:104E5000FFFFFFFF87DCE4E8E4E8E4E8E4E8E4E8F7
:104E6000E4E8D201FFDFFFFFFFFFFFFFFFFFFFFFCF
:104E7000FFFFFFFFFFFFFFFFFFFFFFFFFFFFFFFF42
:104E8000FFFFFFFFFFFFF6FF0060E4E8E4E8E4E86F
:104E9000E4E8E4E89B3CFFFFFFFF20B3E4E8E4E83C
:104EA000E4E8E4E8E4E80700DF96FFFFFFFFFFFF28
:104EB000FFFFFFFFFFFF20B3E4E8E4E8E4E8E4E8F5
:104EC000E4E8E4E83603FFFFFFFFFFFFFFFFFFFF1B
:104ED000FFFFFFFF87DCE4E8E4E8E4E8E4E8E4E877
:104EE000E4E8D201FFDFFFFFFFFFFFFFFFFFFFFF4F
:104EF000FFFFFFFFFFFFFFFFFFFFFFFFFFFFFFFFC2
:104F0000FFFFFFFFFFFFACFDE4E8E4E8E4E8E4E8CE
:104F1000E4E80700DF96FFFFFFFFACFDE4E8E4E80C
:104F2000E4E8E4E8E4E8E4E89B3CFFFFFFFFFFFF80
:104F3000FFFFFFFFFFFF20B3E4E8E4E8E4E8E4E874
:104F4000E4E8E4E83603FFFFFFFFFFFFFFFFFFFF9A
:104F5000FFFFFFFF87DCE4E8E4E8E4E8E4E8E4E8F6
:104F6000E4E8D201FFDFFFFFFFFFFFFFFFFFFFFFCE
:104F7000FFFFFFFFFFFFFFFFFFFFFFFFFFFFFFFF41
:104F8000FFFFFFFFFFFF20B3E4E8E4E8E4E8E4E824
:104F9000E4E8D201FFDFFFFFFFFFF6FF0060E4E877
:104FA000E4E8E4E8E4E8E4E8D201FFDFFFFFFFFF24
:104FB000FFFFFFFFFFFF20B3E4E8E4E8E4E8E4E8F4
:104FC000E4E8E4E83603FFFFFFFFFFFFFFFFFFFF1A
:104FD000FFFFFFFF87DCE4E8E4E8E4E8E4E8E4E876
:104FE000E4E8D201FFDFFFFFFFFFFFFFFFFFFFFF4E
:104FF000FFFFFFFFFFFFFFFFFFFFFFFFFFFFFFFFC1
:10500000FFFFFFFFF6FF0060E4E8E4E8E4E8E4E81F
:10501000E4E83603FFFFFFFFFFFFFFFF20B3E4E8F4
:10502000E4E8E4E8E4E8E4E80700DF96FFFFFFFFD8
:10503000FFFFFFFFFFFF20B3E4E8E4E8E4E8E4E873
:10504000E4E8E4E83603FFFFFFFFFFFFFFFFFFFF99
:10505000FFFFFFFF87DCE4E8E4E8E4E8E4E8E4E8F5
:10506000E4E8D201FFDFFFFFFFFFFFFFFFFFFFFFCD
:10507000FFFFFFFFFFFFFFFFFFFFFFFFFFFFFFFF40
:10508000FFFFFFFF87DCE4E8E4E8E4E8E4E8E4E8C5
:10509000E4E8E4E8E4E8E4E8E4E8E4E8E4E8E4E8B0
:1050A000E4E8E4E8E4E8E4E8E4E89B3CFFFFFFFF31
:1050B000FFFFFFFFFFFF20B3E4E8E4E8E4E8E4E8F3
:1050C000E4E8E4E83603FFFFFFFFFFFFFFFFFFFF19
:1050D000FFFFFFFF87DCE4E8E4E8E4E8E4E8E4E875
:1050E000E4E83603FFFFFFFFFFFFFFFFFFFFFFFFC7
:1050F000FFFFFFFFFFFFFFFFFFFFFFFFFFFFFFFFC0
:10510000FFFFFBFFC091E4E8E4E8E4E8E4E8E4E85A
:10511000E4E8E4E8E4E8E4E8E4E8E4E8E4E8E4E82F
:10512000E4E8E4E8E4E8E4E8E4E80C00FFB7FFFFC3
:10513000FFFFFFFFFFFF87DCE4E8E4E8E4E8E4E8E2
:10514000E4E8E4E83603FFFFFFFFFFFFFFFFFFFF98
:10515000FFFFFFFF20B3E4E8E4E8E4E8E4E8E4E884
:10516000E4E83603FFFFFFFFFFFFFFFFFFFFFFFF46
:10517000FFFFFFFFFFFFFFFFFFFFFFFFFFFFFFFF3F
:10518000FFFFD2FE0038E4E8E4E8E4E8E4E8E4E81D
:10519000E4E8E4E8E4E8E4E8E4E8E4E8E4E8E4E8AF
:1051A000E4E8E4E8E4E8E4E8E4E8E4E8BF65FFFF15
:1051B000FFFFFFFFFFFFACFDE4E8E4E8E4E8E4E81C
:1051C000E4E8E4E8D201FFDFFFFFFFFFFFFFFFFF9E
:1051D000FFFFFBFFC091E4E8E4E8E4E8E4E8E4E88A
:1051E000E4E89B3CFFFFFFFFFFFFFFFFFFFFFFFF28
:1051F000FFFFFFFFFFFFFFFFFFFFFFFFFFFFFFFFBF
:10520000FFFF87DCE4E8E4E8E4E8E4E8E4E8E4E875
:10521000E4E8E4E8E4E8E4E8E4E8E4E8E4E8E4E82E
:10522000E4E8E4E8E4E8E4E8E4E8E4E83603FFFF7F
:10523000FFFFFFFFFFFFD2FE0038E4E8E4E8E4E808
:10524000E4E8E4E8E4E8BF65FFFFFFFFFFFFFFFFDE
:10525000FFFFACFDE4E8E4E8E4E8E4E8E4E8E4E8DF
:10526000E4E8BF65FFFFFFFFFFFFFFFFFFFFFFFF5A
:10527000FFFFFFFFFFFFFFFFFFFFFFFFFFFFFFFF3E
:10528000FBFFC091E4E8E4E8E4E8E4E8E4E8E4E80B
:10529000E4E8E4E8E4E8E4E8E4E8E4E8E4E8E4E8AE
:1052A000E4E8E4E8E4E8E4E8E4E8E4E80C00FFB774
:1052B000FFFFFFFFFFFFFBFFC091E4E8E4E8E4E845
:1052C000E4E8E4E8E4E807009664FFDFFFFFFBFFA3
:1052D000ACDD0038E4E8E4E8E4E8E4E8E4E8E4E845
:1052E000D201FFDFFFFFFFFFFFFFFFFFFFFFFFFF19
:1052F000FFFFFFFFFFFFFFFFFFFFFFFFFFFFFFFFBE
:10530000ACFDE4E8E4E8E4E8E4E8E4E8E4E8E4E860
:10531000E4E8E4E8E4E8E4E8E4E8E4E8E4E8E4E82D
:10532000E4E8E4E8E4E8E4E8E4E8E4E8E4E89B3C12
:10533000FFFFFFFFFFFFFFFFACFDE4E8E4E8E4E868
:10534000E4E8E4E8E4E8E4E8E4E8E4E8E4E8E4E8FD
:10535000E4E8E4E8E4E8E4E8E4E8E4E8E4E8E4E8ED
:105360009B3CFFFFFFFFFFFFFFFFFFFFFFFFFFFF74
:10537000FFFFFFFFFFFFFFFFFFFFFFFFFFFFFFFF3D
:1053800020B3E4E8E4E8E4E8E4E8E4E8E4E89B3CAB
:10539000FFFFFFFFFFFFFFFFFFFFFFFFFFFFFBFF21
:1053A000C091E4E8E4E8E4E8E4E8E4E8E4E8D20111
:1053B000FFDFFFFFFFFFFFFFFFFF20B3E4E8E4E8AC
:1053C000E4E8E4E8E4E8E4E8E4E8E4E8E4E8E4E87D
:1053D000E4E8E4E8E4E8E4E8E4E8E4E8E4E8360300
:1053E000FFFFFFFFFFFFFFFFFFFFFFFFFFFFFFFFCD
:1053F000FFFFFFFFFFFFFFFFFFFFFFFFFFFFF6FFC6
:105400000060E4E8E4E8E4E8E4E8E4E8E4E8BF6550
:10541000FFFFFFFFFFFFFFFFFFFFFFFFFFFFFFFF9C
:1054200087DCE4E8E4E8E4E8E4E8E4E8E4E807004A
:10543000DF96FFFFFFFFFFFFFFFFFBFFC091E4E8E8
:10544000E4E8E4E8E4E8E4E8E4E8E4E8E4E8E4E8FC
:10545000E4E8E4E8E4E8E4E8E4E8E4E8D201FFDFD3
:10546000FFFFFFFFFFFFFFFFFFFFFFFFFFFFFFFF4C
:10547000FFFFFFFFFFFFFFFFFFFFFFFFFFFFACFD91
:10548000E4E8E4E8E4E8E4E8E4E8E4E80C00FFB792
:10549000FFFFFFFFFFFFFFFFFFFFFFFFFFFFFFFF1C
:1054A000F6FF0060E4E8E4E8E4E8E4E8E4E8E4E8DF
:1054B0009B3CFFFFFFFFFFFFFFFFFFFFFFFF8CDCB9
:1054C0000038E4E8E4E8E4E8E4E8E4E8E4E8E4E810
:1054D000E4E8E4E8E4E8E4E8E4E8363BFFDFFFFF83
:1054E000FFFFFFFFFFFFFFFFFFFFFFFFFFFFFFFFCC
:1054F000FFFFFFFFFFFFFFFFFFFFFFFFFFFF20B3E7
:10550000E4E8E4E8E4E8E4E8E4E8E4E83603FFFF9C
:10551000FFFFFFFFFFFFFFFFFFFFFFFFFFFFFFFF9B
:10552000FFFF20B3E4E8E4E8E4E8E4E8E4E8E4E8E2
:10553000D201FFDFFFFFFFFFFFFFFFFFFFFFFFFFC6
:10554000FBFFB2DD2C93C739C039E4E8E4E8E4E8B6
:10555000E4E8C701CC399694FFDFFFFFFFFFFFFFB0
:10556000FFFFFFFFFFFFFFFFFFFFFFFFFFFFFFFF4B
:10557000FFFFFFFFFFFFFFFFFFFFFFFFFFFFFFFF3B
:10558000FFFFFFFFFFFFFFFFFFFFFFFFFFFFFFFF2B
:10559000FFFFFFFFFFFFFFFFFFFFFFFFFFFFFFFF1B
:1061F000FFFFFFFFFFFFFFFF0000000000000000A7
:10620000010203040607080900000000010203045C
:10621000040000080000000000000002000100006F
:10622000100000004462000800000020440000004C
:10623000280100088862000844000020BC08000013
:106240004401000800010000070A0000BC2C0008FF
:106250000B1200002834000800020100A00080009A
:10626000408020000000000000000000000000004E
:10627000000000000000000001000000100000000D
:08628000000000000024F400FE
:04000005080000ED02
:00000001FF
