:020000040800F2
:10000000C807002089010008F30D00081B0D000837
:10001000F10D00088F020008F7130008000000002F
:10002000000000000000000000000000891300082C
:100030009102000800000000F50D00088B13000875
:10004000A3010008A3010008A3010008A301000800
:10005000A3010008A3010008A3010008A3010008F0
:10006000A3010008A3010008A3010008A3010008E0
:10007000A3010008A3010008A3010008A3010008D0
:10008000A3010008A3010008A3010008A3010008C0
:10009000A3010008A3010008A3010008A3010008B0
:1000A000A3010008A3010008A3010008A3010008A0
:1000B000A3010008A3010008A3010008A301000890
:1000C000A3010008A3010008A3010008A301000880
:1000D000A3010008A3010008A3010008A301000870
:1000E000A3010008A3010008A301000800F002F822
:1000F00000F03AF80AA090E8000C82448344AAF188
:100100000107DA4501D100F02FF8AFF2090EBAE885
:100110000F0013F0010F18BFFB1A43F0010318473B
:10012000CC5E0000EC5E0000103A24BF78C878C1B5
:10013000FAD8520724BF30C830C144BF04680C60ED
:10014000704700000023002400250026103A28BF35
:1001500078C1FBD8520728BF30C148BF0B60704739
:100160001FB51FBD10B510BD00F058F81146FFF7C0
:10017000F7FF01F0F5FA00F076F803B4FFF7F2FFAD
:1001800003BC00F07DF8000009488047094800479B
:10019000FEE7FEE7FEE7FEE7FEE7FEE7FEE7FEE737
:1001A000FEE7FEE704480549054A064B7047000094
:1001B000F5130008ED000008C8010020C807002062
:1001C000C8030020C80300204FF0000200B513460A
:1001D00094469646203922BFA0E80C50A0E80C5067
:1001E000B1F12001BFF4F7AF090728BFA0E80C5018
:1001F00048BF0CC05DF804EB890028BF40F8042B11
:1002000008BF704748BF20F8022B11F0804F18BF7D
:1002100000F8012B7047704770477047754600F033
:100220002BF8AE4605006946534620F00700854688
:1002300018B020B5FFF7B6FFBDE820404FF000062C
:100240004FF000074FF000084FF0000B21F00701BE
:10025000AC46ACE8C009ACE8C009ACE8C009ACE801
:10026000C0098D46704710B50446AFF300802046A4
:10027000BDE81040FFF781BF0048704768010020CB
:1002800001491820ABBEFEE7260002007047FEE7DA
:10029000704772B600BFFEE770B5044600F0FEF886
:1002A0000546601C02D004480078044400F0F6F8CB
:1002B000401BA042FAD370BD180000202DE9F84F72
:1002C000DFF8A491002409F1040A0AF1040B234683
:1002D0004FF00F080BF1040EBEE00127A7403A4093
:1002E000BA4272D1DFF884C14D68A5EB0C066545B2
:1002F0002BD00DDC032D34D005DC35B3012D19D006
:10030000022D2FD11BE0112D16D0122D2AD119E06C
:10031000B6F5881F19D006DCB6F5803F15D0B6F5C6
:10032000801F1FD111E0B6F5001F0ED0B6F5041FD7
:1003300018D10AE0CB6815E0CB681B1D12E0CB6832
:1003400008330FE0CB680C330CE08B682BB1012B2A
:100350004FF0080303D0476104E0042302E0076183
:1003600000E00023FF2A01D8064601E000F1040660
:100370004FEA840501D9A5F12005376808FA05FC84
:1003800027EA0C0703FA05F547EA050737604D68C9
:10039000ED0060D5364DAE6946F00106AE61AD693F
:1003A00024F0030605F001050095324D7719BE686B
:1003B000A5072D0F08FA05FC26EA0C06DFF8B8C0E1
:1003C000604503D14FF0000C17E044E0DFF8ACC00B
:1003D000604502D14FF0010C0FE0DFF8A4C060458A
:1003E00002D14FF0020C08E0DFF898C0604502D15E
:1003F0004FF0030C01E04FF0040C0CFA05FC4CEA42
:10040000060CC7F808C04D68D9F80060ED034D46EA
:1004100001D5164300E096432E604D68DAF800607F
:10042000AD03554601D5164300E096432E604D6856
:10043000DBF80060ED025D4601D5164300E096430F
:100440002E604D68DEF80060AD02754601D516439A
:1004500000E096432E60641C0A6832FA04F57FF4CB
:100460003CAFBDE8F88F000000040140000011100F
:10047000001002400000014000080140000C014053
:1004800000100140001401408068084000D00120A5
:1004900070470AB1016170470904FBE701488068B1
:1004A000704700001800002002488168027811445B
:1004B0008160704718000020074810B5016841F0BE
:1004C00010010160032000F067F80F2000F006F82B
:1004D00000F024F8002010BD0020024070B50D4D42
:1004E00004464FF47A712878B1FBF0F00A490968A4
:1004F000B1FBF0F000F0FDFB48B9102C07D2002250
:100500002146501E00F028F800206C6070BD0120CC
:1005100070BD000018000020240000200C4808B521
:10052000816941F001018161816901F0010100915E
:10053000C16941F08051C161C069064900F0805035
:100540000090486820F0E06040F08060486008BD9E
:100550000010024000000140F0B40E4B1B68C3F3D2
:100560000223C3F10704042C00D904241D1D072D08
:1005700001D2002300E0DB1E012606FA04F56D1E01
:100580000D409D409E40761E164045EA0601F0BC97
:1005900000F032BF0CED00E0064A00F007011068E1
:1005A0004FF6FF03184040EA01200349084310605A
:1005B000704700000CED00E00000FA052DE9F0475F
:1005C0000D46040067D0DFF81881D8F8000000F06D
:1005D0000700A8420CD2D8F8001021F007012943E7
:1005E000C8F80010D8F8000000F00700A84252D167
:1005F00020683C4E810712D5400703D5706840F44F
:10060000E06070602078000703D5706840F46050A7
:1006100070607068A16820F0F00008437060207876
:10062000C00727D06068012810D03168022810D098
:10063000890700292FDA716821F0030101437160F5
:10064000FFF72CFF074641F288390CE03168890337
:10065000EFE78901EDE7FFF721FFC11B494502D90B
:100660000320BDE8F0877068616800F00C00B0EB13
:10067000810FF0D1D8F80010404601F00701A942DF
:100680000BD9016821F0070129430160006800F0DF
:100690000700A84201D00120E3E72078400705D5F4
:1006A0007068E16820F4E06008437060207800071B
:1006B00006D57068216920F4605040EAC10070607E
:1006C00000F018F87168084AC1F30311515CC84082
:1006D0000649086006480068FFF700FF0020C0E7F1
:1006E0000020024000100240DB5F000824000020D0
:1006F0001C00002012A085B00FC88DE80F0014A0C8
:10070000144B006804905968134801F00C02042A45
:1007100010D0082A0ED1C1F38342C9031DF802008C
:100720000AD5596804AAC1F34041515C0A4A5043B2
:10073000B0FBF1F005B0704708494843FAE7000004
:1007400002030405060708090A0B0C0D0E0F101012
:10075000010200000010024000127A0000093D0072
:100760002DE9F84F04006FD02078BE4DC00747D068
:100770006868C0F38100012807D06868C0F3810071
:10078000022809D16868C00306D52868800337D5D8
:1007900060680028E7D033E06068B0F5803F0BD098
:1007A00010B1B0F5A02F11D0286820F48030286057
:1007B000286820F4802002E0286840F48030286017
:1007C000606888B1FFF76AFE064609E0286840F4D1
:1007D00080202860F0E7FFF761FE801B642873D853
:1007E00028688003F7D50BE0FFF758FE064604E0C3
:1007F000FFF754FE801B6428F1D828688003F7D4E3
:100800002078DFF8648280074FF0010A4FF000097A
:1008100039D5686810F00C0F07D06868C0F3810004
:10082000022809D16868C00306D42868800714D557
:100830002069012808D110E02069B0B1C8F800A0F3
:10084000FFF72CFE064605E007E1FFF727FE801BB9
:100850000228C4D828688007F7D52868616920F085
:10086000F80040EAC10028600DE0C8F80090FFF7EA
:1008700015FE064604E0FFF711FE801B022823D870
:1008800028688007F7D4207800072CD57748A1691D
:10089000D9B1C0F800A0FFF701FE064604E0FFF75B
:1008A000FDFD801B02280FD8686A8007F7D57048C5
:1008B0004FF4FA510068B0FBF1F0009000BF0098CF
:1008C000411E0091FAD20EE07CE0C0F80090FFF7E4
:1008D000E5FD064604E0FFF7E1FD801B022871D824
:1008E000686A8007F7D4207840075BD5E86900275D
:1008F000C00008D4E86940F08050E861E869012749
:1009000000F0805000905B480168C90511D401686F
:10091000834641F480710160FFF7C0FD064604E0A4
:10092000FFF7BCFD801B64284CD8DBF80000C00535
:10093000F6D5E06801280AD008B1052813D0286A46
:1009400020F001002862286A20F0040002E0286AF2
:1009500040F001002862E06841F2883B88B1FFF76F
:100960009DFD064609E0286A40F004002862EEE793
:10097000FFF794FD811B59455BD8286A8007F7D59E
:100980000BE0FFF78BFD064604E0FFF787FD811BB8
:1009900059454ED8286A8007F7D41FB1E86920F07E
:1009A0008050E861E069A8B36968C1F38101022958
:1009B00046D00228484606D0C8F86000FFF76EFD12
:1009C000044639E035E04746C8F86000FFF766FDA9
:1009D000064604E0FFF762FD801B022829D828683C
:1009E0008001F7D4206AB0F5803F05D16868A1681E
:1009F00020F4003008436860D4E9080108436968BE
:100A000021F4741108436860C7F860A0FFF746FD41
:100A1000044605E023E0FFF741FD001B022808D84B
:100A200028688001F7D51AE0FFF738FD001B02287F
:100A300002D90320BDE8F88F28688001F4D40EE0C5
:100A40000128F7D06868226A00F48031914204D10D
:100A5000616A00F47010884201D00120EAE70020AA
:100A6000E8E70000001002400000424280044242D9
:100A7000240000200070004070B5040009D0606AB6
:100A8000002540B125616561A56294F8510040B12F
:100A90000CE0012070BD6068B0F5827FF4D0E561A4
:100AA000F2E784F85050204600F040F8022084F825
:100AB00051002068016821F040010160A08821896F
:100AC00000F4827001F404410843A18901F400613B
:100AD0000843217C01F002010843217D01F001015E
:100AE0000843218B01F400710843217F01F0380194
:100AF000084394F8201001F080010843218D01F48F
:100B00000051084321680860A069042101EA1040EF
:100B1000216848602068C16921F40061C161656590
:100B2000012084F85100002070BD000000B585B0A0
:100B30000021009101910291039100680F498842C0
:100B40001AD10F48816941F480518161816901F4B2
:100B500080510491816941F0040181618069694695
:100B600000F004000490A0200090022001900320D7
:100B700003900448FFF7A2FB05B000BD0030014020
:100B800000100240000801402DE9F84F044690F89B
:100B9000500000261D469046894601280ED04FF091
:100BA000010B84F850B0FFF779FC074694F8510028
:100BB0004146B246012804D0022694E00220BDE856
:100BC000F88FB9F1000F74D0B8F1000F71D0032085
:100BD00084F85100C4F854A0C4F83090A4F83480CC
:100BE000A4F83680C4F838A0A4F83CA0A4F83EA02D
:100BF000C4F844A0C4F840A0A068B0F5004F09D1E3
:100C00002068026822F0400202602068026842F414
:100C10008042026020680268520603D4026842F0F3
:100C200040020260E068B0F5006F606803D028B34E
:100C3000012923D03FE008B101291BD1206B216895
:100C40000088C86006E020688168890709D5216BA3
:100C50000988C160206B801C2063E08E401EE08606
:100C600008E0FFF71BFCC01BA84202D3681C01D0A0
:100C700030E075B3E08E0028E5D11FE0206B2168DD
:100C80000078087306E020688168890709D5216B20
:100C900009780173206B401C2063E08E401EE086C3
:100CA00009E0FFF7FBFBC01BA84203D3681C02D07E
:100CB00010E017E06DB1E08E0028E4D13A462946F5
:100CC000204600F098F808B120206065A06818B1AF
:100CD00006E0FFE7032606E02068C1688068009010
:100CE000606D00B1012684F851B084F850A0304600
:100CF00065E710B5401EB0F1807F01D3012010BD23
:100D00004FF0E02460610F21601700F075FB0020B8
:100D1000A06107202061002010BDFEE700B585B06E
:100D20000020019002900390049000BF1D4880694C
:100D300040F010001B4988610846806900F01000EF
:100D4000009000BF00BF00BF0846806940F020004F
:100D500088610846806900F02000009000BF00BF55
:100D600000BF0846806940F0040088610846806939
:100D700000F00400009000BF00BF002240F20371A9
:100D80000948FFF786FB40F20370019001200290B2
:100D9000002003900220049001A90348FFF78EFA77
:100DA00005B000BD001002400008014010B50E481B
:100DB0000E4908604FF48270486000210B48816042
:100DC000C160016141614FF4007181612021C16105
:100DD00000210162416281620A21C162FFF74CFE7B
:100DE00008B1FFF756FA10BD00300140280000207E
:100DF000FEE7FEE7704738B50B4600920446002236
:100E0000802100F009F8002804D0606D40F0200037
:100E10006065032038BD00002DE9F8431E46914669
:100E200088460446089DFFF739FB401B351AFFF73B
:100E300035FB074625480068C0F3CB30684338E0EF
:100E4000701C37D0FFF72AFBC01BA84203D215B194
:100E5000009860B32CE02068416821F0E001416017
:100E60006068B0F5827F0BD1A068B0F5004F02D06A
:100E7000B0F5806F04D12068016821F04001016065
:100E8000A06AB0F5005F09D12068016821F4005123
:100E900001602068016841F400510160012084F87C
:100EA0005100002084F850000320BDE8F88300259D
:100EB000401E00902068816838EA010004D00020BC
:100EC0004845BDD10020F0E70120F9E724000020CB
:100ED0002DE9F05F05461A480C469846B0F9061011
:100EE00091468D422ADAB0F90400844226DA05EBF5
:100EF00009077F1E8F4221DA04EB0806761E864220
:100F00001CDADFF840B04FF4007A00225146584610
:100F1000FFF7BFFAF3B2FAB2E1B2E8B200F09AF921
:100F20004FEA490101FB08F10A9800F017FA51460F
:100F30005846BDE8F05F0122FFF7ABBABDE8F09F6D
:100F40000C000020001001402DE9F05F0D46044622
:100F50001746581BA2EB040100D54042002900DAD5
:100F60004942884201DD012000E000205FEA000ADA
:100F700004D020462C461F4605461346BC4205DDDC
:100F800020463C46074628461D460346381B0FFAB6
:100F900080F8581B00D540420FFA80FB08EBD87050
:100FA00046109D4201DA012001E04FF0FF308146FA
:100FB00017E0BAF1000F02D0A1B2A8B201E0A9B2C5
:100FC000A0B20A9A00F012F8A6EB0B0006B2002EAF
:100FD00005DA05EB090005B206EB080006B2641C51
:100FE00024B2BC42E5DDBDE8F09F00002DE9F843E6
:100FF000054616480C461646B0F906108D4222DA10
:10100000B0F9040084421EDADFF844804FF4007720
:10101000002239464046FFF73CFA601CC3B2681C08
:10102000C2B2E1B2E8B200F015F9300A8DF8000062
:101030008DF801600221684600F090F901223946DE
:101040004046FFF726FABDE8F88300000C000020B8
:10105000001001402DE9FE4F1446DDE90DA90E46B2
:101060000546984600224FF400711848DDF830B06C
:10107000FFF70FFA08F0FF071DE015497819B1F9DD
:10108000063098420BDBC8F3072083199EB2B1F9F2
:10109000041000253044884210DA202A0AD0CDF806
:1010A00000B0CDE901A943463146284600F0FEF8DC
:1010B000781985B2641C2278002ADED103B001229F
:1010C000BDE8F04F51020148FFF7E3B900100140BD
:1010D0000C0000202DE9F04110F8015B044617E0F8
:1010E000207800F027F96078A41C00F0800730F029
:1010F000800604D03146204600F030F934443FB138
:1011000014F8010BFF2801D14FF4FA70FFF7C4F86F
:101110006D1EEDB2E4D2BDE8F08100002DE9F84F7C
:101120000C4629490746DDF82880B1F906001D461E
:101130001646874245DAB1F904108C4241DABA19F1
:10114000521E824201DBC01B86B26019401E8842DB
:1011500001DB081B85B2DFF874A04FF40079002290
:1011600049465046FFF795F96019401EC3B2B819B9
:10117000401EC2B2E1B2F8B200F06CF84FEA18209B
:101180008DF8000001228DF8018011021048FFF750
:1011900080F94FF0FF370DE0344607E03B4602226E
:1011A00069460C48FFF7F0FC641EA4B2002CF5D190
:1011B0006D1EADB2002DEFD1012249465046FFF71A
:1011C00068F9BDE8F88F00000C0000200010014015
:1011D000000801402800002008B5009004488188DC
:1011E000C0888BB282B200210846FFF797FF08BD86
:1011F0000C00002070B5144D4FF4007400222146FD
:101200002846FFF746F9114E002221463046FFF7E7
:1012100040F91420FFF740F8012221463046FFF73D
:1012200038F90B48FFF756FF09483B30FFF752FFEC
:1012300007484830FFF74EFF21462846BDE870407A
:101240000122FFF726B9000000100140000801400C
:10125000685F0008F8B504461D4616460F462A206A
:1012600000F068F80020009020460F4C6178084498
:101270008DF8010070188DF803000421684600F015
:101280006DF82B2000F056F8A07839188DF8011071
:1012900028448DF803000421684600F05FF82C20F4
:1012A00000F048F8F8BD00000C0000200FB42DE954
:1012B000FC5F4A1EC3F307273A44D4B2DAB2431E96
:1012C00001921A44D2B2C9B2C0B22346FFF7C2FF9C
:1012D000002528E00E981099203800FB07500024C4
:1012E00031F8106011984FEA102B00F0FF0A1298A5
:1012F0004FEA102900F0FF0811E006FA04F000049C
:1013000004D58DF800B08DF801A003E08DF80090B1
:101310008DF801800221684600F020F8641C0198D5
:10132000A042EAD86D1CAF42D4D8BDE8FC1F5DF8DE
:1013300014FB000001B500224FF480710548FFF74F
:10134000A8F84FF0FF33012269460348FFF71CFC61
:1013500008BD0000000801402800002070B50C46C0
:101360000546012211020648FFF793F8A2B229466A
:10137000BDE870404FF0FF330248FFF705BC0000A6
:1013800000080140280000207047FFF78DB800B525
:101390008FB0282105A8FEF717FF14216846FEF735
:1013A00013FF012005900004069000200790012003
:1013B000099002200C90C1030D914FF4E0110E91A1
:1013C00005A8FFF7CDF908B1FEF763FF0F200090E5
:1013D00002200190002002904FF4806003900020D2
:1013E000049002216846FFF7E9F808B1FEF751FFC3
:1013F0000FB000BD7047FEE70907090E002804DBA7
:1014000000F1E02080F80014704700F00F0000F1B8
:10141000E02080F8141D704770B5134C0121204660
:10142000FFF732F8054602212046FFF72DF8012D7F
:1014300003D001280CD0002070BD01212046FFF709
:1014400023F80028F9D10A20FEF726FF012070BDFD
:1014500002212046FFF718F80028F9D10A20FEF7EC
:101460001BFF022070BD0000000801402DE9FE4F67
:10147000BA4B05460420187000200122C0EBC001C1
:1014800001EB41012944401CCA740B28F6DB4FF0E4
:10149000FF34FFF7C1FF012802D0022826D04AE01E
:1014A000AE4E3078C0EBC00101EB4101294421442C
:1014B00091F82A1001293ED0082801D9082030705F
:1014C0000A20FEF7E9FE30784FF61F01401CC0B23B
:1014D00030706FF00602009102EBC0004FF6FF7112
:1014E0000F2301EAC40180B2072221E09B4E30782D
:1014F000C0EBC00101EB41012944214411F8151C46
:10150000012918D008B9012030700A20FEF7C4FE66
:1015100030784FF61F01401EC0B230700091092292
:101520004FF6FF7102EBC0000F2301EAC4011A4617
:10153000FFF7F4FD641E894E3078C0EBC00000EB6D
:101540004000284420444178012971D0807D012841
:101550006ED03220FEF7A0FE4FF01F08E70007F123
:101560000800CDF8008032784FF0010A814681B240
:101570000AEBC20007231A46FFF7D0FDCDF8008022
:101580001FFA89F132784FF0090909EBC2000723ED
:101590001A46FFF7C3FD07F11000CDF8008032783E
:1015A000834681B20AEBC20007231A46FFF7B6FD55
:1015B000CDF800803278072309EBC2001FFA8BF1C7
:1015C0001A46FFF7ABFD4FF61F084FF6FF70CDF838
:1015D000008000EAC401327807230AEBC2008B4680
:1015E0001A46FFF79BFDCDF800803278072309EB00
:1015F000C20059461A46FFF791FDCDF800803278B7
:10160000083F0AEBC2000723B9B21A46FFF786FD6E
:10161000CDF800803278072309EBC200B9B21A4630
:10162000FFF77CFD4FF000084FF0120924E0FFE7C0
:101630004A4A01211078C0EBC00000EB400028446A
:10164000204400F8011C1078C0EBC00000EB400003
:101650002844204401751078C0EBC00000EB400026
:10166000284401551078C0EBC00000EB400028442E
:1016700020444175BDE8FE8F4FF0000ACAEBCA0056
:1016800000EB4000411911F80900E8B308F101002E
:1016900000F0FF08B8F10B0F44D34FF000085FEAE9
:1016A00009063FD4F00008304FF61F0BCDE900B01B
:1016B00081B2072359220020FFF730FD4FF6FF705B
:1016C00000EAC60000270290C7EBC70000EB40000D
:1016D00000EB050B0BEB0601002011F8012D0BF8B8
:1016E000062008704FF61F000090072359220020A3
:1016F0000299FFF713FD1BF8060001280DD11F20EA
:1017000000900120019900E00CE000EBC7000723E6
:1017100089B280B21A46FFF701FD7F1C0B2FD3DB85
:10172000761EBFD50AF1010ABAF10B0FA6DBA9F1AB
:1017300001094FF00008B9F1000F9DDC0020C0EB5B
:10174000C00101EB4101695C012902D0401C0B285A
:10175000F5DB641C142CFFF69CAE8BE70000002028
:101760000EB5FEF7A9FEFFF712FEFFF7D7FAFFF757
:101770001DFBFFF73FFD1F20FFF72EFD00BF19489F
:1017800040231A46282100902020FFF7A1FB642067
:10179000FEF782FD4FF6FF700021CDE901101248DF
:1017A00040680090104811A2782103680A20FFF7D2
:1017B00051FC4FF4FA70FEF76FFD4FF61F00FFF774
:1017C0000BFD1F2000235922A02100901046FFF797
:1017D000BBFB05E06420FEF75FFD0748FFF746FE10
:1017E000F8E70000FC170008040000206261736C39
:1017F00069796F722E2E2E0080000020FFFFFFFF00
:10180000FFFFFFFFFFFFFFFFFFFFFFFFFFFFFFFFE8
:10181000FFFFFFFFFFFFFFFFFFFFFFFFFFFFFFFFD8
:10182000FFFFFFFFFFFFFFFFFFFFFFFFFFFFFFFFC8
:10183000FFFFFFFFFFFFFFFFFFFFFFFFFFFFFFFFB8
:101F9000FFFFACFDE4E8E4E8E4E8E4E8E4E8E4E8D2
:101FA000E4E8E4E8BF65FFFFFFFFFFFFFFFFFFFF7F
:101FB000FFFFFFFFFFFFFFFFFFFF20B3E4E8E4E8C0
:101FC000E4E8E4E8E4E8E4E83603FFFFFFFFFFFFAE
:101FD000FFFFFFFFFFFFFFFF87DCE4E8E4E8E4E842
:101FE000E4E8E4E8E4E8D201FFDFFFFFFFFFFFFFE2
:101FF000FFFFFFFFFFFFFFFFFFFFFFFFFFFFFFFFF1
:10200000FFFFFFFFFFFFFFFFFFFFFFFFFFFFFFFFE0
:10201000FFFF20B3E4E8E4E8E4E8E4E8E4E8E4E827
:10202000E4E8E4E8D201FFDFFFFFFFFFFFFFFFFF6F
:10203000FFFFFFFFFFFFFFFFFFFF20B3E4E8E4E83F
:10204000E4E8E4E8E4E8E4E83603FFFFFFFFFFFF2D
:10205000FFFFFFFFFFFFFFFF87DCE4E8E4E8E4E8C1
:10206000E4E8E4E8E4E8D201FFDFFFFFFFFFFFFF61
:10207000FFFFFFFFFFFFFFFFFFFFFFFFFFFFFFFF70
:10208000FFFFFFFFFFFFFFFFFFFFFFFFFFFFFFFF60
:10209000D2FE0038E4E8E4E8E4E8E4E8E4E8E4E870
:1020A000E4E8E4E80700DF96FFFFFFFFFFFFFFFF24
:1020B000FFFFFFFFFFFFFFFFFFFF20B3E4E8E4E8BF
:1020C000E4E8E4E8E4E8E4E83603FFFFFFFFFFFFAD
:1020D000FFFFFFFFFFFFFFFF87DCE4E8E4E8E4E841
:1020E000E4E8E4E8E4E8D201FFDFFFFFFFFFFFFFE1
:1020F000FFFFFFFFFFFFFFFFFFFFFFFFFFFFFFFFF0
:10210000FFFFFFFFFFFFFFFFFFFFFFFFFFFFFFFFDF
:1021100087DCE4E8E4E8E4E8E4E8E4E8E4E8E4E8C8
:10212000E4E8E4E8E4E89B3CFFFFFFFFFFFFFFFF7C
:10213000FFFFFFFFFFFFFFFFFFFF20B3E4E8E4E83E
:10214000E4E8E4E8E4E8E4E83603FFFFFFFFFFFF2C
:10215000FFFFFFFFFFFFFFFF87DCE4E8E4E8E4E8C0
:10216000E4E8E4E8E4E8D201FFDFFFFFFFFFFFFF60
:10217000FFFFFFFFFFFFFFFFFFFFFFFFFFFFFFFF6F
:10218000FFFFFFFFFFFFFFFFFFFFFFFFFFFFFBFF63
:10219000C091E4E8E4E8E4E8E4E8E4E8E4E8E4E85A
:1021A000E4E8E4E8E4E8D201FFDFFFFFFFFFFFFF20
:1021B000FFFFFFFFFFFFFFFFFFFF20B3E4E8E4E8BE
:1021C000E4E8E4E8E4E8E4E83603FFFFFFFFFFFFAC
:1021D000FFFFFFFFFFFFFFFF87DCE4E8E4E8E4E840
:1021E000E4E8E4E8E4E8D201FFDFFFFFFFFFFFFFE0
:1021F000FFFFFFFFFFFFFFFFFFFFFFFFFFFFFFFFEF
:10220000FFFFFFFFFFFFFFFFFFFFFFFFFFFFD2FE0C
:102210000038E4E8E4E8E4E8E4E8E4E8E4E8E4E8F2
:10222000E4E8E4E8E4E80700DF96FFFFFFFFFFFFD4
:10223000FFFFFFFFFFFFFFFFFFFF20B3E4E8E4E83D
:10224000E4E8E4E8E4E8E4E83603FFFFFFFFFFFF2B
:10225000FFFFFFFFFFFFFFFF87DCE4E8E4E8E4E8BF
:10226000E4E8E4E8E4E8D201FFDFFFFFFFFFFFFF5F
:10227000FFFFFFFFFFFFFFFFFFFFFFFFFFFFFFFF6E
:10228000FFFFFFFFFFFFFFFFFFFFFFFFFFFF87DCF9
:10229000E4E8E4E8E4E8E4E8E4E82C030060E4E8E7
:1022A000E4E8E4E8E4E8E4E83603FFFFFFFFFFFFCB
:1022B000FFFFFFFFFFFFFFFFFFFF20B3E4E8E4E8BD
:1022C000E4E8E4E8E4E8E4E83603FFFFFFFFFFFFAB
:1022D000FFFFFFFFFFFFFFFF87DCE4E8E4E8E4E83F
:1022E000E4E8E4E8E4E8D201FFDFFFFFFFFFFFFFDF
:1022F000FFFFFFFFFFFFFFFFFFFFFFFFFFFFFFFFEE
:10230000FFFFFFFFFFFFFFFFFFFFFFFFFBFFC0918E
:10231000E4E8E4E8E4E8E4E8E4E8BF6520B3E4E8FE
:10232000E4E8E4E8E4E8E4E80C00FFB7FFFFFFFFBF
:10233000FFFFFFFFFFFFFFFFFFFF20B3E4E8E4E83C
:10234000E4E8E4E8E4E8E4E83603FFFFFFFFFFFF2A
:10235000FFFFFFFFFFFFFFFF87DCE4E8E4E8E4E8BE
:10236000E4E8E4E8E4E8D201FFDFFFFFFFFFFFFF5E
:10237000FFFFFFFFFFFFFFFFFFFFFFFFFFFFFFFF6D
:10238000FFFFFFFFFFFFFFFFFFFFFFFFACFDE4E8E4
:10239000E4E8E4E8E4E8E4E80C00FFB7ACFDE4E8D6
:1023A000E4E8E4E8E4E8E4E8E4E8BF65FFFFFFFF11
:1023B000FFFFFFFFFFFFFFFFFFFF20B3E4E8E4E8BC
:1023C000E4E8E4E8E4E8E4E83603FFFFFFFFFFFFAA
:1023D000FFFFFFFFFFFFFFFF87DCE4E8E4E8E4E83E
:1023E000E4E8E4E8E4E8D201FFDFFFFFFFFFFFFFDE
:1023F000FFFFFFFFFFFFFFFFFFFFFFFFFFFFFFFFED
:10240000FFFFFFFFFFFFFFFFFFFFFFFF20B3E4E839
:10241000E4E8E4E8E4E8E4E8D201FFDFF6FF006086
:10242000E4E8E4E8E4E8E4E8E4E83603FFFFFFFF7B
:10243000FFFFFFFFFFFFFFFFFFFF20B3E4E8E4E83B
:10244000E4E8E4E8E4E8E4E83603FFFFFFFFFFFF29
:10245000FFFFFFFFFFFFFFFF87DCE4E8E4E8E4E8BD
:10246000E4E8E4E8E4E8D201FFDFFFFFFFFFFFFF5D
:10247000FFFFFFFFFFFFFFFFFFFFFFFFFFFFFFFF6C
:10248000FFFFFFFFFFFFFFFFFFFFF6FF0060E4E835
:10249000E4E8E4E8E4E8E4E89B3CFFFFFFFF20B366
:1024A000E4E8E4E8E4E8E4E8E4E80700DF96FFFFB6
:1024B000FFFFFFFFFFFFFFFFFFFF20B3E4E8E4E8BB
:1024C000E4E8E4E8E4E8E4E83603FFFFFFFFFFFFA9
:1024D000FFFFFFFFFFFFFFFF87DCE4E8E4E8E4E83D
:1024E000E4E8E4E8E4E8D201FFDFFFFFFFFFFFFFDD
:1024F000FFFFFFFFFFFFFFFFFFFFFFFFFFFFFFFFEC
:10250000FFFFFFFFFFFFFFFFFFFFACFDE4E8E4E894
:10251000E4E8E4E8E4E80700DF96FFFFFFFFACFD36
:10252000E4E8E4E8E4E8E4E8E4E8E4E89B3CFFFF0E
:10253000FFFFFFFFFFFFFFFFFFFF20B3E4E8E4E83A
:10254000E4E8E4E8E4E8E4E83603FFFFFFFFFFFF28
:10255000FFFFFFFFFFFFFFFF87DCE4E8E4E8E4E8BC
:10256000E4E8E4E8E4E8D201FFDFFFFFFFFFFFFF5C
:10257000FFFFFFFFFFFFFFFFFFFFFFFFFFFFFFFF6B
:10258000FFFFFFFFFFFFFFFFFFFF20B3E4E8E4E8EA
:10259000E4E8E4E8E4E8D201FFDFFFFFFFFFF6FF35
:1025A0000060E4E8E4E8E4E8E4E8E4E8D201FFDF1E
:1025B000FFFFFFFFFFFFFFFFFFFF20B3E4E8E4E8BA
:1025C000E4E8E4E8E4E8E4E83603FFFFFFFFFFFFA8
:1025D000FFFFFFFFFFFFFFFF87DCE4E8E4E8E4E83C
:1025E000E4E8E4E8E4E8D201FFDFFFFFFFFFFFFFDC
:1025F000FFFFFFFFFFFFFFFFFFFFFFFFFFFFFFFFEB
:10260000FFFFFFFFFFFFFFFFF6FF0060E4E8E4E8E5
:10261000E4E8E4E8E4E83603FFFFFFFFFFFFFFFF25
:1026200020B3E4E8E4E8E4E8E4E8E4E80700DF965F
:10263000FFFFFFFFFFFFFFFFFFFF20B3E4E8E4E839
:10264000E4E8E4E8E4E8E4E83603FFFFFFFFFFFF27
:10265000FFFFFFFFFFFFFFFF87DCE4E8E4E8E4E8BB
:10266000E4E8E4E8E4E8D201FFDFFFFFFFFFFFFF5B
:10267000FFFFFFFFFFFFFFFFFFFFFFFFFFFFFFFF6A
:10268000FFFFFFFFFFFFFFFF87DCE4E8E4E8E4E88B
:10269000E4E8E4E8E4E8E4E8E4E8E4E8E4E8E4E8DA
:1026A000E4E8E4E8E4E8E4E8E4E8E4E8E4E89B3CBF
:1026B000FFFFFFFFFFFFFFFFFFFF20B3E4E8E4E8B9
:1026C000E4E8E4E8E4E8E4E83603FFFFFFFFFFFFA7
:1026D000FFFFFFFFFFFFFFFF87DCE4E8E4E8E4E83B
:1026E000E4E8E4E8E4E83603FFFFFFFFFFFFFFFF55
:1026F000FFFFFFFFFFFFFFFFFFFFFFFFFFFFFFFFEA
:10270000FFFFFFFFFFFFFBFFC091E4E8E4E8E4E820
:10271000E4E8E4E8E4E8E4E8E4E8E4E8E4E8E4E859
:10272000E4E8E4E8E4E8E4E8E4E8E4E8E4E80C0009
:10273000FFB7FFFFFFFFFFFFFFFF87DCE4E8E4E8F0
:10274000E4E8E4E8E4E8E4E83603FFFFFFFFFFFF26
:10275000FFFFFFFFFFFFFFFF20B3E4E8E4E8E4E84A
:10276000E4E8E4E8E4E83603FFFFFFFFFFFFFFFFD4
:10277000FFFFFFFFFFFFFFFFFFFFFFFFFFFFFFFF69
:10278000FFFFFFFFFFFFD2FE0038E4E8E4E8E4E8E3
:10279000E4E8E4E8E4E8E4E8E4E8E4E8E4E8E4E8D9
:1027A000E4E8E4E8E4E8E4E8E4E8E4E8E4E8E4E8C9
:1027B000BF65FFFFFFFFFFFFFFFFACFDE4E8E4E8BC
:1027C000E4E8E4E8E4E8E4E8D201FFDFFFFFFFFF2C
:1027D000FFFFFFFFFFFFFBFFC091E4E8E4E8E4E850
:1027E000E4E8E4E8E4E89B3CFFFFFFFFFFFFFFFFB6
:1027F000FFFFFFFFFFFFFFFFFFFFFFFFFFFFFFFFE9
:10280000FFFFFFFFFFFF87DCE4E8E4E8E4E8E4E83B
:10281000E4E8E4E8E4E8E4E8E4E8E4E8E4E8E4E858
:10282000E4E8E4E8E4E8E4E8E4E8E4E8E4E8E4E848
:102830003603FFFFFFFFFFFFFFFFD2FE0038E4E893
:10284000E4E8E4E8E4E8E4E8E4E8BF65FFFFFFFF6C
:10285000FFFFFFFFFFFFACFDE4E8E4E8E4E8E4E8A5
:10286000E4E8E4E8E4E8BF65FFFFFFFFFFFFFFFFE8
:10287000FFFFFFFFFFFFFFFFFFFFFFFFFFFFFFFF68
:10288000FFFFFFFFFBFFC091E4E8E4E8E4E8E4E8D1
:10289000E4E8E4E8E4E8E4E8E4E8E4E8E4E8E4E8D8
:1028A000E4E8E4E8E4E8E4E8E4E8E4E8E4E8E4E8C8
:1028B0000C00FFB7FFFFFFFFFFFFFBFFC091E4E845
:1028C000E4E8E4E8E4E8E4E8E4E807009664FFDF2D
:1028D000FFFFFBFFACDD0038E4E8E4E8E4E8E4E80F
:1028E000E4E8E4E8D201FFDFFFFFFFFFFFFFFFFFA7
:1028F000FFFFFFFFFFFFFFFFFFFFFFFFFFFFFFFFE8
:10290000FFFFFFFFACFDE4E8E4E8E4E8E4E8E4E826
:10291000E4E8E4E8E4E8E4E8E4E8E4E8E4E8E4E857
:10292000E4E8E4E8E4E8E4E8E4E8E4E8E4E8E4E847
:10293000E4E89B3CFFFFFFFFFFFFFFFFACFDE4E887
:10294000E4E8E4E8E4E8E4E8E4E8E4E8E4E8E4E827
:10295000E4E8E4E8E4E8E4E8E4E8E4E8E4E8E4E817
:10296000E4E8E4E89B3CFFFFFFFFFFFFFFFFFFFF02
:10297000FFFFFFFFFFFFFFFFFFFFFFFFFFFFFFFF67
:10298000FFFFFFFF20B3E4E8E4E8E4E8E4E8E4E87C
:10299000E4E89B3CFFFFFFFFFFFFFFFFFFFFFFFFA0
:1029A000FFFFFBFFC091E4E8E4E8E4E8E4E8E4E8E2
:1029B000E4E8D201FFDFFFFFFFFFFFFFFFFF20B3CF
:1029C000E4E8E4E8E4E8E4E8E4E8E4E8E4E8E4E8A7
:1029D000E4E8E4E8E4E8E4E8E4E8E4E8E4E8E4E897
:1029E000E4E83603FFFFFFFFFFFFFFFFFFFFFFFFEE
:1029F000FFFFFFFFFFFFFFFFFFFFFFFFFFFFFFFFE7
:102A0000FFFFF6FF0060E4E8E4E8E4E8E4E8E4E877
:102A1000E4E8BF65FFFFFFFFFFFFFFFFFFFFFFFFD2
:102A2000FFFFFFFF87DCE4E8E4E8E4E8E4E8E4E84B
:102A3000E4E80700DF96FFFFFFFFFFFFFFFFFBFF5C
:102A4000C091E4E8E4E8E4E8E4E8E4E8E4E8E4E8A1
:102A5000E4E8E4E8E4E8E4E8E4E8E4E8E4E8E4E816
:102A6000D201FFDFFFFFFFFFFFFFFFFFFFFFFFFFC1
:102A7000FFFFFFFFFFFFFFFFFFFFFFFFFFFFFFFF66
:102A8000FFFFACFDE4E8E4E8E4E8E4E8E4E8E4E8D7
:102A90000C00FFB7FFFFFFFFFFFFFFFFFFFFFFFF80
:102AA000FFFFFFFFF6FF0060E4E8E4E8E4E8E4E8A5
:102AB000E4E8E4E89B3CFFFFFFFFFFFFFFFFFFFFB1
:102AC000FFFF8CDC0038E4E8E4E8E4E8E4E8E4E86C
:102AD000E4E8E4E8E4E8E4E8E4E8E4E8E4E8363BF1
:102AE000FFDFFFFFFFFFFFFFFFFFFFFFFFFFFFFF16
:102AF000FFFFFFFFFFFFFFFFFFFFFFFFFFFFFFFFE6
:102B0000FFFF20B3E4E8E4E8E4E8E4E8E4E8E4E82C
:102B10003603FFFFFFFFFFFFFFFFFFFFFFFFFFFF8A
:102B2000FFFFFFFFFFFF20B3E4E8E4E8E4E8E4E8A8
:102B3000E4E8E4E8D201FFDFFFFFFFFFFFFFFFFF54
:102B4000FFFFFFFFFBFFB2DD2C93C739C039E4E87C
:102B5000E4E8E4E8E4E8C701CC399694FFDFFFFF3E
:102B6000FFFFFFFFFFFFFFFFFFFFFFFFFFFFFFFF75
:102B7000FFFFFFFFFFFFFFFFFFFFFFFFFFFFFFFF65
:102B8000FFFFFFFFFFFFFFFFFFFFFFFFFFFFFFFF55
:102B9000FFFFFFFFFFFFFFFFFFFFFFFFFFFFFFFF45
:103F9000FFFFACFD0000000000000000000000007A
:103FA00000000000BF65FFFFFFFFFFFFFFFFFFFFF7
:103FB000FFFFFFFFFFFFFFFFFFFF20B30000000038
:103FC00000000000000000003603FFFFFFFFFFFFBE
:103FD000FFFFFFFFFFFFFFFF87DC00000000000086
:103FE000000000000000D201FFDFFFFFFFFFFFFF26
:103FF000FFFFFFFFFFFFFFFFFFFFFFFFFFFFFFFFD1
:10400000FFFFFFFFFFFFFFFFFFFFFFFFFFFFFFFFC0
:10401000FFFF20B3000000000000000000000000CF
:1040200000000000D201FFDFFFFFFFFFFFFFFFFFE7
:10403000FFFFFFFFFFFFFFFFFFFF20B300000000B7
:1040400000000000000000003603FFFFFFFFFFFF3D
:10405000FFFFFFFFFFFFFFFF87DC00000000000005
:10406000000000000000D201FFDFFFFFFFFFFFFFA5
:10407000FFFFFFFFFFFFFFFFFFFFFFFFFFFFFFFF50
:10408000FFFFFFFFFFFFFFFFFFFFFFFFFFFFFFFF40
:10409000D2FE003800000000000000000000000018
:1040A000000000000700DF96FFFFFFFFFFFFFFFF9C
:1040B000FFFFFFFFFFFFFFFFFFFF20B30000000037
:1040C00000000000000000003603FFFFFFFFFFFFBD
:1040D000FFFFFFFFFFFFFFFF87DC00000000000085
:1040E000000000000000D201FFDFFFFFFFFFFFFF25
:1040F000FFFFFFFFFFFFFFFFFFFFFFFFFFFFFFFFD0
:10410000FFFFFFFFFFFFFFFFFFFFFFFFFFFFFFFFBF
:1041100087DC00000000000000000000000000003C
:104120000000000000009B3CFFFFFFFFFFFFFFFFC0
:10413000FFFFFFFFFFFFFFFFFFFF20B300000000B6
:1041400000000000000000003603FFFFFFFFFFFF3C
:10415000FFFFFFFFFFFFFFFF87DC00000000000004
:10416000000000000000D201FFDFFFFFFFFFFFFFA4
:10417000FFFFFFFFFFFFFFFFFFFFFFFFFFFFFFFF4F
:10418000FFFFFFFFFFFFFFFFFFFFFFFFFFFFFBFF43
:10419000C0910000000000000000000000000000CE
:1041A000000000000000D201FFDFFFFFFFFFFFFF64
:1041B000FFFFFFFFFFFFFFFFFFFF20B30000000036
:1041C00000000000000000003603FFFFFFFFFFFFBC
:1041D000FFFFFFFFFFFFFFFF87DC00000000000084
:1041E000000000000000D201FFDFFFFFFFFFFFFF24
:1041F000FFFFFFFFFFFFFFFFFFFFFFFFFFFFFFFFCF
:10420000FFFFFFFFFFFFFFFFFFFFFFFFFFFFD2FEEC
:104210000038000000000000000000000000000066
:104220000000000000000700DF96FFFFFFFFFFFF18
:10423000FFFFFFFFFFFFFFFFFFFF20B300000000B5
:1042400000000000000000003603FFFFFFFFFFFF3B
:10425000FFFFFFFFFFFFFFFF87DC00000000000003
:10426000000000000000D201FFDFFFFFFFFFFFFFA3
:10427000FFFFFFFFFFFFFFFFFFFFFFFFFFFFFFFF4E
:10428000FFFFFFFFFFFFFFFFFFFFFFFFFFFF87DCD9
:10429000000000000000000000002C03006000008F
:1042A00000000000000000003603FFFFFFFFFFFFDB
:1042B000FFFFFFFFFFFFFFFFFFFF20B30000000035
:1042C00000000000000000003603FFFFFFFFFFFFBB
:1042D000FFFFFFFFFFFFFFFF87DC00000000000083
:1042E000000000000000D201FFDFFFFFFFFFFFFF23
:1042F000FFFFFFFFFFFFFFFFFFFFFFFFFFFFFFFFCE
:10430000FFFFFFFFFFFFFFFFFFFFFFFFFBFFC0916E
:1043100000000000000000000000BF6520B30000A6
:1043200000000000000000000C00FFB7FFFFFFFFCF
:10433000FFFFFFFFFFFFFFFFFFFF20B300000000B4
:1043400000000000000000003603FFFFFFFFFFFF3A
:10435000FFFFFFFFFFFFFFFF87DC00000000000002
:10436000000000000000D201FFDFFFFFFFFFFFFFA2
:10437000FFFFFFFFFFFFFFFFFFFFFFFFFFFFFFFF4D
:10438000FFFFFFFFFFFFFFFFFFFFFFFFACFD000090
:1043900000000000000000000C00FFB7ACFD0000B2
:1043A00000000000000000000000BF65FFFFFFFFED
:1043B000FFFFFFFFFFFFFFFFFFFF20B30000000034
:1043C00000000000000000003603FFFFFFFFFFFFBA
:1043D000FFFFFFFFFFFFFFFF87DC00000000000082
:1043E000000000000000D201FFDFFFFFFFFFFFFF22
:1043F000FFFFFFFFFFFFFFFFFFFFFFFFFFFFFFFFCD
:10440000FFFFFFFFFFFFFFFFFFFFFFFF20B30000E5
:104410000000000000000000D201FFDFF6FF006096
:10442000000000000000000000003603FFFFFFFF57
:10443000FFFFFFFFFFFFFFFFFFFF20B300000000B3
:1044400000000000000000003603FFFFFFFFFFFF39
:10445000FFFFFFFFFFFFFFFF87DC00000000000001
:10446000000000000000D201FFDFFFFFFFFFFFFFA1
:10447000FFFFFFFFFFFFFFFFFFFFFFFFFFFFFFFF4C
:10448000FFFFFFFFFFFFFFFFFFFFF6FF00600000E1
:1044900000000000000000009B3CFFFFFFFF20B376
:1044A000000000000000000000000700DF96FFFF92
:1044B000FFFFFFFFFFFFFFFFFFFF20B30000000033
:1044C00000000000000000003603FFFFFFFFFFFFB9
:1044D000FFFFFFFFFFFFFFFF87DC00000000000081
:1044E000000000000000D201FFDFFFFFFFFFFFFF21
:1044F000FFFFFFFFFFFFFFFFFFFFFFFFFFFFFFFFCC
:10450000FFFFFFFFFFFFFFFFFFFFACFD000000000C
:104510000000000000000700DF96FFFFFFFFACFD7A
:104520000000000000000000000000009B3CFFFFB6
:10453000FFFFFFFFFFFFFFFFFFFF20B300000000B2
:1045400000000000000000003603FFFFFFFFFFFF38
:10455000FFFFFFFFFFFFFFFF87DC00000000000000
:10456000000000000000D201FFDFFFFFFFFFFFFFA0
:10457000FFFFFFFFFFFFFFFFFFFFFFFFFFFFFFFF4B
:10458000FFFFFFFFFFFFFFFFFFFF20B30000000062
:10459000000000000000D201FFDFFFFFFFFFF6FF79
:1045A000006000000000000000000000D201FFDFFA
:1045B000FFFFFFFFFFFFFFFFFFFF20B30000000032
:1045C00000000000000000003603FFFFFFFFFFFFB8
:1045D000FFFFFFFFFFFFFFFF87DC00000000000080
:1045E000000000000000D201FFDFFFFFFFFFFFFF20
:1045F000FFFFFFFFFFFFFFFFFFFFFFFFFFFFFFFFCB
:10460000FFFFFFFFFFFFFFFFF6FF0060000000005D
:104610000000000000003603FFFFFFFFFFFFFFFF69
:1046200020B3000000000000000000000700DF963B
:10463000FFFFFFFFFFFFFFFFFFFF20B300000000B1
:1046400000000000000000003603FFFFFFFFFFFF37
:10465000FFFFFFFFFFFFFFFF87DC000000000000FF
:10466000000000000000D201FFDFFFFFFFFFFFFF9F
:10467000FFFFFFFFFFFFFFFFFFFFFFFFFFFFFFFF4A
:10468000FFFFFFFFFFFFFFFF87DC000000000000CF
:10469000000000000000000000000000000000001A
:1046A00000000000000000000000000000009B3C33
:1046B000FFFFFFFFFFFFFFFFFFFF20B30000000031
:1046C00000000000000000003603FFFFFFFFFFFFB7
:1046D000FFFFFFFFFFFFFFFF87DC0000000000007F
:1046E0000000000000003603FFFFFFFFFFFFFFFF99
:1046F000FFFFFFFFFFFFFFFFFFFFFFFFFFFFFFFFCA
:10470000FFFFFFFFFFFFFBFFC09100000000000064
:104710000000000000000000000000000000000099
:1047200000000000000000000000000000000C007D
:10473000FFB7FFFFFFFFFFFFFFFF87DC0000000068
:1047400000000000000000003603FFFFFFFFFFFF36
:10475000FFFFFFFFFFFFFFFF20B30000000000008E
:104760000000000000003603FFFFFFFFFFFFFFFF18
:10477000FFFFFFFFFFFFFFFFFFFFFFFFFFFFFFFF49
:10478000FFFFFFFFFFFFD2FE003800000000000027
:104790000000000000000000000000000000000019
:1047A0000000000000000000000000000000000009
:1047B000BF65FFFFFFFFFFFFFFFFACFD0000000034
:1047C0000000000000000000D201FFDFFFFFFFFF3C
:1047D000FFFFFFFFFFFFFBFFC09100000000000094
:1047E0000000000000009B3CFFFFFFFFFFFFFFFFFA
:1047F000FFFFFFFFFFFFFFFFFFFFFFFFFFFFFFFFC9
:10480000FFFFFFFFFFFF87DC00000000000000004B
:104810000000000000000000000000000000000098
:104820000000000000000000000000000000000088
:104830003603FFFFFFFFFFFFFFFFD2FE003800003F
:1048400000000000000000000000BF65FFFFFFFF48
:10485000FFFFFFFFFFFFACFD0000000000000000B5
:10486000000000000000BF65FFFFFFFFFFFFFFFF2C
:10487000FFFFFFFFFFFFFFFFFFFFFFFFFFFFFFFF48
:10488000FFFFFFFFFBFFC0910000000000000000E1
:104890000000000000000000000000000000000018
:1048A0000000000000000000000000000000000008
:1048B0000C00FFB7FFFFFFFFFFFFFBFFC0910000F1
:1048C0000000000000000000000007009664FFDF09
:1048D000FFFFFBFFACDD003800000000000000001F
:1048E00000000000D201FFDFFFFFFFFFFFFFFFFF1F
:1048F000FFFFFFFFFFFFFFFFFFFFFFFFFFFFFFFFC8
:10490000FFFFFFFFACFD0000000000000000000002
:104910000000000000000000000000000000000097
:104920000000000000000000000000000000000087
:1049300000009B3CFFFFFFFFFFFFFFFFACFD0000FF
:104940000000000000000000000000000000000067
:104950000000000000000000000000000000000057
:10496000000000009B3CFFFFFFFFFFFFFFFFFFFF7A
:10497000FFFFFFFFFFFFFFFFFFFFFFFFFFFFFFFF47
:10498000FFFFFFFF20B30000000000000000000058
:1049900000009B3CFFFFFFFFFFFFFFFFFFFFFFFF4C
:1049A000FFFFFBFFC09100000000000000000000BE
:1049B0000000D201FFDFFFFFFFFFFFFFFFFF20B37B
:1049C00000000000000000000000000000000000E7
:1049D00000000000000000000000000000000000D7
:1049E00000003603FFFFFFFFFFFFFFFFFFFFFFFF9A
:1049F000FFFFFFFFFFFFFFFFFFFFFFFFFFFFFFFFC7
:104A0000FFFFF6FF00600000000000000000000053
:104A10000000BF65FFFFFFFFFFFFFFFFFFFFFFFF7E
:104A2000FFFFFFFF87DC0000000000000000000027
:104A300000000700DF96FFFFFFFFFFFFFFFFFBFF08
:104A4000C091000000000000000000000000000015
:104A50000000000000000000000000000000000056
:104A6000D201FFDFFFFFFFFFFFFFFFFFFFFFFFFFA1
:104A7000FFFFFFFFFFFFFFFFFFFFFFFFFFFFFFFF46
:104A8000FFFFACFD0000000000000000000000007F
:104A90000C00FFB7FFFFFFFFFFFFFFFFFFFFFFFF60
:104AA000FFFFFFFFF6FF00600000000000000000B5
:104AB000000000009B3CFFFFFFFFFFFFFFFFFFFF29
:104AC000FFFF8CDC00380000000000000000000048
:104AD0000000000000000000000000000000363B65
:104AE000FFDFFFFFFFFFFFFFFFFFFFFFFFFFFFFFF6
:104AF000FFFFFFFFFFFFFFFFFFFFFFFFFFFFFFFFC6
:104B0000FFFF20B3000000000000000000000000D4
:104B10003603FFFFFFFFFFFFFFFFFFFFFFFFFFFF6A
:104B2000FFFFFFFFFFFF20B30000000000000000B8
:104B300000000000D201FFDFFFFFFFFFFFFFFFFFCC
:104B4000FFFFFFFFFBFFB2DD2C93C739C039000028
:104B5000000000000000C701CC399694FFDFFFFF82
:104B6000FFFFFFFFFFFFFFFFFFFFFFFFFFFFFFFF55
:104B7000FFFFFFFFFFFFFFFFFFFFFFFFFFFFFFFF45
:104B8000FFFFFFFFFFFFFFFFFFFFFFFFFFFFFFFF35
:104B9000FFFFFFFFFFFFFFFFFFFFFFFFFFFFFFFF25
:1057F000FFFFFFFFFFFFFFFFFFFFFFFF00000000B5
:105800000000000000000000000000000000000098
:105810000010001000100010001000100000001018
:105820000000000000280028002800000000000000
:10583000000000000000000000240024007C002480
:105840000048007C00480048000000000038005478
:1058500000500038001400540054003800100000BC
:1058600000200054005800300028005400140008A4
:10587000000000000010002800280010003400483C
:10588000004800340000000000100010001000006C
:1058900000000000000000000000000000080010F0
:1058A0000020002000200020002000200010000820
:1058B0000020001000080008000800080008000888
:1058C0000010002000100038001000280000000028
:1058D00000000000000000000000000000100010A8
:1058E000007C00100010000000000000000000001C
:1058F0000000000000000000000000100010001078
:10590000000000000000000000000038000000005F
:105910000000000000000000000000000000000087
:105920000000001000000000000800080010001037
:10593000001000100020002000000000003800448B
:1059400000440054004400440044003800000000BB
:105950000010003000500010001000100010001067
:10596000000000000038004400440004000800105B
:105970000020007C000000000038004400040018F3
:105980000004000400440038000000000008001873
:10599000002800280048007C0008000800000000E3
:1059A000007C0040004000780004000400440038FF
:1059B000000000000038004400400078004400442B
:1059C0000044003800000000007C000400080010C3
:1059D00000100020002000200000000000380044DB
:1059E0000044003800440044004400380000000037
:1059F0000038004400440044003C000400440038E7
:105A00000000000000000000001000000000000086
:105A10000000001000000000000000000000001066
:105A20000000000000000010001000100000000046
:105A3000000C003000400030000C000000000000AE
:105A4000000000000000007C0000007C000000005E
:105A500000000000000000000060001800040018B2
:105A6000006000000000000000380044000400084E
:105A7000001000100000001000000000003800447A
:105A8000004C0054005C0040004000380000000062
:105A900000100028002800280028007C0044004452
:105AA00000000000007800440044007800440044F6
:105AB000004400780000000000380044004000402E
:105AC0000040004000440038000000000070004822
:105AD00000440044004400440048007000000000FE
:105AE000007C00400040007C004000400040007C02
:105AF00000000000007C00400040007800400040B2
:105B00000040004000000000003800440040004019
:105B1000005C0044004400380000000000440044E1
:105B20000044007C004400440044004400000000A5
:105B30000038001000100010001000100010003895
:105B4000000000000004000400040004000400043D
:105B5000004400380000000000440048005000608D
:105B60000050004800480044000000000040004091
:105B700000400040004000400040007C0000000069
:105B80000044006C006C0054004400440044004495
:105B90000000000000440064006400540054004C05
:105BA000004C004400000000003800440044004461
:105BB0000044004400440038000000000078004425
:105BC0000044004400780040004000400000000015
:105BD00000380044004400440044004400540038AD
:105BE00000040000007800440044004400780048AD
:105BF000004800440000000000380044004000302D
:105C0000000800040044003800000000007C001080
:105C10000010001000100010001000100000000024
:105C20000044004400440044004400440044003860
:105C30000000000000440044004400280028002820
:105C40000010001000000000004400440054005404
:105C50000054006C002800280000000000440028C8
:105C60000028001000100028002800440000000058
:105C7000004400440028002800100010001000100C
:105C800000000000007C000400080010001000204C
:105C90000040007C00000000001800100010001000
:105CA000001000100010001000100018002000204C
:105CB0000010001000100010000800080000000094
:105CC0000030001000100010001000100010001034
:105CD00000100030001000280028004400000000E0
:105CE00000000000000000000000000000000000B4
:105CF0000000000000000000000000FE0020001076
:105D00000000000000000000000000000000000093
:105D10000000000000380044003C0044004C003407
:105D200000000000004000400058006400440044AF
:105D3000006400580000000000000000003800442B
:105D4000004000400044003800000000000400044F
:105D50000034004C00440044004C003400000000BB
:105D60000000000000380044007C0040004400387F
:105D700000000000000C0010007C0010001000105B
:105D80000010001000000000000000000034004C73
:105D900000440044004C00340004007800400040FF
:105DA0000058006400440044004400440000000027
:105DB0000010000000700010001000100010001013
:105DC0000000000000100000007000100010001023
:105DD00000100010001000E000400040004800509B
:105DE00000600050004800440000000000700010F7
:105DF0000010001000100010001000100000000043
:105E00000000000000780054005400540054005476
:105E1000000000000000000000580064004400443E
:105E2000004400440000000000000000003800446E
:105E3000004400440044003800000000000000005E
:105E400000580064004400440064005800400040D2
:105E5000000000000034004C00440044004C0034BA
:105E600000040004000000000058006400400040EE
:105E70000040004000000000000000000038004426
:105E8000003000080044003800000000002000201E
:105E900000780020002000200020001800000000F2
:105EA000000000000044004400440044004C003462
:105EB000000000000000000000440044002800280A
:105EC00000280010000000000000000000540054F2
:105ED0000054006C002800280000000000000000B2
:105EE00000440028001000100028004400000000BA
:105EF00000000000004400440028002800100010AA
:105F00000010006000000000007C0008001000206D
:105F10000040007C0000000000180010001000107D
:105F200000200020001000100010001800100010C9
:105F300000100010001000100010001000100010E1
:105F400000300010001000100008000800100010C1
:105F5000001000300000000000000074004C000041
:105F600000000000000000000F0180961180FFB1CA
:105F700003012C2DB203012C2DB306012C2D012C75
:105F80002DB40107C003A20284C101C5C2020A00E8
:105F9000C3028A2AC4028AEEC5010E20003601C05F
:105FA0003A0105022A040000007F2B040000007F54
:105FB00004E010021C07123732292D29252B390045
:105FC000010310E110031D07062E2C292D2E2E375C
:105FD0003F0000021013800A2980640000000000C6
:105FE0000000000102030406070809000C60000815
:105FF000000000202800000028010008346000088C
:1060000028000020A0070000440100080000000054
:10601000070A0000FC57000800020100A0008000F1
:10602000408020000100000010000000000000007F
:046030000024F40054
:04000005080000ED02
:00000001FF
