:020000040800F2
:10000000F8080020910100084F1D0008F51A0008AB
:100010004D1D0008AF050008F5260008000000008F
:10002000000000000000000000000000692500083A
:100030006906000800000000511D00086B2500083B
:10004000AB010008AB010008AB010008AB010008E0
:10005000AB010008AB010008AB010008AB010008D0
:10006000AB010008AB010008AB010008AB010008C0
:10007000AB010008AB010008AB010008AB010008B0
:10008000AB010008AB010008AB010008AB010008A0
:10009000AB010008AB010008AB010008AB01000890
:1000A000AB010008AB010008AB010008AB01000880
:1000B000AB010008AB010008AB010008AB01000870
:1000C000AB010008AB010008AB010008AB01000860
:1000D000AB010008AB010008AB010008AB01000850
:1000E000AB010008AB010008AB01000800F002F80A
:1000F00000F03FF80AA090E8000C82448344AAF183
:100100000107DA4501D100F034F8AFF2090EBAE880
:100110000F0013F0010F18BFFB1A43F0010318473B
:10012000845B0000A45B0000103A24BF78C878C14B
:10013000FAD8520724BF30C830C144BF04680C60ED
:10014000704700000023002400250026103A28BF35
:1001500078C1FBD8520728BF30C148BF0B60704739
:10016000642900F07180002070471FB51FBD10B5D5
:1001700010BD00F0E2F91146FFF7F7FF03F02AF88F
:1001800000F000FA03B4FFF7F2FF03BC00F008FA36
:100190000948804709480047FEE7FEE7FEE7FEE71B
:1001A000FEE7FEE7FEE7FEE7FEE7FEE70448054957
:1001B000054A064B70470000EF250008ED000008D7
:1001C000F8020020F8080020F8040020F8040020BD
:1001D0000FB41CB5074B06AA7B44694600900598EE
:1001E00000F093F90020694600F0A2F91CBC5DF80C
:1001F00014FB00005503000070B5044685690068D3
:10020000C10601D5302600E02026C00707D070BD0A
:10021000D4E9012130469047206A401C20626D1EBF
:10022000F6D570BD70B5044685690078C00707D162
:1002300070BDD4E9012120209047206A401C206233
:100240006D1EF6D570BD00002DE9F0410646002474
:1002500010687529314616A510D0AFF3008000282C
:1002600002DA404213A507E031688A0701D512A5DA
:1002700002E0490704D511A5012401E0AFF3008095
:1002800000210A2206F1240709E0B0FBF2FCB0FBD2
:10029000F2F302FB1C00303078541846491C002849
:1002A000F3D123462A463046BDE8F04100F0CEB8EF
:1002B000000000002D0000002B00000020000000C6
:1002C0002DE9F05F894604464FF0000ADFF824B1BB
:1002D000FB44C0F820A02046E168884700287DD074
:1002E000252806D0D4E901219047206A401C2062CD
:1002F000F1E700255F462046E1688847202806464A
:1003000007DB312E05D2B81910F8200C08B10543CF
:10031000F1E7A80701D525F00405C4F81CA00027C3
:10032000C4F818A02A2E09D0304602F0F4F938B3E8
:1003300004EB8708303EC8F8186019E059F8041B30
:10034000204604EB87029161E1688847012F064649
:1003500018D1E069002820DA25F020051DE0D8F842
:10036000180000EB800006EB40003038C8F8180099
:100370002046E1688847064602F0CDF90028EED114
:10038000012F0AD02E2E08D12046E16888477F1C15
:100390000646022F45F02005C4DBA069002803DAD9
:1003A000404245F00105A061E80701D025F01005A5
:1003B000A6B1A6F14100192802D8203645F40065FF
:1003C0004A463146204625604D46FFF7C9FE60B1DA
:1003D000012807D0ED1D25F0070000E007E000F13F
:1003E000080978E705F1040975E730467AE7206ADD
:1003F000BDE8F09FBC5900004FF0000200B5134665
:1004000094469646203922BFA0E80C50A0E80C5034
:10041000B1F12001BFF4F7AF090728BFA0E80C50E5
:1004200048BF0CC05DF804EB890028BF40F8042BDE
:1004300008BF704748BF20F8022B11F0804F18BF4B
:1004400000F8012B70477047704770472DE9F0475F
:100450000D4699469246044600F124080168880634
:1004600004D5E06921F01001216000E00120A842DC
:1004700001DD471B00E00027A1697A1902EB0900A2
:10048000081AA0612078C00602D42046FFF7B4FE07
:10049000002608E0D4E901211AF806009047206AF6
:1004A000401C761C20624E45F4DB2078C0060AD53D
:1004B0002046FFF7A1FE06E0D4E901213020904755
:1004C000206A401C2062381EA7F10107F4DC07E017
:1004D000D4E9012118F805009047206A401C2062E9
:1004E000281EA5F10105F3DC2046FFF79BFE2078CE
:1004F000000602D50220BDE8F0870120FBE70000DE
:1005000001694A1C02610878704700B58FB0CDE9D7
:1005100001310021059105497944CDE903101146C7
:100520006846FFF7CDFE0FB000BD0000E5FFFFFFFE
:100530000A6802F8010B0A607047754600F02CF853
:10054000AE4605006946534620F00700854618B0C0
:1005500020B5FFF72BFEBDE820404FF000064FF01E
:1005600000074FF000084FF0000B21F00701AC46E8
:10057000ACE8C009ACE8C009ACE8C009ACE8C00907
:100580008D46704710B50446AFF300802046BDE8A5
:100590001040FFF7F7BD00000048704794020020AC
:1005A00001491820ABBEFEE7260002007047FEE7B7
:1005B0001FB54FF4007000900020019001200290C0
:1005C000022003906946024800F002F91FBD0000B6
:1005D000000C01401FB54FF4007000900120019005
:1005E00000200290022003906946024800F0F0F8D3
:1005F0001FBD0000000C01400E48016821F0807111
:100600000160016841F0807101600B48016821F0D0
:1006100001010160016841F00101016000214160B8
:1006200000BF00BF00BF406808B100207047012034
:1006300070470000FCED00E0001000E031B5084D0F
:100640006C6800F0C5FB0749B0FBF1F00099484326
:10065000009068680099001B8842FAD338BD0000FA
:10066000001000E040420F0070470022AFF300800E
:1006700030B50E4B054601205C7A012C15D8587A0E
:1006800000241C54587A03EB800045605D7A03F126
:1006900008002A54587A421C5A72303008703A20A6
:1006A00048702F208870CC70002030BD8802002058
:1006B00070B5044600F086F90546601C02D0044877
:1006C0000078044400F07EF9401BA042FAD370BDCC
:1006D000400000202DE9F0430023374F0F2566E04E
:1006E00001229A400A4060D023F00304E619D6F8AC
:1006F00008809C074FEA147C05FA0CF909EA080403
:10070000DFF8B880404502D14FF0000816E0DFF86E
:10071000B080404502D14FF001080FE0DFF8A4801F
:10072000404502D14FF0020808E0DFF89C804045C8
:1007300002D14FF0030801E04FF0040808FA0CF86A
:10074000A04515D1D6F808C02CEA090CC6F808C097
:100750001E4E346894433460341D266896432660E8
:10076000241D266896432660241D2668964326602D
:10077000FF2A01D8064601E000F104064FEA83048F
:1007800001D9A4F12004D6F800C005FA04F82CEA37
:10079000080C4FF0040808FA04F84CEA080CC6F8F4
:1007A00000C0C46824EA0204C46003F1010331FA02
:1007B00003F295D1BDE8F08300000140000801403C
:1007C000000C0140001001400014014000040140F1
:1007D0002DE9F84FDFF8B891002409F1040A0AF175
:1007E000040B23460F270BF1040EC9E00125A54099
:1007F0002A40AA427DD1674ED1F804C0ACEB06086E
:10080000B44532D014DCBCF1030F3AD009DCBCF1A2
:10081000000F2AD0BCF1010F1CD0BCF1020F31D166
:100820001DE0BCF1110F17D0BCF1120F2AD119E055
:10083000B8F5881F19D006DCB8F5803F15D0B8F59B
:10084000801F1FD111E0B8F5001F0ED0B8F5041FAE
:1008500018D10AE0CB6815E0CB681B1D12E0CB680D
:1008600008330FE0CB680C330CE08B682BB1012B05
:100870004FF0080303D0456104E0042302E0056162
:1008800000E00023FF2A01D8064601E000F104063B
:100890004FEA840501D9A5F12005D6F8008007FAB2
:1008A00005FC28EA0C0803FA05F548EA0508C6F82D
:1008B00000804D68ED0062D5374DAE6946F0010607
:1008C000AE61AD6924F0030605F001050095334DD6
:1008D00006EB050CDCF80850A607360F07FA06F8F9
:1008E00025EA0805DFF8B880404503D14FF000083D
:1008F00017E044E0DFF8AC80404502D14FF001083A
:100900000FE0DFF8A480404502D14FF0020808E074
:10091000DFF89880404502D14FF0030801E04FF026
:10092000040808FA06F848EA0508CCF808804D687B
:10093000D9F80060ED034D4601D5164300E096431B
:100940002E604D68DAF80060AD03554601D51643B8
:1009500000E096432E604D68DBF80060ED025D46D6
:1009600001D5164300E096432E604D68DEF8006026
:10097000AD02754601D5164300E096432E60641C17
:100980000D682A46E5407FF431AFBDE8F88F0000DE
:10099000000401400000111000100240000001405E
:1009A00000080140000C014000100140001401400B
:1009B0008068084000D0012070470AB1016170478B
:1009C0000904FBE7014880687047000040000020F0
:1009D000024881680278114481607047400000201D
:1009E000074810B5016841F010010160032000F0D4
:1009F00067F80F2000F006F800F024F8002010BD82
:100A00000020024070B50D4D04464FF47A712878ED
:100A1000B1FBF0F00A490968B1FBF0F000F0EBFE21
:100A200048B9102C07D200222146501E00F028F8A9
:100A300000206C6070BD012070BD000040000020EF
:100A40004C0000200C4808B5816941F0010181612A
:100A5000816901F001010091C16941F08051C161DA
:100A6000C06900F0805000900448416821F0E061C6
:100A700041F00071416008BD0010024000000140DB
:100A8000F0B40E4B1B680C46C3F30223C3F10705F9
:100A9000042D00D90425191D072901D2002300E0E7
:100AA000DB1E012606FA05F1491E214099409E40B1
:100AB000761E16403143F0BC01F01DBE0CED00E087
:100AC000064900F0070208684FF6FF03184040EAA5
:100AD0000220034A10430860704700000CED00E05C
:100AE0000000FA05014901200862704700000E422B
:100AF00010B529A401461DCC86B08DE81D002AA0A2
:100B00002A4C006804900020012923D002293AD001
:100B100010291DD161682268D20119D5C1F3834221
:100B2000C9031DF8020009D5616804AAC1F3404158
:100B3000515C1F4AB2FBF1F1484301E01D494843B3
:100B40006168490204D440005FF00301B0FBF1F09A
:100B500006B010BD226AC2F30121012903D1920718
:100B600001D5C803F4E7022905D1626A920702D5CC
:100B700049F64040ECE70329EAD121688903E7D52B
:100B80004FF22440E4E700F029F96168C1F38131B4
:100B9000491C4900DAE700000203040506070809BA
:100BA0000A0B0C0D0E0F1010010200000010024085
:100BB00000127A0000093D002DE9F843054600784F
:100BC000354CC00754D0E0690026C00008D4E06965
:100BD00040F08050E061E069012600F08050009014
:100BE0002E480168C90512D40168804641F480711D
:100BF0000160FFF7E7FE074605E000BFFFF7E2FEF2
:100C0000C01B642823D8D8F80000C005F6D5206A98
:100C100010F4407021D0A98801F4407181421CD0A9
:100C2000206A1F49012220F440700A6000220A60F5
:100C30002062C00711D0FFF7C5FE074641F2883891
:100C400008E000BFFFF7BEFEC11B414502D90320EB
:100C5000BDE8F883206A8007F4D5206A696820F42B
:100C60004070084320621EB1E06920F08050E061CE
:100C70002878800705D56068A96820F440400843BB
:100C800060602878C00605D56068E96820F48000B7
:100C9000084360600020DBE7001002400070004065
:100CA000400442422DE9F0470F46050061D0434E13
:100CB000306800F00700B84209D2306820F0070021
:100CC00038433060306800F00700B84251D12868DE
:100CD0003B4C810712D5400703D5606840F4E060C3
:100CE00060602878000703D5606840F46050606059
:100CF0006068A96820F0F000084360602878C007A9
:100D000028D06868012810D02168022810D08907EF
:100D100000292EDA616821F0030101436160FFF7C9
:100D200051FE804641F288390DE021688903EFE7E2
:100D30008901EDE7FFF746FEA0EB0801494502D91E
:100D40000320BDE8F0876068696800F00C00B0EB34
:100D5000810FEFD1306800F00700B8420BD930683E
:100D600020F0070038433060306800F00700B842D8
:100D700001D00120E5E72878400705D56068E968DB
:100D800020F4E060084360602878000706D56068BA
:100D9000296920F4605040EAC100606000F02EF83C
:100DA0006168084AC1F30311515CC84006490860F4
:100DB00006480068FFF726FE0020C2E70020024038
:100DC00000100240785C00084C0000204400002025
:100DD00001480068704700004C00002004480549A5
:100DE00000684968044AC1F3C221515CC840704799
:100DF0004C00002000100240885C000812A185B061
:100E00000FC98DE80F0014A0144A006804905168BF
:100E1000134801F00C03042B10D0082B0ED1C1F3A2
:100E20008343C9031DF803000AD5516804AAC1F31E
:100E30004041515C0A4A5043B0FBF1F005B07047A5
:100E400008494843FAE700000203040506070809B9
:100E50000A0B0C0D0E0F10100102000000100240D2
:100E600000127A0000093D002DE9F84F040070D00F
:100E70002078C04DC00749D06868C0F381000128C0
:100E800007D06868C0F38100022809D16868C003F0
:100E900006D52868800339D560680028E7D035E09A
:100EA0006068B0F5803F0BD010B1B0F5A02F11D025
:100EB000286820F480302860286820F4802002E030
:100EC000286840F480302860606890B1FFF77AFDB0
:100ED00006460AE0286840F480202860F0E700BF5A
:100EE000FFF770FD801B642873D828688003F7D54E
:100EF0000CE0FFF767FD064605E000BFFFF762FD67
:100F0000801B6428F0D828688003F7D420789A4E94
:100F100080074FF001094FF0000839D5686810F0DC
:100F20000C0F07D06868C0F38100022809D16868F7
:100F3000C00306D42868800714D52069012808D189
:100F400010E02069B0B1C6F80090FFF73BFD0746FE
:100F500005E00AE1FFF736FDC01B0228C4D8286867
:100F60008007F7D52868616920F0F80040EAC100E1
:100F700028600DE0C6F80080FFF724FD074604E076
:100F8000FFF720FDC01B022823D828688007F7D46C
:100F9000207800072CD57948A169D9B1C0F8009014
:100FA000FFF710FD074604E0FFF70CFDC01B022809
:100FB0000FD8686A8007F7D571484FF4FA51006876
:100FC000B0FBF1F0009000BF0098411E0091FAD2F2
:100FD0000EE080E0C0F80080FFF7F4FC074604E074
:100FE000FFF7F0FCC01B022875D8686A8007F7D4A9
:100FF0002078400760D5E8690027C00008D4E86978
:1010000040F08050E861E869012700F080500090CE
:101010005C480168C90513D40168834641F48071B6
:101020000160FFF7CFFC824606E000BFFFF7CAFC75
:10103000A0EB0A0064284ED8DBF80000C005F5D507
:10104000E06801280AD008B1052813D0286A20F0EA
:1010500001002862286A20F0040002E0286A40F0BB
:1010600001002862E06841F2883B98B1FFF7AAFCD2
:1010700082460BE0286A40F004002862EEE700BFD9
:10108000FFF7A0FCA0EB0A0159455AD8286A80074F
:10109000F6D50CE0FFF796FC824605E0FFF792FCE0
:1010A000A0EB0A0159454CD8286A8007F6D41FB135
:1010B000E86920F08050E861E06988B36968C1F3AD
:1010C0008101022944D00228C6F8608004D0FFF7CD
:1010D00079FC044638E034E0FFF774FC074604E08E
:1010E000FFF770FCC01B02282BD828688001F7D4BA
:1010F000206AB0F5803F05D16868A16820F400300F
:1011000008436860D4E908010843696821F4741150
:1011100008436860C6F86090FFF754FC044606E098
:1011200025E000BFFFF74EFC001B022809D8286805
:101130008001F7D51BE000BFFFF744FC001B02282D
:1011400002D90320BDE8F88F28688001F4D40EE0AE
:101150000128F7D06868226A00F48031914204D1F6
:10116000616A00F47010884201D00120EAE7002093
:10117000E8E70000001002400000424280044242C2
:101180004C00002000700040F8B505004FF0000052
:1011900016460C46009006D02CB10022694628461F
:1011A00000F019F808B10120F8BD287B2070E87B19
:1011B000E070697B6170A97BA17056B100F00BFEF5
:1011C000E070607800F007FE6070A07800F003FE29
:1011D000A0700020F8BD2DE9F04791460C465FEA6B
:1011E00000084AD084B3D8F800004068400744D4CF
:1011F000404600F08FFE4FF461620546B0FBF2F10D
:10120000B0FBF2F302FB13503C23B0FBF3F0B5FB51
:10121000F2F6607002FB1650B0FBF3F203FB120013
:10122000A070182931D31820B1FBF0F7B1FBF0F210
:1012300000FB12102070404600F065FE411C04D0F7
:10124000A84202D9461B02E017E04FF0FF36A7EB99
:10125000071000EB4000C0EB001005EBC01529465D
:10126000404600F0A6FE40B9701C01D0711900E0A4
:101270003146404600F089FE10B10120BDE8F087FC
:101280003946404600F0B2FD00E02170B9F1000F90
:101290000BD0207800F09FFD2070607800F09BFD5F
:1012A0006070A07800F097FDA0700020E6E70000D5
:1012B00070B5040003D0607C002610B105E0012069
:1012C00070BD2674204600F043F80220607420466A
:1012D00000F010F9042578BB204600F0DEFD58BB75
:1012E0002068416821F007014160A06820B11748DB
:1012F000016821F0010101601448001F0168A26823
:1013000021F46071114301606068411C04D1012027
:10131000FFF7EEFB80B1401E21688A6822F00F02C1
:1013200042EA10428A602168CA6860F30F02CA600C
:10133000204600F0CDFD08B16574C0E7E6730120DA
:101340006073A0736074002070BD0000306C0040BA
:1013500008B50068084988420DD1FFF7C3FB07486C
:10136000C16941F00061C161C069054900F00060D8
:1013700000900120086008BD0028004000100240D5
:101380003C0442422DE9F0410D4604003BD0C5B378
:10139000207C01283AD04FF0010884F81080022008
:1013A0006074E87872B300F00DFDE073687800F0C7
:1013B00009FD6073A87800F005FDA073C2B2617BDF
:1013C000E07B00F0B7FD20732870204600F0A2FDFE
:1013D0004FF46161B0FBF1F1002518292DD91822D5
:1013E000B1FBF2F1A1EB011101EB4101C1EB0111E4
:1013F00000EBC1163146204600F0DBFD0427C8B9DA
:101400000BE000E004E00120BDE8F0810220FBE7F2
:10141000E07368786073A878CFE7204600F073FD2A
:10142000411C0AD0B04208D206490144204600F0CF
:10143000ACFD10B167742574E5E784F8118025745C
:101440000020E1E7805101002DE9F0410D46040044
:1014500024D01DB3207C012823D04FF0010884F84C
:101460001080022060742878EAB100F0ABFC4FF4E1
:10147000616100FB01F6687800F0A4FCC0EB00108D
:1014800006EB8006A87800F09DFC3518294620461A
:1014900000F08FFD0026042710BB0FE00120BDE8FF
:1014A000F0810220FBE74FF4616148436978C1EBAA
:1014B000011100EB8100A9784518E7E72068416831
:1014C00021F005014160204600F01DFD411C0AD0BD
:1014D000A84208D206490144204600F056FD10B14A
:1014E00067742674DAE784F8118026740020D6E742
:1014F0008051010070B504000AD02068416821F0D5
:1015000008014160FFF75EFA05464FF47A7608E07D
:10151000012070BDFFF756FA401BB04201D90320ED
:1015200070BD206840680007F4D5002070BD70B51C
:10153000040009D0606A002540B125616561A5629B
:1015400094F8510040B10CE0012070BD6068B0F526
:10155000827FF4D0E561F2E784F85050204600F035
:101560003FF8022084F851002068016821F0400112
:101570000160A088218900F4827001F404410843CD
:10158000A18901F400610843217C01F002010843B4
:10159000217D01F001010843218B01F40071084312
:1015A000217F01F03801084394F8201001F08001F8
:1015B0000843218D01F40051084321680860A069A7
:1015C000042101EA1040216848602068C16921F4C3
:1015D0000061C1616565012084F85100002070BD83
:1015E00030B585B000240094019402940394234DF7
:1015F0000368234802210322AB4216D1836943F4D6
:1016000080538361836903F480530493836943F0B7
:10161000040383618069039200F004000490A02019
:10162000CDE900016946174823E0174DAB4222D1AE
:10163000C36943F48043C361C36903F480430493E3
:10164000836943F0080383618069104D00F008004E
:1016500004904FF42040CDE90001039269462846EA
:10166000FFF7B6F84FF48040CDE9000469462846FC
:101670000294FFF7ADF805B030BD00000030014026
:10168000001002400008014000380040000C0140FA
:101690002DE9F84F044690F8500000271D461646E5
:1016A000894601280DD04FF0010B84F850B0FFF7A8
:1016B00089F9804694F85100BA46012804D00227DF
:1016C00093E00220BDE8F88FB9F1000F73D0002E2F
:1016D00071D0032084F85100C4F854A0C4F83090AD
:1016E000A686E686C4F838A0A4F83CA0A4F83EA0DC
:1016F000C4F844A0C4F840A0A068B0F5004F09D1D8
:101700002068016821F0400101602068016841F40F
:101710008041016020680168490603D4016841F0F6
:1017200040010160E068B0F5006F606803D030B33D
:10173000012E24D041E008B1012E1CD1206B21687C
:101740000088C86006E020688168890709D5216B98
:101750000988C160206B801C2063E08E401EE086FB
:1017600009E0FFF72FF9A0EB0800A84202D3681C9C
:1017700001D031E07DB3E08E0028E4D120E0206B81
:1017800021680078087306E020688168890709D518
:10179000216B09780173206B401C2063E08E401E92
:1017A000E0860AE0FFF70EF9A0EB0800A84203D399
:1017B000681C02D010E017E06DB1E08E0028E3D184
:1017C00042462946204600F008FC08B1202060650A
:1017D000A06818B106E0FFE7032706E02068C168AB
:1017E00080680090606D00B1012784F851B084F8E2
:1017F00050A0384666E710B5401EB0F1807F01D397
:10180000012010BD4FF0E02460610F21601700F04F
:1018100072FF0020A06107202061002010BD0000A1
:1018200070B590F83C20012A26D0012480F83C4075
:10183000022280F83D2003685A689D6822F07006F5
:101840000A6832435A600D4B02689A4208D0B2F1DE
:10185000804F05D00A4B9A4202D00A4B9A4204D1DB
:10186000496825F080031943916080F83D400021CC
:1018700080F83C10084670BD022070BD002C01406D
:10188000000400400008004010B5040003D094F8A4
:101890003D0010B107E0012010BD002084F83C009D
:1018A000204600F01FF8022084F83D00211D20682A
:1018B00000F09EFE012084F8460084F83E0084F883
:1018C0003F0084F8400084F8410084F8420084F826
:1018D000430084F8440084F8450084F83D0000206B
:1018E00010BD000008B500680649884208D10648C6
:1018F000816941F400618161806900F400600090B9
:1019000008BD0000002C01400010024070B50446E4
:1019100090F83C00012817D0012584F83C500220A3
:1019200084F83D002068826822F0770222F47F422A
:1019300082600868502830D00DDC20284DD005DCAE
:1019400098B310283BD148E0022070BD302844D025
:10195000402834D139E0602828D0702806D0B0F56E
:10196000805F2CD0B0F5005F29D10AE0CB68D1E9C7
:101970000121206800F072FE2068816841F0770143
:1019800009E0CB68D1E90121206800F067FE2068FA
:10199000816841F48041816011E0CA68496820682B
:1019A00000F06EFE5021206807E016E0CA68496822
:1019B000206800F076FE6021206800F059FE84F86F
:1019C0003D50002084F83C0070BDCA68496820681A
:1019D00000F056FE40212068EFE7226801461046DD
:1019E000EBE7000070B5FEF7F5FD0A4D4FF400740B
:1019F000002221462846FEF7E0FFBE20FEF71EFE2D
:101A000021462846FEF766FEBDE870402820FEF716
:101A100015BE0000000C01402DE9F04104460026EF
:101A2000FFF7E0FF204600F02FF8FEF7C1FDDFF8DA
:101A3000548000254FF40077C82401E0012C1ED00B
:101A400039464046FEF7B4FF10B1641EA4B2F5D289
:101A50002B20FEF7F3FD39464046FEF7A9FFA840CC
:101A60003043C6B26820FEF7E9FD6D1CEDB2082DCB
:101A7000E2D3BE20FEF7E2FD3046BDE8F081FF2054
:101A8000FBE70000000C01402DE9F0410546FEF7A0
:101A9000A1FD174F00244FF400760022314638464E
:101AA000FEF78BFF2020FEF7C9FD25FA04F0C007E2
:101AB00001D0012200E0002231463846FEF77DFFCA
:101AC0002B20FEF7BBFD012231463846FEF775FF9D
:101AD0007820FEF7B3FD641CE4B2082CDDD3314658
:101AE0003846FEF7F7FDBDE8F0417820FEF7A6BDC9
:101AF000000C0140FEE7000010B504490448FEF761
:101B0000B4FD0249491E087010BD000069000020A4
:101B1000540000202DE9F04186B000242F480094A5
:101B2000019402940394816941F0100181618169FB
:101B300001F010010491816941F020018161816906
:101B400001F020010491816941F004018161816902
:101B500001F004010491816941F00801816180690B
:101B60001F4F00F00800049000220F213846FEF7B6
:101B700024FFDFF87080002241F60B614046FEF73B
:101B80001CFF01224FF418413846FEF716FF0122D0
:101B900070214046FEF711FF49F60F00012502268D
:101BA000CDE90005CDE9024669463846FEF710FE4C
:101BB0004020CDE90004694638460294FEF708FE4D
:101BC00041F67B60CDE90005CDE902466946404615
:101BD000FEF7FEFD06B0BDE8F081000000100240F7
:101BE00000080140000C01401CB500241A48019473
:101BF000184900940160611E416080218160FFF7F7
:101C000057FB08B172B6FEE78DF8044029208DF825
:101C100005008DF80640012201A90F48FFF714FCCA
:101C200008B172B6FEE706208DF8000001208DF89D
:101C3000010007208DF8020022208DF80300012208
:101C400069460548FFF79EFB002801D072B6FEE703
:101C50001CBD000000280040880000200F4810B57F
:101C60000D4901604FF48271416000218160C160C3
:101C70004FF400720161C0E905120822C0E9072192
:101C8000416281620A21C162FFF751FC002801D044
:101C900072B6FEE710BD0000003001409C0000203D
:101CA0000F4810B50D4901604FF482714160002169
:101CB0008160C1604FF400720161C0E90512102219
:101CC000C0E90721416281620A21C162FFF72FFC4E
:101CD000002801D072B6FEE710BD000000380040B9
:101CE000F400002010B586B0002417480094019439
:101CF0000294039404941349059401602321C0E9DC
:101D000001144FF6FE71C0E9031444618461FFF7CA
:101D1000BBFD08B172B6FEE74FF4805000906946F3
:101D20000948FFF7F3FD08B172B6FEE7049404A971
:101D300005480594FFF774FD002801D072B6FEE750
:101D400006B010BD002C01404C010020FEE7FEE76C
:101D50007047000038B5002210491148FFF73BFAE0
:101D60000E490022C91D0E48FFF70EFA0B4C0DA1BB
:101D700004F10B0063782278FEF72AFAE01DC1789F
:101D800001F5FA6100914378827809A10C48FEF7C9
:101D90001FFAA4F10D01A078888038BD2D00002025
:101DA00088000020253032643A253032640000007B
:101DB000253032642D253032642D25326400000038
:101DC0007B020020010901EB810100F00F0000EB14
:101DD0004100C0B27047002102E00A38C0B2491C7D
:101DE0000A28FAD2090740EA116070472DE9F0414C
:101DF00004460025C07B627BA37B42E0012A16D00B
:101E0000032A14D0052A12D0072A10D0082A0ED08F
:101E10000A2A0CD00C2A0AD0042A10D0062A0ED086
:101E2000092A0CD00B2A0AD0022A0DD028E01F2B39
:101E30000CD30C2A05D101221346401C20E01E2B96
:101E400004D30123521C1BE01C2B02D203F101031B
:101E500016E011D183B29E0710D16426B3FBF6F7CA
:101E600006FB173636B94FF4C876B3FBF6F706FB18
:101E700017331BB91D2303E01D2B01D103220123BE
:101E80006D1C8D42BAD3D1B2E0736173DAB2A27322
:101E900000F050F82073BDE8F08170B50446FEF7FD
:101EA00091FD05464FF47A7606E0FEF78BFD401B68
:101EB000B04201D9032070BD206840688006F4D587
:101EC0002068416841F010014160002070BD0000B1
:101ED00070B504460068416821F010014160FEF7CA
:101EE00071FD05464FF47A7607E000BFFEF76AFD04
:101EF000401BB04201D9032070BD206840688006B5
:101F0000F4D5002070BD0168086A496A89B241EAC7
:101F100000407047006881698AB2C1698BB28169EB
:101F200089B28A4203D0C06961F31F40704743EA17
:101F300002407047F0B56424C1EBC1030927A50036
:101F4000072603EB01130329B3FBF7F100F5FA6051
:101F5000114401440AD2401EB0FBF4F201EB90019F
:101F6000B0FBF5F0891A0844001D08E0B0FBF4F25C
:101F700001EB9001B0FBF5F0891A0844801CB0FB1E
:101F8000F6F106FB1100C0B2F0BD70B50D46064675
:101F90000024FFF782FF48B93168280C08623168D5
:101FA000A8B248623046FFF793FF00B101242046F3
:101FB00070BD70B50D4606460024FFF76EFF48B9A8
:101FC0003168280C88613168A8B2C8613046FFF7D3
:101FD0007FFF00B10124204670BD38B50B4600924A
:101FE00004460022802100F009F8002804D0606D2A
:101FF00040F020006065032038BD00002DE9F84363
:102000001E46914688460446089DFEF7DBFC401BB1
:10201000351AFEF7D7FC074625480068C0F3CB30D9
:10202000684338E0701C37D0FEF7CCFCC01BA842D8
:1020300003D215B1009860B32CE02068416821F00C
:10204000E00141606068B0F5827F0BD1A068B0F517
:10205000004F02D0B0F5806F04D12068016821F0F4
:1020600040010160A06AB0F5005F09D120680168F5
:1020700021F4005101602068016841F400510160C1
:10208000012084F85100002084F850000320BDE8AE
:10209000F8830025401E00902068816838EA01001E
:1020A00004D000214945BDD10020F0E70121F9E726
:1020B0004C0000202DE9F05F05461A480C46984672
:1020C000B0F9061091468D422ADAB0F90400844234
:1020D00026DA05EB09077F1E8F4221DA04EB08069A
:1020E000761E86421CDADFF840B04FF4006A002208
:1020F00051465846FEF761FCF3B2FAB2E1B2E8B2DB
:1021000000F094F94FEA490101FB08F10A9800F048
:1021100015FA51465846BDE8F05F0122FEF74DBC66
:10212000BDE8F09F14000020000C01402DE9F05F95
:102130000C4606461546191BA2EB060000D549427F
:10214000002800DA4042814207DD304626461D461F
:102150004FF001080446134601E04FF00008AE427C
:1021600005DD30462E46054620461C460346A81B84
:102170000FFA80F9181B00D540420FFA80FB09EBDB
:10218000D97047109C4201DA012001E04FF0FF3086
:10219000824617E0B8F1000F02D0B1B2A0B201E060
:1021A000A1B2B0B20A9A00F011F8A7EB0B0007B287
:1021B000002F05DA04EB0A0004B207EB090007B2AE
:1021C000761C36B2AE42E5DDBDE8F09F2DE9F8435E
:1021D000054616480C461646B0F906108D4222DA1E
:1021E000B0F9040084421EDADFF844804FF400673F
:1021F000002239464046FEF7E0FB601CC3B2681C73
:10220000C2B2E1B2E8B200F011F9300A8DF8000074
:102210008DF801600221684600F090F901223946EC
:102220004046FEF7CAFBBDE8F8830000140000201A
:10223000000C01402DE9FE4FDFF874B014460E4645
:1022400005464FF4006A9846002251465846FEF76C
:10225000B4FBDFF8609008F0FF071EE0B9F9063024
:10226000791999420BDBC8F307218B199EB2B9F992
:10227000040000253144814212DA202A0CD0DDE925
:102280000D01CDE901010C980090434631462846E6
:1022900000F0F8F8781985B2641C2278002ADDD1A4
:1022A00003B051465846BDE8F04F0122FEF785BB0A
:1022B000000C0140140000202DE9F04110F8015BF2
:1022C000044617E0207800F025F96078A41C00F09F
:1022D000800730F0800604D03146204600F02EF909
:1022E00034443FB114F8010BFF2801D14FF4FA70C8
:1022F000FEF7DEF96D1EEDB2E4D2BDE8F08100001C
:102300002DE9F84F074629480E46DDF82880B0F938
:1023100006101C4615468F4246DAB0F90400864284
:1023200042DA7A19521E8A4201DBC91B8DB2311979
:10233000491E814201DB801B84B2DFF874904FF4A8
:10234000006A002251464846FEF737FB3019401E0E
:10235000C3B27819401EC2B2F1B2F8B200F066F80A
:102360004FEA18208DF8000001228DF801809102BB
:102370004846FEF722FB26464FF0FF370DE02C467D
:1023800007E03B46022269460A48FFF781F9641ECE
:10239000A4B2002CF5D1761EB6B2002EEFD10122E8
:1023A00051464846FEF709FBBDE8F88F14000020AF
:1023B000000C01409C00002008B500900448818872
:1023C000C0888BB282B200210846FFF799FF08BD92
:1023D0001400002070B5134D4FF400640022214614
:1023E0002846FEF7EAFA002202212846FEF7E5FA1F
:1023F0001420FEF75DF9012202212846FEF7DDFADE
:102400000948FFF759FF08483B30FFF755FF0648DA
:102410004830FFF751FF21462846BDE870400122B1
:10242000FEF7CBBA000C01406C480008F8B5044632
:102430001D4616460F462A2000F06CF82146104C27
:1024400000200090607801448DF8011030448DF830
:1024500003000421684600F071F82B2000F05AF8C0
:10246000A07839188DF8011028448DF80300042154
:10247000684600F063F82C2000F04CF8F8BD00002E
:10248000140000200FB42DE9FF5F4A1EC3F3072696
:102490003244D4B2DFB2421EDDE913A93A44D2B2CB
:1024A000C9B2C0B22346FFF7C1FF00252CE0109847
:1024B0001299203800FB0650002431F810804FEAB2
:1024C0001A2002900AF0FF0001904FEA192009F04B
:1024D000FF0B009015E000BF08FA04F0000406D5D9
:1024E00002988DF80C0001988DF80D0004E000981A
:1024F0008DF80C008DF80DB0022103A800F01EF835
:10250000641CA742E8D86D1CAE42D0D8BDE8FF1FBE
:102510005DF814FB01B500224FF480610548FEF719
:102520004CFA4FF0FF33012269460348FFF7B0F839
:1025300008BD0000000C01409C00002070B50D4655
:102540000446012291020648FEF737FAAAB2214654
:10255000BDE870404FF0FF330248FFF799B8000024
:10256000000C01409C0000207047FEF731BA70B5A6
:1025700094B028216846FDF73FFF14210AA8FDF713
:102580003BFF00250F95092001241095009011951F
:1025900012954FF4803004940694CDE9010502268B
:1025A000CDE907604FF4E01009906846FEF75CFC47
:1025B00008B172B6FEE70F20CDE90A064FF480603D
:1025C000CDE90C5002210AA80E95FEF76BFB08B16D
:1025D00072B6FEE74FF40070CDE90F400FA8FEF78A
:1025E000EBFA002801D072B6FEE714B070BD704758
:1025F000F0B50268164B174C174D4FF080479842C4
:1026000005D0B84203D0A04201D0A84203D122F0A5
:1026100070064A683243984205D0B84203D0A042BF
:1026200001D0A84203D122F44074CA6822434C6905
:1026300022F08002224302608A68C2620A688262D3
:10264000984201D10969016301214161F0BD000097
:10265000002C0140000400400008004010B58468D0
:1026600042EA032224F47F440A432243826010BDDD
:10267000826822F070020A4342F0070181607047CD
:1026800010B5036A046A24F001040462846924F02A
:10269000F00444EA021423F00A020A43846102624D
:1026A00010BD10B5036A23F0100303628369046A46
:1026B00023F4704343EA023224F0A00343EA0111F9
:1026C0008261016210BD00000248012101700078A2
:1026D0007047000050000020012070470020704724
:1026E000024801210170007870470000500000206E
:1026F00000207047FEE70907090E002804DB00F1FF
:10270000E02080F80014704700F00F0000F1E02096
:1027100080F8141D704730380A2801D20120704714
:1027200000207047FEB500F059F81D4C0546022800
:1027300002D0012D03D005E06078401E01E06078F2
:10274000401C60706078012804D0022804D003285F
:1027500006D117E013A100E016A11A48FDF738FDD5
:1027600019484FF61F071F26CDE901674168009100
:102770000368144A0A210D20FFF75CFD052D03D0E4
:102780000020FEBD11A1E8E73846FFF715FE5922EB
:102790000023A02110460096FFF7C8FC6078FEBD1C
:1027A000000000205A4F524C554B203A204B4F4CC2
:1027B000415900005A4F524C554B203A204F525429
:1027C0004120000070000020040000205A4F524CAD
:1027D000554B203A205A4F52202000002DE9F04757
:1027E000394C04212046FEF7E3F8824608212046B2
:1027F000FEF7DEF8814602212046FEF7D9F8804632
:1028000001212046FEF7D4F8064640212046FEF777
:10281000CFF82E4F054601213846FEF7C9F801468C
:10282000BAF1010F0ED0B9F1010F16D0B8F1010FB6
:102830001ED0012E27D0012D30D0012939D0002003
:10284000BDE8F08704212046FEF7B2F80028F9D150
:102850000A20FDF72DFF0120F2E708212046FEF7B0
:10286000A7F80028F9D10A20FDF722FF0220E7E7A8
:1028700002212046FEF79CF80028F9D10A20FDF736
:1028800017FF0320DCE701212046FEF791F800281E
:10289000F9D10A20FDF70CFF0420D1E740212046A2
:1028A000FEF786F80028F9D10A20FDF701FF052080
:1028B000C6E701213846FEF77BF80028F9D10A2047
:1028C000FDF7F6FE0620BBE700080140000C0140C2
:1028D0002DE9F74FA84A044682B00420107000206A
:1028E0005FF00101C0EBC00303EB43032344401C32
:1028F000D9740B28F6DB4FF0FF3900BFFFF76EFFEE
:10290000032802D0042827D04CE09B4D2878C0EB48
:10291000C00101EB41010A1902EB090191F85410C1
:1029200001293FD0062801D9062028700A20FDF78A
:10293000BFFE28784FF61F01401CC0B228704FF62A
:10294000FF72009102EAC9016FF0060202EBC000BB
:10295000072380B2082221E0874D2878C0EBC00110
:1029600001EB41010A1902EB090111F8151C0129BB
:1029700016D008B9012028700A20FDF799FE2878A2
:102980004FF61F01401EC0B228704FF6FF72009133
:10299000C00002EAC901072308222030FFF7B0FC7B
:1029A000A9F10109744D2878C0EBC00000EB40008C
:1029B000011911F8090001284FD001EB0900417DF0
:1029C00001294AD090F82A10012946D090F83F00FA
:1029D000012842D00498FDF76BFE1F2700972A7844
:1029E0004FEAC9064FF00108083608EBC20007237A
:1029F000B1B21A46FFF784FC00972878092202EB4F
:102A0000C0000723B1B21A46FFF77AFC0097287876
:102A1000112202EBC0000723B1B21A46FFF770FC87
:102A200000972878192202EBC0000723B1B21A469A
:102A3000FFF766FC4FF61F0000902A784FF6FF71F3
:102A400008EBC20001EAC90107231F22FFF758FC67
:102A50004FF0000A4FF0120829E0474901200A7898
:102A6000C2EBC20202EB4202131903EB090202F8A5
:102A7000010C0A78C2EBC20202EB4202131903EB0B
:102A8000090210750A78C2EBC20202EB4202131966
:102A900003EB090282F829000978C1EBC10101EBBF
:102AA00041010A1902EB090181F83E0060E00027AC
:102AB000C7EBC70000EB4000011911F80800D8B3BC
:102AC0000AF1010000F0FF0ABAF10B0F34D10398AC
:102AD0004FF0000A0A3080B203905FEA08052BD459
:102AE0004FF61F000090E80000F1080B1FFA8BF171
:102AF000072359220020FFF703FC0026C6EBC6007F
:102B000000EB40000219511911F8010D5055002237
:102B10000A7001280BD11F200090012000EBC60095
:102B200007231FFA8BF180B21A46FFF7E9FB761CE8
:102B30000B2EE3DB6D1ED3D57F1C0B2FB8DBA8F16A
:102B400001084FF0000AB8F1000FB0DC5FF00000A0
:102B5000C0EBC00101EB4101615C012902D0401CC6
:102B60000B28F5DB09F10109B9F1140FFFF6C6AE28
:102B7000039805B0BDE8F08F000000202DE9F74F65
:102B8000A44A044682B00420107000205FF00101C6
:102B9000C0EBC00303EB43032344401CD9740B2850
:102BA000F6DB4FF0FF3800BFFFF718FE032802D016
:102BB000042827D04CE0974D2978C1EBC10000EBE9
:102BC0004000021902EB080090F8540001283FD0A1
:102BD000092901D9092028700A20FDF769FD287804
:102BE0004FF61F01401CC0B228704FF6FF720091D3
:102BF00002EAC8016FF0060202EBC0001F2380B298
:102C0000082221E0834D2878C0EBC00101EB41018F
:102C10000A1902EB080111F8151C012916D008B990
:102C2000012028700A20FDF743FD28784FF61F0188
:102C3000401EC0B228704FF6FF720091C00002EA39
:102C4000C8011F2308220830FFF75AFBA8F101082A
:102C5000704E3078C0EBC00000EB4000011901EB72
:102C60000800C078012849D00498FDF721FD4FEAFB
:102C7000C8054FF01F0905F1080081B2CDF800909A
:102C800030780127072307EBC0001A46FFF738FB0F
:102C900005F1100081B2CDF800903078072307EBE2
:102CA000C0001A46FFF72CFB05F1180081B2CDF8E1
:102CB00000903078072307EBC0001A46FFF720FB8F
:102CC000CDF80090307820350723A9B207EBC0007B
:102CD0001A46FFF715FB4FF61F00009030784FF6AD
:102CE000FF71072301EAC80107EBC0001A46FFF78E
:102CF00007FB4FF0000A4FF0120926E0454901207A
:102D00000A78C2EBC20202EB4202131903EB08027B
:102D100002F8010C0A78C2EBC20202EB420213195C
:102D200003F808000A78C2EBC20202EB4202131950
:102D300003EB080250700978C1EBC10101EB4101BE
:102D40000A1902EB0801887060E00027C7EBC70092
:102D500000EB4000011911F80900D8B30AF1010095
:102D600000F0FF0ABAF10B0F34D103984FF0000ABC
:102D70000A3080B203905FEA09052BD44FF61F009A
:102D80000090E80000F1080B1FFA8BF1072359228D
:102D90000020FFF7B5FA0026C6EBC60000EB4000A6
:102DA0002044411911F8012D425500200870012AD4
:102DB0000BD11F200090012000EBC60007231FFA53
:102DC0008BF180B21A46FFF79BFA761C0B2EE3DBE1
:102DD0006D1ED3D57F1C0B2FB8DBA9F101094FF075
:102DE000000AB9F1000FB0DC5FF00000C0EBC001D9
:102DF00001EB4101615C012902D0401C0B28F5DB8D
:102E000008F10108B8F1140FFFF6CEAE039805B033
:102E1000BDE8F08F000000202DE9F74FB74A0446C7
:102E200082B00420107000205FF00101C0EBC003ED
:102E300003EB43032344401CD9740B28F6DB4FF00B
:102E4000FF3900BFFFF7CAFC032802D0042827D0AF
:102E50004DE0AA4D2978C1EBC10000EB40000219FA
:102E600002EB090090F82A00012840D0082901D976
:102E7000082028700A20FDF71BFC28784FF6FF7108
:102E8000401CC2B22A704FF61F0000906FF006007F
:102E900000EBC2000F2301EAC90180B2072222E041
:102EA000964D2978C1EBC10000EB4000021902EBFE
:102EB000090010F8150C012819D009B90120287053
:102EC0000A20FDF7F5FB28784FF61F01401EC0B21F
:102ED00028704FF6FF72009102EAC901092202EB45
:102EE000C0000F231A46FFF70BFAA9F10109834D21
:102EF0002878C0EBC00000EB4000011901EB09008D
:102F0000417801296ED0807D01286BD00498FDF7AF
:102F1000CFFB4FF01F08CDF800802A784FEAC90692
:102F20004FF0010A06F108070AEBC2000723B9B205
:102F30001A46FFF7E5F9CDF800802A784FF0090B23
:102F40000BEBC2000723B9B21A46FFF7D9F906F115
:102F50001000CDF800802A78074681B20AEBC20043
:102F600007231A46FFF7CCF9CDF800802A7807230B
:102F70000BEBC200B9B21A46FFF7C2F94FF61F08B1
:102F8000CDF800802A784FF6FF7101EAC9010AEBFB
:102F9000C20007230F461A46FFF7B2F9CDF80080AA
:102FA0002A7807230BEBC20039461A46FFF7A8F927
:102FB000CDF800802A78083E0AEBC2000723B1B2A0
:102FC0001A46FFF79DF9CDF800802A7807230BEB0E
:102FD000C200B1B21A46FFF793F94FF0000A4FF062
:102FE000120826E0454901200A78C2EBC20202EB32
:102FF0004202131903EB090202F8010C0A78C2EB32
:10300000C20202EB4202131903EB090210750A789F
:10301000C2EBC20202EB4202131903F8090009785D
:10302000C1EBC10101EB41010A1902EB090148752D
:1030300060E00027C7EBC70000EB4000011911F862
:103040000800D8B30AF1010000F0FF0ABAF10B0F33
:1030500034D303984FF0000A0A3080B203905FEA3D
:1030600008052BD44FF61F000090E80000F1080B74
:103070001FFA8BF1072359220020FFF741F90026A0
:10308000C6EBC60000EB40002044411911F8012DA9
:10309000425500200870012A0BD11F20009001200A
:1030A00000EBC60007231FFA8BF180B21A46FFF728
:1030B00027F9761C0B2EE3DB6D1ED3D57F1C0B2F5F
:1030C000B8DBA8F101084FF0000AB8F1000FB0DC3E
:1030D0005FF00000C0EBC00101EB4101615C012920
:1030E00002D0401C0B28F5DB09F10109B9F1140FDE
:1030F000FFF6A8AE039805B0BDE8F08F00000020F1
:1031000070B5324D002210212846FDF756FC4FF4D1
:10311000FA742046FDF7CCFA012210212846FDF76B
:103120004CFC002220212846FDF747FC2046FDF7F5
:10313000BFFA012220212846FDF73FFC0022402152
:103140002846FDF73AFC2046FDF7B2FA012240215D
:103150002846FDF732FC012208212846FDF72DFC08
:103160002046FDF7A5FA002208212846FDF725FC98
:10317000174D4FF40046002231462846FDF71DFC4E
:103180002046FDF795FA012231462846FDF715FC49
:10319000EE14002231462846FDF70FFC2046FDF7CD
:1031A00087FA012231462846FDF707FCAE140022BB
:1031B00031462846FDF701FC2046FDF779FA3146F5
:1031C0002846BDE870400122FDF7F7BB000C014026
:1031D000000801400EB5FDF703FCFFF7C8F9FEF744
:1031E00099FCFEF73BFDFEF7FFFCFEF759FDFEF7ED
:1031F00083FCFEF777FD012251035D48FDF7DDFBFF
:10320000FDF7FAF9FFF7E6F84FF6FF70FFF7D4F88D
:10321000584800902623422234211E20FEF74AFF00
:10322000FFF76EFF002210215348FDF7C6FB002276
:103230004FF480515148FDF7C0FB4FF61F0528465B
:10324000FFF7BAF81F27DFF83891DFF8388103E07D
:10325000FFF768FA88F8000098F800000028F7D017
:10326000C0B24446012804D0022804D0032804D167
:103270005FE0962000E064208246FEF76BFD2C2084
:10328000FEF7CAFB60702D20FEF7C6FBA0706178C8
:1032900001EB002082B2501E2281632804D83948F5
:1032A00039A10A30FCF794FF394ECDE901757068F9
:1032B0000090344A962118325C203368FEF7BAFF3A
:1032C000A1880322B1FBF2F302FB1310A080CDE929
:1032D0000175706800902B4A8C210A326220336895
:1032E000FEF7A8FF2748E2882AA11030FCF770FFFC
:1032F0000020CDE901057068009027A205215F201C
:103300003368FEF797FFE088CDE90175D9F804101E
:1033100000911C4A0028D9F80030484602F11002FA
:103320004FF0100107D06220FEF784FFA08820B183
:1033300009E03220A0E76920F6E75246E188184804
:10334000FFF76AFDE080A088012805D15246E18898
:103350001348FFF7BDFAE080A08802287FF477AF1A
:103360005246E1880E48FFF709FCE08074E7000050
:1033700000100140E0480008000C01400008014036
:103380000C000020200000202525256400000000FE
:103390000400002025640000534B4F520000000041
:1033A0009401002000000000000000000000000068
:1033B00000000000000000000010001000100010CD
:1033C000001000100000001000000000002800287D
:1033D00000280000000000000000000000000000C5
:1033E00000240024007C00240048007C00480048A1
:1033F0000000000000380054005000380014005451
:103400000054003800100000002000540058003024
:1034100000280054001400080000000000100028DC
:10342000002800100034004800480034000000006C
:10343000001000100010000000000000000000005C
:1034400000000000000800100020002000200020E4
:1034500000200020001000080020001000080008D4
:1034600000080008000800080010002000100038C4
:103470000010002800000000000000000000000014
:103480000000000000100010007C00100010000080
:10349000000000000000000000000000000000002C
:1034A00000000010001000100000000000000000EC
:1034B00000000038000000000000000000000000D4
:1034C00000000000000000000000001000000000EC
:1034D000000800080010001000100010002000205C
:1034E0000000000000380044004400540044004440
:1034F00000440038000000000010003000500010B0
:1035000000100010001000100000000000380044FF
:1035100000440004000800100020007C00000000AF
:10352000003800440004001800040004004400387F
:103530000000000000080018002800280048007C57
:103540000008000800000000007C004000400078F7
:10355000000400040044003800000000003800446B
:10356000004000780044004400440038000000009F
:10357000007C000400080010001000200020002043
:1035800000000000003800440044003800440044BB
:1035900000440038000000000038004400440044AB
:1035A000003C00040044003800000000000000005F
:1035B00000100000000000000000001000000000EB
:1035C00000000000000000100000000000000010DB
:1035D0000010001000000000000C0030004000301F
:1035E000000C000000000000000000000000007C53
:1035F0000000007C0000000000000000000000004F
:1036000000600018000400180060000000000000C6
:1036100000380044000400080010001000000010F2
:103620000000000000380044004C0054005C0040E2
:10363000004000380000000000100028002800288A
:103640000028007C00440044000000000078004492
:10365000004400780044004400440078000000006A
:103660000038004400400040004000400044003862
:103670000000000000700048004400440044004482
:103680000048007000000000007C00400040007C0A
:10369000004000400040007C00000000007C004032
:1036A0000040007800400040004000400000000062
:1036B0000038004400400040005C004400440038F2
:1036C00000000000004400440044007C004400442A
:1036D00000440044000000000038001000100010FA
:1036E000001000100010003800000000000400046A
:1036F000000400040004000400440038000000003E
:103700000044004800500060005000480048004459
:103710000000000000400040004000400040004029
:103720000040007C000000000044006C006C00546D
:1037300000440044004400440000000000440064D1
:10374000006400540054004C004C00440000000091
:103750000038004400440044004400440044003861
:10376000000000000078004400440044007800405D
:1037700000400040000000000038004400440044C5
:103780000044004400540038000400000078004465
:103790000044004400780048004800440000000055
:1037A00000380044004000300008000400440038A5
:1037B00000000000007C001000100010001000103D
:1037C00000100010000000000044004400440044C9
:1037D000004400440044003800000000004400445D
:1037E00000440028002800280010001000000000FD
:1037F00000440044005400540054006C0028002889
:1038000000000000004400280028001000100028DC
:103810000028004400000000004400440028002864
:10382000001000100010001000000000007C0004D8
:1038300000080010001000200040007C0000000084
:1038400000180010001000100010001000100010F0
:1038500000100018002000200010001000100010C0
:1038600000080008000000000030001000100010E8
:103870000010001000100010001000300010002890
:1038800000280044000000000000000000000000CC
:103890000000000000000000000000000000000028
:1038A000000000FE002000100000000000000000EA
:1038B000000000000000000000000000003800448C
:1038C000003C0044004C0034000000000040004078
:1038D00000580064004400440064005800000000E8
:1038E0000000000000380044004000400044003860
:1038F00000000000000400040034004C00440044B8
:10390000004C0034000000000000000000380044BB
:10391000007C00400044003800000000000C001053
:10392000007C0010001000100010001000000000CB
:10393000000000000034004C00440044004C0034FF
:103940000004007800400040005800640044004437
:10395000004400440000000000100000007000104F
:103960000010001000100010000000000010000007
:10397000007000100010001000100010001000E097
:1039800000400040004800500060005000480044E3
:103990000000000000700010001000100010001067
:1039A000001000100000000000000000007800542B
:1039B00000540054005400540000000000000000B7
:1039C000005800640044004400440044000000002B
:1039D0000000000000380044004400440044003867
:1039E0000000000000000000005800640044004493
:1039F0000064005800400040000000000034004C0B
:103A000000440044004C00340004000400000000A6
:103A100000580064004000400040004000000000EA
:103A20000000000000380044003000080044003866
:103A3000000000000020002000780020002000206E
:103A400000200018000000000000000000440044B6
:103A500000440044004C003400000000000000005E
:103A60000044004400280028002800100000000046
:103A700000000000005400540054006C002800288E
:103A800000000000000000000044002800100010AA
:103A90000028004400000000000000000044004432
:103AA0000028002800100010001000600000000036
:103AB000007C0008001000200040007C0000000096
:103AC000001800100010001000200020001000104E
:103AD000001000180010001000100010001000105E
:103AE0000010001000100010003000100010001036
:103AF0000008000800100010001000300000000056
:103B000000000074004C00000000000000000000F5
:103B100000000000000000000000000000000000A5
:103B20000000000000000000000000000000000095
:103B3000000000000000000C000C000C000C000C49
:103B4000000C000C000C000C000C000C0000000C21
:103B5000000C0000000000000000001B001B001B08
:103B6000001B001B0000000000000000000000001F
:103B700000000000000000000000000000008019AC
:103B8000801980198019C07FC07F80190033C07FE1
:103B9000C07F00330033003300330000000000001A
:103BA0000000001E003F807580650074003C001E10
:103BB00000078005806580658075003F001E000459
:103BC000000400000000007000D840D8C0D880D9A0
:103BD00000730006000C801BC036C066C046C006DD
:103BE00080030000000000000000001E003F0033C2
:103BF00000330033001E000CC03CC066806380614F
:103C00008063C03E801C0000000000000000000C2B
:103C1000000C000C000C000C000000000000000074
:103C20000000000000000000000000000000000094
:103C3000800000010003000600060004000C000CD8
:103C4000000C000C000C000C000400060006000331
:103C500000018000002000100018000C000C00047F
:103C60000006000600060006000600060004000C20
:103C7000000C0018001000200000000C002D003F78
:103C8000001E0033000000000000000000000000E3
:103C90000000000000000000000000000000000024
:103CA0000000000C000C000C000CC0FFC0FF000C5A
:103CB000000C000C000C00000000000000000000E0
:103CC00000000000000000000000000000000000F4
:103CD00000000000000000000000000C000C0004C8
:103CE00000040008000000000000000000000000C8
:103CF000000000000000001E001E00000000000088
:103D000000000000000000000000000000000000B3
:103D100000000000000000000000000000000000A3
:103D20000000000C000C0000000000000000000378
:103D3000000300030006000600060006000C000C4D
:103D4000000C000C00180018001800000000000013
:103D50000000001E003F0033806180618061806D43
:103D6000806D8061806180610033003F001E000033
:103D70000000000000000006000E001E00360026B5
:103D80000006000600060006000600060006000603
:103D900000060000000000000000001E003F8073CD
:103DA00080618061800100030006000C0018003073
:103DB0000060807F807F0000000000000000001C89
:103DC000003E006300630003000E000E000380014C
:103DD000800180618073003F001E00000000000031
:103DE00000000006000E000E001E001E0016003629
:103DF00000360066807F807F000600060006000017
:103E0000000000000000007F007F00600060006094
:103E1000006E007F80638001800180618073003FBD
:103E2000001E0000000000000000001E003F803364
:103E300080610060006E007F8073806180618061BE
:103E40008033003F001E0000000000000000807F63
:103E5000807F80010003000300060006000C000CB8
:103E6000000C0008001800180018000000000000F6
:103E70000000001E003F8063806180610021001E01
:103E8000003F8061806180618061003F001E000012
:103E9000000000000000001E003F00738061806190
:103EA00080618073803F801D800180610073003FCE
:103EB000001E0000000000000000000000000000E4
:103EC0000000000C000C00000000000000000000DA
:103ED0000000000C000C00000000000000000000CA
:103EE0000000000000000000000C000C00000000BA
:103EF000000000000000000C000C0004000400089A
:103F0000000000000000000080008003000E003868
:103F100000600038000E80038000000000000000F8
:103F20000000000000000000000000000000807F92
:103F3000807F00000000807F807F00000000000084
:103F40000000000000000000000000000000000071
:103F500000400070001C000780010007001C00707A
:103F60000040000000000000000000000000001FF2
:103F7000803FC071C060C000C00180030007000E18
:103F8000000C000C0000000C000C00000000000001
:103F90000000001E003F803180718063806F806D63
:103FA000806D806F806700600032003E001C000062
:103FB000000000000000000E000E001B001B001B94
:103FC000001B80318031803F803F8031C060C06005
:103FD000C0600000000000000000007C007E006364
:103FE000006300630063007E007E00638061806187
:103FF0008063007F007E0000000000000000001EC3
:10400000003F8031806100600060006000600060FF
:10401000006080618031003F001E00000000000051
:104020000000007C007F00638063806180618061AC
:1040300080618061806100630063007E007C00001D
:10404000000000000000807F807F00600060006052
:104050000060007F007F0060006000600060807F83
:10406000807F0000000000000000807F807F0060F3
:10407000006000600060007F007F00600060006002
:104080000060006000600000000000000000001EF2
:10409000003F803180610060006000608063806369
:1040A000806180618031803F001E000000000000C0
:1040B0000000806180618061806180618061807FBB
:1040C000807F8061806180618061806180610000AB
:1040D000000000000000003F003F000C000C000C3E
:1040E000000C000C000C000C000C000C000C003F3D
:1040F000003F0000000000000000800180018001FE
:1041000080018001800180018001800180618061E7
:104110008073003F001E0000000000000000C0602F
:104120008061006300660066006C0078007C0066B9
:104130000066006380618061C060000000000000D4
:1041400000000060006000600060006000600060CF
:1041500000600060006000600060807F807F000081
:10416000000000000000C071C071C07BC07AC06A4E
:10417000C06AC06EC064C060C060C060C060C06023
:10418000C060000000000000000080718071807934
:1041900080798079806D806D806D806580678067B3
:1041A0008067806380630000000000000000001E44
:1041B000003F003380618061806180618061806147
:1041C000806180610033003F001E0000000000009D
:1041D0000000007E007F8063806180618061806379
:1041E000007F007E006000600060006000600000F2
:1041F000000000000000001E003F0033806180616D
:104200008061806180618061806580670033803F6C
:10421000401E0000000000000000007E007F806360
:10422000806180618063007F007E006600630063C0
:1042300080618061C0600000000000000000000E8E
:10424000001F8031803100300038001E00078003DD
:10425000806180618031003F001E0000000000008E
:104260000000C0FFC0FF000C000C000C000C000C94
:10427000000C000C000C000C000C000C000C0000EA
:1042800000000000000080618061806180618061C9
:104290008061806180618061806180618073003FA6
:1042A000001E0000000000000000C060C060C06090
:1042B000803180318031001B001B001B001B000E71
:1042C000000E000E00040000000000000000C0C04E
:1042D000C0C0C0C0C0C0C0C0C0CC804C804C805EDC
:1042E0008052805280738061806100000000000075
:1042F0000000C0C0806080610033003B001E000CE5
:10430000000C001E001F003B80718061C0C00000D7
:10431000000000000000C0C08061806100330033F5
:10432000001E001E000C000C000C000C000C000C09
:10433000000C0000000000000000803F803F800172
:10434000000300030006000C000C001800180030E9
:104350000060807F807F000000000000000F000FE1
:10436000000C000C000C000C000C000C000C000CED
:10437000000C000C000C000C000C000C000F000FD7
:104380000000001800180018000C000C000C000CB5
:1043900000060006000600060003000300030000FC
:1043A00000000000001E001E0006000600060006B9
:1043B00000060006000600060006000600060006CD
:1043C00000060006001E001E0000000C000C001E6F
:1043D00000120033003380618061000000000000A3
:1043E00000000000000000000000000000000000CD
:1043F00000000000000000000000000000000000BD
:10440000000000000000000000000000E0FF0000CD
:10441000000000380018000C000000000000000040
:10442000000000000000000000000000000000008C
:104430000000000000000000000000000000001F5D
:10444000803F80618001801F803F80618063807F2A
:10445000C038000000000000000000600060006044
:104460000060006E007F8073806180618061806188
:104470008073007F006E000000000000000000005C
:10448000000000000000001E003F8073806100609B
:10449000006080618073003F001E0000000000008B
:1044A00000008001800180018001801D803F8073B9
:1044B00080618061806180618073803F801D000029
:1044C0000000000000000000000000000000001ECE
:1044D000003F00738061807F807F00608071003FBB
:1044E000001E0000000000000000C007C00F000C0C
:1044F000000C807F807F000C000C000C000C000C76
:10450000000C000C000C0000000000000000000087
:1045100000000000801D803F8073806180618061A9
:1045200080618073803F801D80018063007F003E3A
:1045300000000060006000600060006F807F80719C
:104540008061806180618061806180618061000044
:104550000000000000000006000600000000003E11
:10456000003E0006000600060006000600060006E3
:104570000006000000000000000600060000000029
:10458000003E003E0006000600060006000600068B
:104590000006000600060046007E003C00000060A9
:1045A000006000600060806100630066006C007C59
:1045B0000076006300638061C060000000000000BE
:1045C0000000003E003E0006000600060006000651
:1045D00000060006000600060006000600060000B1
:1045E000000000000000000000000000000080DD6E
:1045F000C0FFC0CEC0CCC0CCC0CCC0CCC0CCC0CC26
:10460000C0CC00000000000000000000000000001E
:104610000000006F807F80718061806180618061B7
:1046200080618061806100000000000000000000E7
:10463000000000000000001E003F80738061806168
:10464000806180618073003F001E00000000000058
:104650000000000000000000006E007F8073806199
:104660008061806180618073007F006E0060006007
:10467000006000600000000000000000801D803F1E
:10468000807380618061806180618073803F801D64
:104690008001800180018001000000000000000016
:1046A00000000067803F00390030003000300030EB
:1046B000003000300030000000000000000000006A
:1046C000000000000000001E803F80610060007F4D
:1046D000803F80018061007F001E0000000000001C
:1046E00000000000000800180018007F007F00187C
:1046F00000180018001800180018801F800F000014
:1047000000000000000000000000000000008061C8
:104710008061806180618061806180618063807F71
:10472000803D0000000000000000000000000000CC
:104730000000C060803180318031001B001B001BF5
:10474000000E000E00060000000000000000000047
:1047500000000000000080DD80DD80DD0055005598
:1047600000550077007700220022000000000000C2
:1047700000000000000000000000806100330033F2
:10478000001E000C000C001E00330033806100008E
:104790000000000000000000000000008061806157
:1047A000803100330033001B001B001B000E000E85
:1047B000000E001C007C00700000000000000000E3
:1047C0000000C07FC07F800100030006000C0018BD
:1047D0000030C07FC07F0000000000008003800721
:1047E00000060006000600060006000E001C001C65
:1047F000000E000600060006000600068007800383
:104800000006000600060006000600060006000678
:104810000006000600060006000600060006000668
:10482000000600060038003C000C000C000C000CD8
:10483000000C000E00070007000E000C000C000C1E
:10484000000C000C003C00380000000000000000DC
:104850000000000000008038807F0047000000005A
:104860000000000000000000000000000F01809622
:104870001180FFB103012C2DB203012C2DB30601D1
:104880002C2D012C2DB40107C003A20284C101C547
:10489000C2020A00C3028A2AC4028AEEC5010E209F
:1048A000003601C03A0105022A040000007F2B04F3
:1048B0000000007F04E010021C07123732292D2966
:1048C000252B3900010310E110031D07062E2C29AA
:1048D0002D2E2E373F0000021013800A298064001D
:1048E000FFFFFFFFFFFFFFFFFFFFFFFFFFFFFFFFD8
:1048F000FFFFFFFFFFFFFFFFFFFFFFFFFFFFFFFFC8
:10490000FFFFFFFFFFFFFFFFFFFFFFFFFFFFFFFFB7
:10491000FFFFFFFFFFFFFFFFFFFFFFFFFFFFFFFFA7
:10492000FFFFFFFFFFFFFFFFFFFFFFFFFFFFFFFF97
:10493000FFFFFFFFFFFFFFFFFFFFFFFFFFFFFFFF87
:10494000FFFFFFFFFFFFFFFFFFFFFFFFFFFFFFFF77
:10495000FFFFFFFFFFFFFFFFFFFFFFFFFFFFFFFF67
:10496000FFFFFFFFFFFFFFFFFFFFFFFFFFFFFFFF57
:10497000FFFFFFFFFFFFFFFFFFFF00000000000041
:104980000000000000000000000000000000FFFF29
:10499000FFFFFFFFFFFFFFFFFFFFFFFFFFFFFFFF27
:1049A000FFFFFFFFFFFFFFFFFFFFFFFF0000000013
:1049B000000000000000000000000000FFFFFFFFFB
:1049C000FFFFFFFFFFFFFFFFFFFFFFFFFFFFFFFFF7
:1049D000FFFFFFFF000000000000000000000000DB
:1049E00000000000FFFFFFFFFFFFFFFFFFFFFFFFD3
:1049F000FFFFFFFFFFFFFFFFFFFFFFFFFFFF0000C5
:104A000000000000000000000000000000000000A6
:104A10000000FFDFFFFFFFFFFFFFFFFFFFFFFFFFC4
:104A2000FFFFFFFFFFFFFFFFFFFFFFFFFFFFFFFF96
:104A30000000000000000000000000000000000076
:104A4000FFFFFFFFFFFFFFFFFFFFFFFFFFFFFFFF76
:104A5000FFFFFFFFFFFFFFFF00000000000000005E
:104A60000000000000000000FFFFFFFFFFFFFFFF4E
:104A7000FFFFFFFFFFFFFFFFFFFFFFFFFFFFFFFF46
:104A80000000000000000000000000000000000026
:104A90000000000000000000FFFFFFFFFFFFFFFF1E
:104AA000FFFFFFFFFFFFFFFFFFFFFFFFFFFFFFFF16
:104AB000FFFFFFFF000000000000000000000000FA
:104AC00000000000FFFFFFFFFFFFFFFFFFFFFFFFF2
:104AD000FFFFFFFFFFFFFFFFFFFFFFFF00000000E2
:104AE000000000000000000000000000FFFFFFFFCA
:104AF000FFFFFFFFFFFFFFFFFFFFFFFFFFFFFFFFC6
:104B0000FFFFFFFF000000000000000000000000A9
:104B1000000000000000000000000000FFFFFFFF99
:104B2000FFFFFFFFFFFFFFFFFFFFFFFFFFFFFFFF95
:104B3000FFFFFFFFFFFFFFFF00000000000000007D
:104B40000000000000000000FFFFFFFFFFFFFFFF6D
:104B5000FFFFFFFFFFFFFFFFFFFFFFFFFFFFFFFF65
:104B60000000000000000000000000000000000045
:104B7000FFFFFFFFFFFFFFFFFFFFFFFFFFFFFFFF45
:104B8000FFFFFFFFFFFFFFFF00000000000000002D
:104B90000000000000000000000000000000000015
:104BA000FFDFFFFFFFFFFFFFFFFFFFFFFFFFFFFF35
:104BB000FFFFFFFFFFFFFFFFFFFFFFFF0000000001
:104BC000000000000000000000000000FFFFFFFFE9
:104BD000FFFFFFFFFFFFFFFFFFFFFFFFFFFFFFFFE5
:104BE000FFFFFFFF000000000000000000000000C9
:104BF00000000000FFFFFFFFFFFFFFFFFFFFFFFFC1
:104C0000FFFFFFFFFFFFFFFFFFFF000000000000AE
:104C10000000000000000000000000000000000094
:104C2000000000000000FFFFFFFFFFFFFFFFFFFF8E
:104C3000FFFFFFFFFFFFFFFFFFFFFFFFFFFFFFFF84
:104C40000000000000000000000000000000000064
:104C5000FFFFFFFFFFFFFFFFFFFFFFFFFFFFFFFF64
:104C6000FFFFFFFFFFFFFFFF00000000000000004C
:104C70000000000000000000FFFFFFFFFFFFFFFF3C
:104C8000FFFFFFFFFFFFFFFFFFFFFFFFFFFF000032
:104C90000000000000000000000000000000000014
:104CA00000000000000000000000FFFFFFFFFFFF0A
:104CB000FFFFFFFFFFFFFFFFFFFFFFFFFFFFFFFF04
:104CC000FFFFFFFF000000000000000000000000E8
:104CD00000000000FFFFFFFFFFFFFFFFFFFFFFFFE0
:104CE000FFFFFFFFFFFFFFFFFFFFFFFF00000000D0
:104CF000000000000000000000000000FFFFFFFFB8
:104D0000FFFFFFFFFFFFFFFFFFFFFFFFFFFFFFFFB3
:104D1000FFFF000000000000000000000000000095
:104D20000000000000000000000000000000FFDFA5
:104D3000FFFFFFFFFFFFFFFFFFFFFFFFFFFFFFFF83
:104D4000FFFFFFFFFFFFFFFF00000000000000006B
:104D50000000000000000000FFFFFFFFFFFFFFFF5B
:104D6000FFFFFFFFFFFFFFFFFFFFFFFFFFFFFFFF53
:104D70000000000000000000000000000000000033
:104D8000FFFFFFFFFFFFFFFFFFFFFFFFFFFFFFFF33
:104D9000FFFFFFFF00000000000000000000000017
:104DA0000000000000000000000000000000000003
:104DB00000000000FFFFFFFFFFFFFFFFFFFFFFFFFF
:104DC000FFFFFFFFFFFFFFFFFFFFFFFF00000000EF
:104DD000000000000000000000000000FFFFFFFFD7
:104DE000FFFFFFFFFFFFFFFFFFFFFFFFFFFFFFFFD3
:104DF000FFFFFFFF000000000000000000000000B7
:104E000000000000FFFFFFFFFFFFFFFFFFFFFFFFAE
:104E1000FFFFFFFFFFFFFFFF00000000000000009A
:104E20000000000000000000000000000000000082
:104E30000000000000000000FFFFFFFFFFFFFFFF7A
:104E4000FFFFFFFFFFFFFFFFFFFFFFFFFFFFFFFF72
:104E50000000000000000000000000000000000052
:104E6000FFFFFFFFFFFFFFFFFFFFFFFFFFFFFFFF52
:104E7000FFFFFFFFFFFFFFFF00000000000000003A
:104E80000000000000000000FFFFFFFFFFFFFFFF2A
:104E9000FFFFFFFFFFFFFFFFFFFFFFFF000000001E
:104EA0000000000000000000000000000000000002
:104EB0000000000000000000000000000000FFFFF4
:104EC000FFFFFFFFFFFFFFFFFFFFFFFFFFFFFFFFF2
:104ED000FFFFFFFF000000000000000000000000D6
:104EE00000000000FFFFFFFFFFFFFFFFFFFFFFFFCE
:104EF000FFFFFFFFFFFFFFFFFFFFFFFF00000000BE
:104F0000000000000000000000000000FFFFFFFFA5
:104F1000FFFFFFFFFFFFFFFFFFFFFFFFFFFF00009F
:104F20000000000000000000000000000000000081
:104F3000F6FF00000000000000000000000000007C
:104F40000000FFFFFFFFFFFFFFFFFFFFFFFFFFFF6F
:104F5000FFFFFFFFFFFFFFFF000000000000000059
:104F60000000000000000000FFFFFFFFFFFFFFFF49
:104F7000FFFFFFFFFFFFFFFFFFFFFFFFFFFFFFFF41
:104F80000000000000000000000000000000000021
:104F9000FFFFFFFFFFFFFFFFFFFFFFFFFFFFFFFF21
:104FA000FFFF000000000000000000000000000003
:104FB0000000FFFFFFFF00000000000000000000F5
:104FC000000000000000FFFFFFFFFFFFFFFFFFFFEB
:104FD000FFFFFFFFFFFFFFFFFFFFFFFF00000000DD
:104FE000000000000000000000000000FFFFFFFFC5
:104FF000FFFFFFFFFFFFFFFFFFFFFFFFFFFFFFFFC1
:10500000FFFFFFFF000000000000000000000000A4
:1050100000000000FFFFFFFFFFFFFFFFFFFFFFFF9C
:10502000FFFFFFFFFBFF000000000000000000008A
:10503000000000000000FFFFFFFF00000000000074
:10504000000000000000000000000000FFFFFFFF64
:10505000FFFFFFFFFFFFFFFFFFFFFFFFFFFFFFFF60
:105060000000000000000000000000000000000040
:10507000FFFFFFFFFFFFFFFFFFFFFFFFFFFFFFFF40
:10508000FFFFFFFFFFFFFFFF000000000000000028
:105090000000000000000000FFFFFFFFFFFFFFFF18
:1050A000FFFFFFFFFFFFFFFF000000000000000008
:1050B00000000000000000000000FFFFFFFFD2FE24
:1050C00000000000000000000000000000000000E0
:1050D000FFFFFFFFFFFFFFFFFFFFFFFFFFFFFFFFE0
:1050E000FFFFFFFF000000000000000000000000C4
:1050F00000000000FFFFFFFFFFFFFFFFFFFFFFFFBC
:10510000FFFFFFFFFFFFFFFFFFFFFFFF00000000AB
:10511000000000000000000000000000FFFFFFFF93
:10512000FFFFFFFFFFFFFFFFFFFFFFFF000000008B
:10513000000000000000000000000000FFFFFFFF73
:10514000FFFFFBFF00000000000000000000000067
:1051500000000000FFFFFFFFFFFFFFFFFFFFFFFF5B
:10516000FFFFFFFFFFFFFFFF000000000000000047
:105170000000000000000000FFFFFFFFFFFFFFFF37
:10518000FFFFFFFFFFFFFFFFFFFFFFFFFFFFFFFF2F
:10519000000000000000000000000000000000000F
:1051A000FFFFFFFFFFFFFFFFFFFFFFFFFFFFFBFF13
:1051B00000000000000000000000000000000000EF
:1051C000FFFFFFFFFFFFFFFF0000000000000000E7
:1051D00000000000000000000000FFFFFFFFFFFFD5
:1051E000FFFFFFFFFFFFFFFFFFFFFFFF00000000CB
:1051F000000000000000000000000000FFFFFFFFB3
:10520000FFFFFFFFFFFFFFFFFFFFFFFFFFFFFFFFAE
:10521000FFFFFFFF00000000000000000000000092
:1052200000000000FFFFFFFFFFFFFFFFFFFFFFFF8A
:10523000FFFF000000000000000000000000000070
:1052400000000000FFFFFFFFFFFFFFFFD2FE000096
:105250000000000000000000000000000000FFFF50
:10526000FFFFFFFFFFFFFFFFFFFFFFFFFFFFFFFF4E
:10527000000000000000000000000000000000002E
:10528000FFFFFFFFFFFFFFFFFFFFFFFFFFFFFFFF2E
:10529000FFFFFFFFFFFFFFFF000000000000000016
:1052A0000000000000000000FFFFFFFFFFFFFFFF06
:1052B000FFFFFFFFFFFF00000000000000000000F4
:1052C000000000000000FFDFFFFFFFFFFFFFFFFF08
:1052D000FBFF0000000000000000000000000000D4
:1052E00000000000FFFFFFFFFFFFFFFFFFFFFFFFCA
:1052F000FFFFFFFF000000000000000000000000B2
:1053000000000000FFFFFFFFFFFFFFFFFFFFFFFFA9
:10531000FFFFFFFFFFFFFFFFFFFFFFFF0000000099
:10532000000000000000000000000000FFFFFFFF81
:10533000FFFFFFFFFFFFFFFFFBFF0000000000007B
:1053400000000000000000000000FFFFFFFFFFFF63
:10535000FFFFFFFFFFFF0000000000000000000053
:105360000000000000000000FFFFFFFFFFFFFFFF45
:10537000FFFFFFFFFFFFFFFF000000000000000035
:105380000000000000000000FFFFFFFFFFFFFFFF25
:10539000FFFFFFFFFFFFFFFFFFFFFFFFFFFFFFFF1D
:1053A00000000000000000000000000000000000FD
:1053B000FFFFFFFFFFFFFFFFFFFFFFFF00000000F9
:1053C0000000000000000000000000000000FFFFDF
:1053D000FFFFFFFFFFFFFFFFFFFF000000000000D7
:1053E000000000000000000000000000FFFFFFFFC1
:1053F000FFFFFFFFFFFFFFFFFFFFFFFF00000000B9
:10540000000000000000000000000000FFFFFFFFA0
:10541000FFFFFFFFFFFFFFFFFFFFFFFFFFFFFFFF9C
:10542000FFFFFFFF00000000000000000000000080
:1054300000000000FFFFFFFFFFFFFFFFFFFFFFFF78
:10544000000000000000000000000000000000005C
:10545000FFDFFFFFFFFFFFFFFFFFFFFFFFFFFBFF80
:10546000000000000000000000000000000000003C
:105470000000FFFFFFFFFFFFFFFFFFFFFFFFFFFF3A
:10548000000000000000000000000000000000001C
:10549000FFFFFFFFFFFFFFFFFFFFFFFFFFFFFFFF1C
:1054A000FFFFFFFFFFFFFFFF000000000000000004
:1054B0000000000000000000FFFFFFFFFFFFFFFFF4
:1054C000FFFFF6FF000000000000000000000000E9
:1054D00000000000000000000000000000000000CC
:1054E00000000000000000000000000000000000BC
:1054F000000000000000FFFFFFFFFFFFFFFFFFFFB6
:10550000FFFFFFFF0000000000000000000000009F
:1055100000000000FFFFFFFFFFFFFFFFFFFFFFFF97
:10552000FFFFFFFFFFFFFFFFFFFFFFFF0000000087
:10553000000000000000000000000000FFFFFFFF6F
:10554000FFFFFFFFFFFF0000000000000000000061
:10555000000000000000000000000000000000004B
:10556000000000000000000000000000000000003B
:1055700000000000000000000000FFFFFFFFFFFF31
:10558000FFFFFFFFFFFFFFFF000000000000000023
:105590000000000000000000FFFFFFFFFFFFFFFF13
:1055A000FFFFFFFFFFFFFFFFFFFFFFFFFFFFFFFF0B
:1055B00000000000000000000000000000000000EB
:1055C000FFFFFFFFFFFFFFFFFFFF000000000000E5
:1055D00000000000000000000000000000000000CB
:1055E00000000000000000000000000000000000BB
:1055F00000000000000000000000000000000000AB
:10560000FFFFFFFFFFFFFFFFFFFFFFFF00000000A6
:10561000000000000000000000000000FFDFFFFFAE
:10562000FFFFFFFFFFFFFFFFFFFFFFFFFFFFFFFF8A
:10563000FFFFFFFF0000000000000000000000006E
:1056400000000000FFFFFFFFFFFFFFFFF6FF00006D
:10565000000000000000000000000000000000004A
:10566000000000000000000000000000000000003A
:10567000000000000000000000000000000000002A
:1056800000000000FFFFFFFFFFFFFFFFFFFFFFFF26
:10569000000000000000000000000000000000000A
:1056A000FFFFFFFFFFFFFFFFFFFFFFFFFFFFFFFF0A
:1056B000FFFFFFFFFFFFF6FF0000000000000000FB
:1056C0000000000000000000FFFFFFFFFFFFFFFFE2
:1056D00000000000000000000000000000000000CA
:1056E00000000000000000000000000000000000BA
:1056F00000000000000000000000000000000000AA
:105700000000000000000000FFFFFFFFFFFFFFFFA1
:10571000FFFFFFFFF6FF0000000000000000000098
:10572000000000000000FFFFFFFFFFFFFFFFFFFF83
:10573000FFFFFFFFFFFFFFFFFFFF00000000000073
:1057400000000000000000000000FFFFFFFFFFFF5F
:10575000FFFFFFFF0000000000000000000000004D
:105760000000000000000000000000000000000039
:105770000000000000000000000000000000000029
:105780000000000000000000000000000000FFFF1B
:10579000FFFFFFFFFFFFFFFFFFFF00000000000013
:1057A000000000000000000000000000FFFFFFFFFD
:1057B000FFFFFFFFFFFFFFFFFFFFFFFF00000000F5
:1057C0000000000000000000000000000000FFFFDB
:1057D000FFFFFFFFFFFFF6FF0000000000000000DA
:1057E0000000000000000000FFFFFFFFFFFFFFFFC1
:1057F000FFFFFFFFFFFFFFFFFFFFFFFFFFFFFFFFB9
:105800000000000000000000000000000000000098
:105810000000FFFFFFFFFFFFFFFFFFFFFFFF000094
:105820000000000000000000000000000000000078
:105830000000FFFFFFFFFFFFFFFFFFFFFFFF000074
:105840000000000000000000000000000000000058
:105850000000FFFFFFFFFFFFFFFF00000000000050
:10586000000000000000000000000000FFFFFFFF3C
:10587000FFFFFFFFFFFFFFFFFFFFFFFFFFFFFFFF38
:10588000FFFFFFFF0000000000000000000000001C
:10589000000000000000FFFFFFFFFFFFFFFFFFFF12
:1058A000FFFFFBFF00000000000000000000000000
:1058B00000000000000000000000000000000000E8
:1058C00000000000000000000000000000000000D8
:1058D00000000000FFFFFFFFFFFFFFFFFBFF0000D6
:1058E0000000000000000000000000000000FFB702
:1058F000FFFFFFFFFFFFFFFFFFFFFFFFFFFFFFFFB8
:10590000FFFFFFFFFFFFFFFFFFFF000000000000A1
:10591000000000000000000000000000FFFFFFFF8B
:10592000FFFFFFFFFFFFFFFF00000000000000007F
:105930000000000000000000000000000000000067
:105940000000000000000000000000000000000057
:105950000000000000000000FFFFFFFFFFFFFFFF4F
:10596000D2FE000000000000000000000000000067
:105970000000FFFFFFFFFFFFFFFFFFFFFFFFFFFF35
:10598000FFFFFFFFFFFFFFFFFFFFFFFFFFFF000025
:105990000000000000000000000000000000000007
:1059A000FFFFFFFFFFFFFFFFFFFFFFFFFFFF000005
:1059B00000000000000000000000000000000000E7
:1059C00000000000000000000000000000000000D7
:1059D00000000000000000000000FFFFFFFFFFFFCD
:1059E000FFFFFFFF000000000000000000000000BB
:1059F000000000000000FFFFFFFFFFFFFFFFFFFFB1
:105A0000FFFFFFFFFFFFFFFFFFFFFFFFFFFFFFFFA6
:105A1000FFFFF6FF00000000000000000000000093
:105A200000000000FFFFFFFFFFFFFFFFFFFFFFFF82
:105A3000FFFFFFFF0000000000000000000000006A
:105A40000000000000000000000000000000000056
:105A5000000000000000000000000000FFFFFFFF4A
:105A6000FFFFFFFFFFFFFFFF00000000000000003E
:105A70000000000000000000FFB7FFFFFFFFFFFF76
:105A8000FFFFFFFFFFFFFFFFFFFFFFFFFFFFFFFF26
:105A9000FFFFFFFFFFFFFFFF00000000000000000E
:105AA00000000000000000000000FFFFFFFFFFFFFC
:105AB000FFFFFFFFFFFFFFFFFFFFFFFF00000000F2
:105AC00000000000000000000000000000000000D6
:105AD0000000000000000000000000000000FFFFC8
