:020000040800F2
:10000000F81A0020910100087B160008EF14000880
:1000100079160008AF050008351F00080000000031
:10002000000000000000000000000000811E000829
:10003000B1050008000000007D160008831E0008BE
:10004000AB010008AB010008AB010008AB010008E0
:10005000AB010008AB010008AB010008AB010008D0
:10006000AB010008AB010008AB010008AB010008C0
:10007000AB010008AB010008AB010008AB010008B0
:10008000AB010008AB010008AB010008AB010008A0
:10009000AB010008AB010008AB010008AB01000890
:1000A000AB010008AB010008AB010008AB01000880
:1000B000AB010008AB010008AB010008AB01000870
:1000C000AB010008AB010008AB010008AB01000860
:1000D000AB010008AB010008AB010008AB01000850
:1000E000AB010008AB010008AB01000800F002F80A
:1000F00000F03FF80AA090E8000C82448344AAF183
:100100000107DA4501D100F034F8AFF2090EBAE880
:100110000F0013F0010F18BFFB1A43F0010318473B
:10012000A8580000C8580000103A24BF78C878C109
:10013000FAD8520724BF30C830C144BF04680C60ED
:10014000704700000023002400250026103A28BF35
:1001500078C1FBD8520728BF30C148BF0B60704739
:10016000642900F07180002070471FB51FBD10B5D5
:1001700010BD00F0E2F91146FFF7F7FF02F06AFE4A
:1001800000F000FA03B4FFF7F2FF03BC00F008FA36
:100190000948804709480047FEE7FEE7FEE7FEE71B
:1001A000FEE7FEE7FEE7FEE7FEE7FEE70448054957
:1001B000054A064B70470000071F0008ED000008C5
:1001C000F8140020F81A0020F8160020F816002075
:1001D0000FB41CB5074B06AA7B44694600900598EE
:1001E00000F093F90020694600F0A2F91CBC5DF80C
:1001F00014FB00005503000070B5044685690068D3
:10020000C10601D5302600E02026C00707D070BD0A
:10021000D4E9012130469047206A401C20626D1EBF
:10022000F6D570BD70B5044685690078C00707D162
:1002300070BDD4E9012120209047206A401C206233
:100240006D1EF6D570BD00002DE9F0410646002474
:1002500010687529314616A510D0AFF3008000282C
:1002600002DA404213A507E031688A0701D512A5DA
:1002700002E0490704D511A5012401E0AFF3008095
:1002800000210A2206F1240709E0B0FBF2FCB0FBD2
:10029000F2F302FB1C00303078541846491C002849
:1002A000F3D123462A463046BDE8F04100F0CEB8EF
:1002B000000000002D0000002B00000020000000C6
:1002C0002DE9F05F894604464FF0000ADFF824B1BB
:1002D000FB44C0F820A02046E168884700287DD074
:1002E000252806D0D4E901219047206A401C2062CD
:1002F000F1E700255F462046E1688847202806464A
:1003000007DB312E05D2B81910F8200C08B10543CF
:10031000F1E7A80701D525F00405C4F81CA00027C3
:10032000C4F818A02A2E09D0304601F014FE38B3C4
:1003300004EB8708303EC8F8186019E059F8041B30
:10034000204604EB87029161E1688847012F064649
:1003500018D1E069002820DA25F020051DE0D8F842
:10036000180000EB800006EB40003038C8F8180099
:100370002046E1688847064601F0EDFD0028EED1F1
:10038000012F0AD02E2E08D12046E16888477F1C15
:100390000646022F45F02005C4DBA069002803DAD9
:1003A000404245F00105A061E80701D025F01005A5
:1003B000A6B1A6F14100192802D8203645F40065FF
:1003C0004A463146204625604D46FFF7C9FE60B1DA
:1003D000012807D0ED1D25F0070000E007E000F13F
:1003E000080978E705F1040975E730467AE7206ADD
:1003F000BDE8F09FE25600004FF0000200B5134642
:1004000094469646203922BFA0E80C50A0E80C5034
:10041000B1F12001BFF4F7AF090728BFA0E80C50E5
:1004200048BF0CC05DF804EB890028BF40F8042BDE
:1004300008BF704748BF20F8022B11F0804F18BF4B
:1004400000F8012B70477047704770472DE9F0475F
:100450000D4699469246044600F124080168880634
:1004600004D5E06921F01001216000E00120A842DC
:1004700001DD471B00E00027A1697A1902EB0900A2
:10048000081AA0612078C00602D42046FFF7B4FE07
:10049000002608E0D4E901211AF806009047206AF6
:1004A000401C761C20624E45F4DB2078C0060AD53D
:1004B0002046FFF7A1FE06E0D4E901213020904755
:1004C000206A401C2062381EA7F10107F4DC07E017
:1004D000D4E9012118F805009047206A401C2062E9
:1004E000281EA5F10105F3DC2046FFF79BFE2078CE
:1004F000000602D50220BDE8F0870120FBE70000DE
:1005000001694A1C02610878704700B58FB0CDE9D7
:1005100001310021059105497944CDE903101146C7
:100520006846FFF7CDFE0FB000BD0000E5FFFFFFFE
:100530000A6802F8010B0A607047754600F02CF853
:10054000AE4605006946534620F00700854618B0C0
:1005500020B5FFF72BFEBDE820404FF000064FF01E
:1005600000074FF000084FF0000B21F00701AC46E8
:10057000ACE8C009ACE8C009ACE8C009ACE8C00907
:100580008D46704710B50446AFF300802046BDE8A5
:100590001040FFF7F7BD0000004870479814002096
:1005A00001491820ABBEFEE7260002007047FEE7B7
:1005B00070470022AFF3008030B50E4B0546012096
:1005C0005C7A012C15D8587A00241C54587A03EB15
:1005D000800045605D7A03F108002A54587A421C75
:1005E0005A72303008703A2048702F208870CC70D2
:1005F000002030BD8C14002070B5044600F008F9CE
:100600000546601C02D004480078044400F000F95C
:10061000401BA042FAD370BD3C0000202DE9F84FEA
:10062000DFF8B891002409F1040A0AF1040B23460B
:100630000F270BF1040EC9E00125A5402A40AA426C
:100640007DD1674ED1F804C0ACEB0608B44532D07A
:1006500014DCBCF1030F3AD009DCBCF1000F2AD046
:10066000BCF1010F1CD0BCF1020F31D11DE0BCF177
:10067000110F17D0BCF1120F2AD119E0B8F5881F5D
:1006800019D006DCB8F5803F15D0B8F5801F1FD112
:1006900011E0B8F5001F0ED0B8F5041F18D10AE01C
:1006A000CB6815E0CB681B1D12E0CB6808330FE068
:1006B000CB680C330CE08B682BB1012B4FF0080397
:1006C00003D0456104E0042302E0056100E000235B
:1006D000FF2A01D8064601E000F104064FEA84052E
:1006E00001D9A5F12005D6F8008007FA05FC28EA13
:1006F0000C0803FA05F548EA0508C6F800804D68BD
:10070000ED0062D5374DAE6946F00106AE61AD69C8
:1007100024F0030605F001050095334D06EB050CAA
:10072000DCF80850A607360F07FA06F825EA080590
:10073000DFF8B880404503D14FF0000817E044E0EF
:10074000DFF8AC80404502D14FF001080FE0DFF840
:10075000A480404502D14FF0020808E0DFF89880FD
:10076000404502D14FF0030801E04FF0040808FAB9
:1007700006F848EA0508CCF808804D68D9F800600A
:10078000ED034D4601D5164300E096432E604D68BB
:10079000DAF80060AD03554601D5164300E09643F4
:1007A0002E604D68DBF80060ED025D4601D5164312
:1007B00000E096432E604D68DEF80060AD0275469D
:1007C00001D5164300E096432E60641C0D682A464E
:1007D000E5407FF431AFBDE8F88F00000004014030
:1007E000000011100010024000000140000801400C
:1007F000000C0140001001400014014080680840D6
:1008000000D0012070470AB1016170470904FBE77D
:1008100001488068704700003C0000200248816861
:1008200002781144816070473C000020074810B5F1
:10083000016841F010010160032000F067F80F200B
:1008400000F006F800F024F8002010BD002002405F
:1008500070B50D4D04464FF47A712878B1FBF0F075
:100860000A490968B1FBF0F000F02DFE48B9102CE0
:1008700007D200222146501E00F028F800206C60AC
:1008800070BD012070BD00003C0000204800002029
:100890000C4808B5816941F001018161816901F06D
:1008A00001010091C16941F08051C161C06900F04E
:1008B000805000900448416821F0E06141F00071EF
:1008C000416008BD0010024000000140F0B40E4B32
:1008D0001B680C46C3F30223C3F10705042D00D99E
:1008E0000425191D072901D2002300E0DB1E012683
:1008F00006FA05F1491E214099409E40761E164099
:100900003143F0BC01F017BB0CED00E0064900F0EC
:10091000070208684FF6FF03184040EA0220034A26
:1009200010430860704700000CED00E00000FA057D
:10093000014901200862704700000E4210B529A449
:1009400001461DCC86B08DE81D002AA02A4C006807
:1009500004900020012923D002293AD010291DD16A
:1009600061682268D20119D5C1F38342C9031DF819
:10097000020009D5616804AAC1F34041515C1F4AD5
:10098000B2FBF1F1484301E01D4948436168490267
:1009900004D440005FF00301B0FBF1F006B010BDDD
:1009A000226AC2F30121012903D1920701D5C803AC
:1009B000F4E7022905D1626A920702D549F6404060
:1009C000ECE70329EAD121688903E7D54FF22440F7
:1009D000E4E700F023F96168C1F38131491C490063
:1009E000DAE7000002030405060708090A0B0C0DEC
:1009F0000E0F1010010200000010024000127A00D9
:100A000000093D002DE9F84305460078354CC00744
:100A100054D0E0690026C00008D4E06940F080505E
:100A2000E061E069012600F0805000902E480168E6
:100A3000C90512D40168804641F480710160FFF756
:100A4000E7FE074605E000BFFFF7E2FEC01B642893
:100A500023D8D8F80000C005F6D5206A10F44070FD
:100A600021D0A98801F4407181421CD0206A1F491D
:100A7000012220F440700A6000220A602062C00750
:100A800011D0FFF7C5FE074641F2883808E000BFE5
:100A9000FFF7BEFEC11B414502D90320BDE8F88324
:100AA000206A8007F4D5206A696820F44070084302
:100AB00020621EB1E06920F08050E0612878800754
:100AC00005D56068A96820F4404008436060287834
:100AD000C00605D56068E96820F4800008436060BE
:100AE0000020DBE70010024000700040400442425A
:100AF0002DE9F0470F46050061D0434E306800F005
:100B00000700B84209D2306820F00700384330604F
:100B1000306800F00700B84251D128683B4C81078B
:100B200012D5400703D5606840F4E0606060287823
:100B3000000703D5606840F4605060606068A96891
:100B400020F0F000084360602878C00728D068686B
:100B5000012810D02168022810D0890700292EDA38
:100B6000616821F0030101436160FFF751FE804697
:100B700041F288390DE021688903EFE78901EDE74B
:100B8000FFF746FEA0EB0801494502D90320BDE866
:100B9000F0876068696800F00C00B0EB810FEFD15E
:100BA000306800F00700B8420BD9306820F0070029
:100BB00038433060306800F00700B84201D00120AF
:100BC000E5E72878400705D56068E96820F4E0602B
:100BD000084360602878000706D56068296920F41A
:100BE000605040EAC100606000F028F86168084A7F
:100BF000C1F30311515CC84006490860064800680B
:100C0000FFF726FE0020C2E700200240001002404D
:100C10009E59000848000020400000200448054973
:100C200000684968044AC1F3C221515CC84070475A
:100C30004800002000100240AE59000812A185B003
:100C40000FC98DE80F0014A0144A00680490516881
:100C5000134801F00C03042B10D0082B0ED1C1F364
:100C60008343C9031DF803000AD5516804AAC1F3E0
:100C70004041515C0A4A5043B0FBF1F005B0704767
:100C800008494843FAE7000002030405060708097B
:100C90000A0B0C0D0E0F1010010200000010024094
:100CA00000127A0000093D002DE9F84F040070D0D1
:100CB0002078C04DC00749D06868C0F38100012882
:100CC00007D06868C0F38100022809D16868C003B2
:100CD00006D52868800339D560680028E7D035E05C
:100CE0006068B0F5803F0BD010B1B0F5A02F11D0E7
:100CF000286820F480302860286820F4802002E0F2
:100D0000286840F480302860606890B1FFF780FD6B
:100D100006460AE0286840F480202860F0E700BF1B
:100D2000FFF776FD801B642873D828688003F7D509
:100D30000CE0FFF76DFD064605E000BFFFF768FD1C
:100D4000801B6428F0D828688003F7D420789A4E56
:100D500080074FF001094FF0000839D5686810F09E
:100D60000C0F07D06868C0F38100022809D16868B9
:100D7000C00306D42868800714D52069012808D14B
:100D800010E02069B0B1C6F80090FFF741FD0746BA
:100D900005E00AE1FFF73CFDC01B0228C4D8286823
:100DA0008007F7D52868616920F0F80040EAC100A3
:100DB00028600DE0C6F80080FFF72AFD074604E032
:100DC000FFF726FDC01B022823D828688007F7D428
:100DD000207800072CD57948A169D9B1C0F80090D6
:100DE000FFF716FD074604E0FFF712FDC01B0228BF
:100DF0000FD8686A8007F7D571484FF4FA51006838
:100E0000B0FBF1F0009000BF0098411E0091FAD2B3
:100E10000EE080E0C0F80080FFF7FAFC074604E02F
:100E2000FFF7F6FCC01B022875D8686A8007F7D464
:100E30002078400760D5E8690027C00008D4E86939
:100E400040F08050E861E869012700F08050009090
:100E50005C480168C90513D40168834641F4807178
:100E60000160FFF7D5FC824606E000BFFFF7D0FC2B
:100E7000A0EB0A0064284ED8DBF80000C005F5D5C9
:100E8000E06801280AD008B1052813D0286A20F0AC
:100E900001002862286A20F0040002E0286A40F07D
:100EA00001002862E06841F2883B98B1FFF7B0FC8E
:100EB00082460BE0286A40F004002862EEE700BF9B
:100EC000FFF7A6FCA0EB0A0159455AD8286A80070B
:100ED000F6D50CE0FFF79CFC824605E0FFF798FC96
:100EE000A0EB0A0159454CD8286A8007F6D41FB1F7
:100EF000E86920F08050E861E06988B36968C1F36F
:100F00008101022944D00228C6F8608004D0FFF78E
:100F10007FFC044638E034E0FFF77AFC074604E043
:100F2000FFF776FCC01B02282BD828688001F7D475
:100F3000206AB0F5803F05D16868A16820F40030D0
:100F400008436860D4E908010843696821F4741112
:100F500008436860C6F86090FFF75AFC044606E054
:100F600025E000BFFFF754FC001B022809D82868C1
:100F70008001F7D51BE000BFFFF74AFC001B0228E9
:100F800002D90320BDE8F88F28688001F4D40EE070
:100F90000128F7D06868226A00F48031914204D1B8
:100FA000616A00F47010884201D00120EAE7002055
:100FB000E8E7000000100240000042428004424284
:100FC0004800002000700040F8B505004FF0000018
:100FD00016460C46009006D02CB1002269462846E1
:100FE00000F019F808B10120F8BD287B2070E87BDB
:100FF000E070697B6170A97BA17056B100F078FB4D
:10100000E070607800F074FB6070A07800F070FB16
:10101000A0700020F8BD2DE9F04791460C465FEA2C
:1010200000084AD084B3D8F800004068400744D490
:10103000404600F0FBFB4FF461620546B0FBF2F165
:10104000B0FBF2F302FB13503C23B0FBF3F0B5FB13
:10105000F2F6607002FB1650B0FBF3F203FB1200D5
:10106000A070182931D31820B1FBF0F7B1FBF0F2D2
:1010700000FB12102070404600F0D1FB411C04D050
:10108000A84202D9461B02E017E04FF0FF36A7EB5B
:10109000071000EB4000C0EB001005EBC01529461F
:1010A000404600F012FC40B9701C01D0711900E0FC
:1010B0003146404600F0F5FB10B10120BDE8F08755
:1010C0003946404600F01FFB00E02170B9F1000FE7
:1010D0000BD0207800F00CFB2070607800F008FB4B
:1010E0006070A07800F004FBA0700020E6E700002C
:1010F00070B5040003D0607C002610B105E001202B
:1011000070BD2674204600F043F80220607420462B
:1011100000F058F8042578BB204600F04BFB58BB84
:101120002068416821F007014160A06820B117489C
:10113000016821F0010101601448001F0168A268E4
:1011400021F46071114301606068411C04D10120E9
:10115000FFF7F4FB80B1401E21688A6822F00F027D
:1011600042EA10428A602168CA6860F30F02CA60CE
:10117000204600F039FB08B16574C0E7E673012032
:101180006073A0736074002070BD0000306C00407C
:1011900008B50068084988420DD1FFF7C9FB074828
:1011A000C16941F00061C161C069054900F000609A
:1011B00000900120086008BD002800400010024097
:1011C0003C04424270B504000AD02068416821F016
:1011D00008014160FFF71CFB05464FF47A7608E0F2
:1011E000012070BDFFF714FB401BB04201D9032062
:1011F00070BD206840680007F4D5002070BD70B550
:10120000040009D0606A002540B125616561A562CE
:1012100094F8510040B10CE0012070BD6068B0F559
:10122000827FF4D0E561F2E784F85050204600F068
:101230003FF8022084F851002068016821F0400145
:101240000160A088218900F4827001F40441084300
:10125000A18901F400610843217C01F002010843E7
:10126000217D01F001010843218B01F40071084345
:10127000217F01F03801084394F8201001F080012B
:101280000843218D01F40051084321680860A069DA
:10129000042101EA1040216848602068C16921F4F6
:1012A0000061C1616565012084F85100002070BDB6
:1012B00030B585B000240094019402940394234D2A
:1012C0000368234802210322AB4216D1836943F409
:1012D00080538361836903F480530493836943F0EB
:1012E000040383618069039200F004000490A0204D
:1012F000CDE900016946174823E0174DAB4222D1E2
:10130000C36943F48043C361C36903F48043049316
:10131000836943F0080383618069104D00F0080081
:1013200004904FF42040CDE900010392694628461D
:10133000FFF774F94FF48040CDE900046946284670
:101340000294FFF76BF905B030BD0000003001409A
:10135000001002400008014000380040000C01402D
:101360002DE9F84F044690F8500000271D46164618
:10137000894601280DD04FF0010B84F850B0FFF7DB
:1013800047FA804694F85100BA46012804D0022753
:1013900093E00220BDE8F88FB9F1000F73D0002E62
:1013A00071D0032084F85100C4F854A0C4F83090E0
:1013B000A686E686C4F838A0A4F83CA0A4F83EA00F
:1013C000C4F844A0C4F840A0A068B0F5004F09D10B
:1013D0002068016821F0400101602068016841F443
:1013E0008041016020680168490603D4016841F02A
:1013F00040010160E068B0F5006F606803D030B371
:10140000012E24D041E008B1012E1CD1206B2168AF
:101410000088C86006E020688168890709D5216BCB
:101420000988C160206B801C2063E08E401EE0862E
:1014300009E0FFF7EDF9A0EB0800A84202D3681C11
:1014400001D031E07DB3E08E0028E4D120E0206BB4
:1014500021680078087306E020688168890709D54B
:10146000216B09780173206B401C2063E08E401EC5
:10147000E0860AE0FFF7CCF9A0EB0800A84203D30E
:10148000681C02D010E017E06DB1E08E0028E3D1B7
:1014900042462946204600F02CFA08B1202060651B
:1014A000A06818B106E0FFE7032706E02068C168DE
:1014B00080680090606D00B1012784F851B084F815
:1014C00050A0384666E710B5401EB0F1807F01D3CA
:1014D000012010BD4FF0E02460610F21601700F083
:1014E0002AFD0020A06107202061002010BDFEE73A
:1014F00010B504490448FFF75CF80249491E08701A
:1015000010BD000065000020500000202DE9F04FC4
:1015100085B00024324800940194029403948169B8
:1015200041F010018161816901F01001049181692C
:1015300041F020018161816901F0200104918169FC
:1015400041F004018161816901F004010491816924
:1015500041F0080181618069DFF8889000F008009F
:101560004FF400550490002229464846FFF74BF9F6
:10157000DFF874A049F60F07002239465046FFF7FE
:1015800042F9DFF868B041F67A48002241465846F1
:10159000FFF739F90095022601250396CDE901549C
:1015A00069464846FFF73AF800970396CDE901549B
:1015B00069465046FFF732F84020CDE900046946FD
:1015C00050460294FFF72AF8CDF800800396CDE943
:1015D000015469465846FFF721F805B0BDE8F08F81
:1015E000001002400010014000080140000C0140C2
:1015F0000F4810B50D4901604FF482714160002120
:101600008160C1604FF400720161C0E905120822D7
:10161000C0E90721416281620A21C162FFF7EFFD43
:10162000002801D072B6FEE710BD00000030014076
:10163000A00000200F4810B50D4901604FF48271E1
:10164000416000218160C1604FF400720161C0E916
:1016500005121022C0E90721416281620A21C1629C
:10166000FFF7CDFD002801D072B6FEE710BD0000E7
:1016700000380040F8000020FEE7FEE77047000059
:1016800038B5002210491148FFF7C5FC0E49002269
:10169000C91D0E48FFF798FC0B4C0DA104F10B007F
:1016A00063782278FEF794FDE01DC17801F5FA61B8
:1016B00000914378827809A10C48FEF789FDA11FAB
:1016C000A078488038BD0000260000208C00002053
:1016D000253032643A25303264000000253032640F
:1016E0002D253032642D25326400000037020020A1
:1016F000002102E00A38C0B2491C0A28FAD20907C0
:1017000040EA116070472DE9F04104460025C07B96
:10171000627BA37B42E0012A16D0032A14D0052A5B
:1017200012D0072A10D0082A0ED00A2A0CD00C2A70
:101730000AD0042A10D0062A0ED0092A0CD00B2A6F
:101740000AD0022A0DD028E01F2B0CD30C2A05D179
:1017500001221346401C20E01E2B04D30123521CFF
:101760001BE01C2B02D203F1010316E011D183B25E
:101770009E0710D16426B3FBF6F706FB173636B981
:101780004FF4C876B3FBF6F706FB17331BB91D23DE
:1017900003E01D2B01D1032201236D1C8D42BAD31E
:1017A000D1B2E0736173DAB2A27300F04FF8207324
:1017B000BDE8F08170B50446FFF72AF805464FF4FE
:1017C0007A7606E0FFF724F8401BB04201D90320E7
:1017D00070BD206840688006F4D52068416841F0FB
:1017E00010014160002070BD70B50446006841687A
:1017F00021F010014160FFF70BF805464FF47A76AF
:1018000007E000BFFFF704F8401BB04201D90320F6
:1018100070BD206840688006F4D5002070BD016866
:10182000086A496A89B241EA0040704700688169E4
:101830008AB2C1698BB2816989B28A4203D0C06918
:1018400061F31F40704743EA02407047F0B56424DB
:10185000C1EBC1030927A500072603EB01130329E8
:10186000B3FBF7F100F5FA60114401440AD2401EBF
:10187000B0FBF4F201EB9001B0FBF5F0891A0844DB
:10188000001D08E0B0FBF4F201EB9001B0FBF5F0B5
:10189000891A0844801CB0FBF6F106FB1100C0B2A7
:1018A000F0BD70B50D4606460024FFF783FF48B92A
:1018B0003168280C08623168A8B248623046FFF7E8
:1018C00093FF00B10124204670BD70B50D46064659
:1018D0000024FFF76FFF48B93168280C8861316830
:1018E000A8B2C8613046FFF77FFF00B1012420464F
:1018F00070BD38B50B46009204460022802100F0EE
:1019000009F8002804D0606D40F0200060650320D5
:1019100038BD00002DE9F8431E469146884604462E
:10192000089DFEF775FF401B351AFEF771FF07464D
:1019300025480068C0F3CB30684338E0701C37D0CE
:10194000FEF766FFC01BA84203D215B1009860B332
:101950002CE02068416821F0E00141606068B0F54A
:10196000827F0BD1A068B0F5004F02D0B0F5806F38
:1019700004D12068016821F040010160A06AB0F53F
:10198000005F09D12068016821F4005101602068DE
:10199000016841F400510160012084F851000020E9
:1019A00084F850000320BDE8F8830025401E009015
:1019B0002068816838EA010004D000214945BDD182
:1019C0000020F0E70121F9E7480000202DE9F05F51
:1019D00005461A480C469846B0F9061091468D42C5
:1019E0002ADAB0F90400844226DA05EB09077F1EE3
:1019F0008F4221DA04EB0806761E86421CDADFF8F5
:101A000040B04FF4006A002251465846FEF7FBFEF4
:101A1000F3B2FAB2E1B2E8B200F094F94FEA490148
:101A200001FB08F10A9800F015FA51465846BDE846
:101A3000F05F0122FEF7E7BEBDE8F09F1400002032
:101A4000000C01402DE9F05F0C4606461546191BB7
:101A5000A2EB060000D54942002800DA404281424C
:101A600007DD304626461D464FF001080446134662
:101A700001E04FF00008AE4205DD30462E46054637
:101A800020461C460346A81B0FFA80F9181B00D5F8
:101A900040420FFA80FB09EBD97047109C4201DAF3
:101AA000012001E04FF0FF30824617E0B8F1000F4F
:101AB00002D0B1B2A0B201E0A1B2B0B20A9A00F075
:101AC00011F8A7EB0B0007B2002F05DA04EB0A00B0
:101AD00004B207EB090007B2761C36B2AE42E5DD70
:101AE000BDE8F09F2DE9F843054616480C4616461A
:101AF000B0F906108D4222DAB0F9040084421EDAF1
:101B0000DFF844804FF40067002239464046FEF774
:101B10007AFE601CC3B2681CC2B2E1B2E8B200F047
:101B200011F9300A8DF800008DF801600221684635
:101B300000F090F9012239464046FEF764FEBDE808
:101B4000F883000014000020000C01402DE9FE4F36
:101B5000DFF874B014460E4605464FF4006A984606
:101B6000002251465846FEF74EFEDFF8609008F01E
:101B7000FF071EE0B9F90630791999420BDBC8F36B
:101B800007218B199EB2B9F9040000253144814226
:101B900012DA202A0CD0DDE90D01CDE901010C9803
:101BA000009043463146284600F0F8F8781985B28F
:101BB000641C2278002ADDD103B051465846BDE8A6
:101BC000F04F0122FEF71FBE000C01401400002060
:101BD0002DE9F04110F8015B044617E0207800F091
:101BE00025F96078A41C00F0800730F0800604D04E
:101BF0003146204600F02EF934443FB114F8010B71
:101C0000FF2801D14FF4FA70FEF7F6FC6D1EEDB21D
:101C1000E4D2BDE8F08100002DE9F84F07462948DD
:101C20000E46DDF82880B0F906101C4615468F4296
:101C300046DAB0F90400864242DA7A19521E8A4224
:101C400001DBC91B8DB23119491E814201DB801BAA
:101C500084B2DFF874904FF4006A0022514648467F
:101C6000FEF7D1FD3019401EC3B27819401EC2B232
:101C7000F1B2F8B200F066F84FEA18208DF80000D3
:101C800001228DF8018091024846FEF7BCFD2646F0
:101C90004FF0FF370DE02C4607E03B460222694635
:101CA0000A48FFF75DFB641EA4B2002CF5D1761E36
:101CB000B6B2002EEFD1012251464846FEF7A3FDF1
:101CC000BDE8F88F14000020000C0140A0000020A7
:101CD00008B5009004488188C0888BB282B2002188
:101CE0000846FFF799FF08BD1400002070B5134D9A
:101CF0004FF40064002221462846FEF784FD0022AE
:101D000002212846FEF77FFD1420FEF775FC012214
:101D100002212846FEF777FD0948FFF759FF0848DA
:101D20003B30FFF755FF06484830FFF751FF21468B
:101D30002846BDE870400122FEF765BD000C014059
:101D400092450008F8B504461D4616460F462A205F
:101D500000F06CF82146104C00200090607801449F
:101D60008DF8011030448DF803000421684600F01E
:101D700071F82B2000F05AF8A07839188DF801106E
:101D800028448DF803000421684600F063F82C20F5
:101D900000F04CF8F8BD0000140000200FB42DE94D
:101DA000FF5F4A1EC3F307263244D4B2DFB2421E9D
:101DB000DDE913A93A44D2B2C9B2C0B22346FFF753
:101DC000C1FF00252CE010981299203800FB065026
:101DD000002431F810804FEA1A2002900AF0FF0028
:101DE00001904FEA192009F0FF0B009015E000BFA9
:101DF00008FA04F0000406D502988DF80C0001984A
:101E00008DF80D0004E000988DF80C008DF80DB0F1
:101E1000022103A800F01EF8641CA742E8D86D1C3C
:101E2000AE42D0D8BDE8FF1F5DF814FB01B500221B
:101E30004FF480610548FEF7E6FC4FF0FF330122C6
:101E400069460348FFF78CFA08BD0000000C01400A
:101E5000A000002070B50D460446012291020648FC
:101E6000FEF7D1FCAAB22146BDE870404FF0FF3327
:101E70000248FFF775BA0000000C0140A0000020E6
:101E80007047FEF7CBBC70B594B028216846FEF7CA
:101E9000B3FA14210AA8FEF7AFFA00250F9509201E
:101EA000012410950090119512954FF48030049400
:101EB0000694CDE901050226CDE907604FF4E01054
:101EC00009906846FEF7F0FE08B172B6FEE70F20F3
:101ED000CDE90A0680200C90C000CDE90D05022155
:101EE0000AA8FEF705FE08B172B6FEE74FF40070CF
:101EF000CDE90F400FA8FEF785FD002801D072B68E
:101F0000FEE714B070BD70470248012101700078EF
:101F1000704700004C0000200120704700207047EF
:101F20000248012101700078704700004C00002039
:101F300000207047FEE70907090E002804DB00F1C6
:101F4000E02080F80014704700F00F0000F1E0205E
:101F500080F8141D704730380A2801D201207047DC
:101F600000207047FEB500F059F81D4C05460228C8
:101F700002D0012D03D005E06078401E01E06078BA
:101F8000401C60706078012804D0022804D0032827
:101F900006D117E013A100E016A11A48FEF718F9C0
:101FA00019484FF61F071F26CDE9016741680091C8
:101FB0000368144A0A210D20FFF7C8FD052D03D040
:101FC0000020FEBD11A1E8E73846FFF781FE592247
:101FD0000023A02110460096FFF734FD6078FEBD77
:101FE000000000205A4F524C554B203A204B4F4C8A
:101FF000415900005A4F524C554B203A204F5254F1
:102000004120000074000020040000205A4F524C70
:10201000554B203A205A4F52202000002DE9F0471E
:10202000394C04212046FEF7E9FB82460821204670
:10203000FEF7E4FB814602212046FEF7DFFB8046E7
:1020400001212046FEF7DAFB064640212046FEF736
:10205000D5FB2E4F054601213846FEF7CFFB014642
:10206000BAF1010F0ED0B9F1010F16D0B8F1010F7E
:102070001ED0012E27D0012D30D0012939D00020CB
:10208000BDE8F08704212046FEF7B8FB0028F9D10F
:102090000A20FEF7B1FA0120F2E708212046FEF7F8
:1020A000ADFB0028F9D10A20FEF7A6FA0220E7E7E7
:1020B00002212046FEF7A2FB0028F9D10A20FEF7F4
:1020C0009BFA0320DCE701212046FEF797FB00285E
:1020D000F9D10A20FEF790FA0420D1E740212046EA
:1020E000FEF78CFB0028F9D10A20FEF785FA0520BF
:1020F000C6E701213846FEF781FB0028F9D10A2006
:10210000FEF77AFA0620BBE700080140000C014008
:1021100010B5044600F5805000220271521EC262C2
:10212000204600F08DFF08B1032010BDB4F8FE0179
:10213000A0F52A41553901D0022010BD94F836008F
:1021400094F8391094F8372040EA016194F8380087
:10215000000440EA022001430A48B0EB012F0DD0F1
:1021600014F8521FE278637841EA0261A2781204FF
:1021700042EA03221143B0EB012F01D1002010BD30
:10218000012010BD0046415430B50021064A0C46DE
:1021900001EB410352F82350854201D142F823401C
:1021A000491C0229F4D330BD741200202DE9F74FE9
:1021B000B04A044684B00420107000205FF0010192
:1021C000C0EBC00303EB43032344401CD9740B282A
:1021D000F6DB4FF0FF3A00BFFFF720FF032802D0E5
:1021E000042827D04CE0A34D2878C0EBC00101EBB8
:1021F00041010A1902EB0A0191F8541001293FD05C
:10220000062801D9062028700A20FEF7F5F928785B
:102210004FF61F01401CC0B228704FF6FF720091AC
:1022200002EACA016FF0060202EBC000072380B287
:10223000082221E08F4D2878C0EBC00101EB41015D
:102240000A1902EB0A0111F8151C012916D008B968
:10225000012028700A20FEF7CFF928784FF61F01D9
:10226000401EC0B228704FF6FF720091C00002EA13
:10227000CA01072308222030FFF7CEFCAAF1010A89
:102280007C4D2878C0EBC00000EB4000204410F8E3
:102290000A1001294ED05044417D01294AD090F8BE
:1022A0002A10012946D090F83F00012842D0069814
:1022B000FEF7A2F91F2700972A784FEACA064FF0C7
:1022C0000108083608EBC2000723B1B21A46FFF72F
:1022D000A3FC00972878092202EBC0000723B1B2C3
:1022E0001A46FFF799FC00972878112202EBC000EC
:1022F0000723B1B21A46FFF78FFC009728781922FE
:1023000002EBC0000723B1B21A46FFF785FC4FF677
:102310001F0000902A784FF6FF7108EBC20001EA17
:10232000CA0107231F22FFF777FC00204FF0120994
:10233000019028E04F4901200A78C2EBC20202EB6B
:102340004202131903EB0A0202F8010C0A78C2EBED
:10235000C20202EB4202131903EB0A0210750A785B
:10236000C2EBC20202EB42022244524482F829002C
:102370000978C1EBC10101EB41010A1902EB0A0125
:1023800081F83E0072E00027C7EBC70000EB400079
:102390002044494610F80900F0B30198401CC0B22F
:1023A00001900B2848D105980A3080B20590002092
:1023B00001900D0040D400BFE80008304FF61F0820
:1023C00081B2029007235922CDF800800020FFF748
:1023D00023FC4FF6FF70002600EAC50BC6EBC600D3
:1023E00000EB400000EB040808EB0501002011F8A9
:1023F000012D08F8052008704FF61F00009059467F
:10240000072359220020FFF707FC18F805000128D0
:102410000DD11F20009000E00EE00120029900EB9A
:10242000C600072389B280B21A46FFF7F5FB761C77
:102430000B2ED3DB6D1EBFD57F1C0B2FA4DB002022
:10244000A9F101090190B9F1000F9CDCC0EBC001BA
:1024500001EB4101615C012902D0401C0B28F5DB36
:102460000AF1010ABAF1140FFFF6B6AE059807B0EB
:10247000BDE8F08F000000202DE9F74FAE4A04467A
:1024800084B00420107000205FF00101C0EBC00395
:1024900003EB43032344401CD9740B28F6DB4FF0B5
:1024A000FF3900BFFFF7BAFD032802D0042826D069
:1024B0004BE0A14D2878C0EBC00101EB4101214464
:1024C000494491F8541001293FD0092801D9092025
:1024D00028700A20FEF790F828784FF61F01401C5C
:1024E000C0B228704FF6FF72009102EAC9016FF086
:1024F000060202EBC0001F2380B2082221E08E4DAD
:102500002878C0EBC00101EB41010A1902EB090177
:1025100011F8151C012916D008B9012028700A20CD
:10252000FEF76AF828784FF61F01401EC0B22870E7
:102530004FF6FF720091C00002EAC9011F23082272
:102540000830FFF769FBA9F101097B4E3078C0EB39
:10255000C00000EB4000011901EB0900C078012820
:1025600049D00698FEF748F84FEAC9054FF01F0812
:1025700005F1080081B2CDF80080307801270723EB
:1025800007EBC0001A46FFF747FB05F1100081B2C8
:10259000CDF800803078072307EBC0001A46FFF71C
:1025A0003BFB05F1180081B2CDF80080307807239D
:1025B00007EBC0001A46FFF72FFBCDF800803078FC
:1025C00020350723A9B207EBC0001A46FFF724FB0A
:1025D0004FF61F00009030784FF6FF71072301EA95
:1025E000C90107EBC0001A46FFF716FB4FF0000BBE
:1025F0004FF0120A26E0504901200A78C2EBC202CD
:1026000002EB4202131903EB090202F8010C0A78EB
:10261000C2EBC20202EB4202131903F809000A7866
:10262000C2EBC20202EB4202131903EB0902507023
:102630000978C1EBC10101EB41010A1902EB090163
:10264000887075E05FF00007C7EBC70000EB400043
:10265000011911F80A00E8B30BF1010000F0FF0BBB
:10266000BBF10B0F48D105984FF0000B0A3080B238
:1026700005905FEA0A053FD4E80008304FF61F08CE
:10268000CDE9008081B2072359220020FFF7C4FA68
:102690004FF6FF7000EAC50000260290C6EBC600A8
:1026A00000EB400000EB040808EB0501002011F8E6
:1026B000012D08F8052008704FF61F000090072331
:1026C000592200200299FFF7A7FA18F805000128FF
:1026D0000DD100E010E01F2000900120019900EBD7
:1026E000C600072389B280B21A46FFF795FA761C16
:1026F0000B2ED3DB6D1EBFD57F1C0B2FA4DBAAF1E5
:10270000010A4FF0000BBAF1000F9BDC5FF00000F4
:10271000C0EBC00101EB4101615C012902D0401C0A
:102720000B28F5DB09F10109B9F1140FFFF6BAAE78
:10273000059807B0BDE8F08F00000020084910B5EB
:102740000B5C002253B901220A540A1801EB8000E5
:10275000127A40680168104688470246104610BD4C
:102760008C14002030B4054C231804EB80001B7A35
:10277000406804691846A44630BC60478C140020A9
:1027800030B4054D2C1805EB8000247A406885682C
:102790002046AC4630BC60478C140020044A111817
:1027A00002EB8000097A4068426808461047000042
:1027B0008C14002030B4054D2C1805EB8000247AD1
:1027C0004068C5682046AC4630BC60478C14002089
:1027D0002DE9F74181B0904602980090684600F0DC
:1027E00097F9040003D50B2004B0BDE8F081104E2A
:1027F000002756F824502DB12846FFF7C5FC05F5F3
:1028000080552F700198002803D000BF4FF48051ED
:102810000F5446F8240002D0B8F1010F01D0002077
:10282000E2E7002202A901A800F004F8DCE70000BA
:10283000700000202DE9FF5F4FF0000B0546C0F847
:1028400000B01746084600F063F9060003D50B20D8
:1028500004B0BDE8F09FAB4850F826409CB12C6016
:1028600004F58055287820B16878FFF797FFC107F5
:102870000BD085F800B0F0B26870FFF75FFFC107BA
:1028800008D00320E4E70C20E2E70FB1400704D4AE
:102890000020DDE71FB1400701D50A20D8E741F24B
:1028A0000A01621868780221FFF75CFF88BB68891B
:1028B000B0F5007F36D3B0F5805F33D800263146BF
:1028C0002046FFF725FC012828D100214FEA0D0200
:1028D00004EB011090F8C23100F5DF704BB1037AC0
:1028E000C67A43EA0663867A407A360446EA0020CE
:1028F000034342F82130491C0429E9D300279046BC
:1029000058F8276036B131462046FFF701FC10B970
:102910000AE007E002207F1C042FF1D3032801D036
:10292000F0BB01E0012093E7B4F80B00B5F80AC052
:1029300060456FD1E08A68B994F8240094F82710B4
:1029400094F8252040EA016094F82610090441EA31
:1029500002210843A861217C8246E970012901D047
:10296000022957D101FB00F9607BA870C0B1411E5C
:1029700008424FD1B4F811104FEA5C12B1FBF2F3E8
:1029800002FB131329815BB9B4F813707FB994F873
:10299000203094F8237043EA076794F8223000E06F
:1029A00038E094F821801B0443EA08231F43E3899D
:1029B00083B3B1FBF2F803EB09024244974229D3F7
:1029C000BF1AB7FBF0F028B3012740F6F678404570
:1029D00000D302274FF6F678404500D30327801C2A
:1029E0003244AA6233446861C5E90763032F13D0F8
:1029F00081B103EB09016962022F20D000F00101CF
:102A000000EB400001EB5000401E6044B0FBFCF1C5
:102A1000514516D90D201BE70029FBD194F82C1045
:102A200094F82F2094F82D3041EA026194F82E207A
:102A3000120442EA0322114380006962E4E7400085
:102A4000E2E74FF0FF302861E86080206871032FD3
:102A50004DD1208E01284AD12046711C00F0F0FA99
:102A6000F0BB85F805B0B4F8FE01A0F52A41553950
:102A70003DD12078E178627840EA0160A1780904CC
:102A800041EA022108432049884230D194F8E40108
:102A900094F8E71194F8E52140EA016094F8E61112
:102AA000090441EA02210843184988421FD194F8D9
:102AB000E80194F8EB1194F8E92140EA016094F8F8
:102AC000EA11090441EA02210843286194F8EC0163
:102AD00094F8EF1140EA016094F8EE11090400E067
:102AE00005E094F8ED2141EA02210843E860054938
:102AF0002F70091F0888401C0880E8802046FFF7D7
:102B000043FBC5E670000020525261417272416180
:102B100010B504464FF0FF302268002A13D011464A
:102B200000E0491C0B78202B0ED33A2BF9D112F878
:102B3000013B303B0A2B06D28A4204D1002B02D142
:102B4000491C1846216010BD002010BD2DE9F74F2B
:102B5000BF4B044684B00420187000205FF00101D0
:102B6000C0EBC00202EB42022244401CD1740B288D
:102B7000F6DB4FF0FF3A00BFFFF750FA032802D010
:102B8000042827D04DE0B24D2878C0EBC00101EBFE
:102B900041010A1902EB0A0191F82A10012940D0DB
:102BA000082801D9082028700A20FDF725FD28787B
:102BB0004FF61F01401CC0B228704FF6FF72009103
:102BC00002EACA016FF0060202EBC0000F2380B2D6
:102BD000072222E09E4D2878C0EBC00101EB4101A5
:102BE0000A1902EB0A0111F8151C012919D008B9BC
:102BF000012028700A20FDF7FFFC28784FF61F01FE
:102C0000401EC0B228704FF6FF72009102EACA015E
:102C1000092202EBC0000F231A46FEF7FDFFAAF1BE
:102C2000010A8B4D2878C0EBC00000EB4000204427
:102C30005044417801296DD0807D01286AD00698E2
:102C4000FDF7DAFC4FF01F08CDF800802A784FEA34
:102C5000CA064FF0010906F1080709EBC200072375
:102C6000B9B21A46FEF7D8FFCDF800802A784FF0A7
:102C7000090B0BEBC2000723B9B21A46FEF7CCFFD3
:102C8000CDF800802A78083709EBC2000723B9B2D3
:102C90001A46FEF7C1FFCDF800802A7807230BEB18
:102CA000C200B9B21A46FEF7B7FF4FF61F08CDF8BB
:102CB00000802A784FF6FF7101EACA0109EBC200D1
:102CC00007230F461A46FEF7A7FFCDF800802A78A3
:102CD00007230BEBC20039461A46FEF79DFFCDF8DD
:102CE00000802A78A6F1080709EBC2000723B9B2D1
:102CF0001A46FEF791FFCDF800802A7807230BEBE8
:102D0000C200B9B21A46FEF787FF00204FF0120941
:102D1000019026E04E4901200A78C2EBC20202EB84
:102D20004202131903EB0A0202F8010C0A78C2EB03
:102D3000C20202EB4202131903EB0A0210750A7871
:102D4000C2EBC20202EB4202131903F80A0009782F
:102D5000C1EBC10101EB41010A1902EB0A014875FF
:102D600072E00027C7EBC70000EB4000011911F823
:102D70000900E8B30198401CC0B201900B2849D368
:102D800005980A3080B20590002001905FEA09059D
:102D900040D400BFE80008304FF61F0881B202900F
:102DA00007235922CDF800800020FEF735FF4FF6AB
:102DB000FF70002600EAC50BC6EBC60000EB400022
:102DC00000EB040808EB0501002011F8012D08F8BC
:102DD000052008704FF61F0000905946072359221E
:102DE0000020FEF719FF18F8050001280DD100E0BA
:102DF00010E01F2000900120029900EBC60007237D
:102E000089B280B21A46FEF707FF761C0B2ED3DB81
:102E10006D1EBFD57F1C0B2FA4DB0020A9F101097B
:102E20000190B9F1000F9CDCC0EBC00101EB410146
:102E3000615C012902D0401C0B28F5DB0AF1010A74
:102E4000BAF1140FFFF698AE059807B0BDE8F08F01
:102E5000000000200EB5FDF7E9FCFFF714F8FEF7BF
:102E600055FBFEF7C5FB694867494FF00009016053
:102E70004FF0FF31416080218160FEF739F908B1E0
:102E800072B6FEE7FEF7D6FBFEF732FB01225103D6
:102E90005F48FDF7B8FC5F4C00224FF4805120469C
:102EA000FDF7B1FC0022E1142046FDF7ACFC002246
:102EB0004FF400412046FDF7A6FC574C002240216C
:102EC0002046FDF7A0FC002220212046FDF79BFCB8
:102ED000002210212046FDF796FC01220821204601
:102EE000FDF791FCFEF702FF4FF6FF70FEF7F0FED4
:102EF0004A4800902623422234211E20FEF766FD18
:102F00004FF4FA70FDF778FB4FF61F063046FEF7D8
:102F1000DFFE012242A14348FFF75AFC424DDFF891
:102F20000CA14FF01F0868702C4602E0FFF71AF85A
:102F3000207020780028F9D0C0B2012804D00228DF
:102F400004D0032804D13EE0962000E064208346AC
:102F5000FEF796FB364FCDE9018678680090324A3D
:102F6000962111325C203B68FEF7F0FD608803215A
:102F7000B0FBF1F201FB120060802B48A2882DA16A
:102F80000930FDF725F9CDE90196786800902AA26D
:102F900005215F203B68FEF7D9FDA088CDE90186B9
:102FA000DAF804100091204A0028DAF80030504680
:102FB00002F109024FF0100107D06220FEF7C6FDB2
:102FC000608820B10AE03220C1E76920F6E70F48A7
:102FD0005A46A188C430FFF7B9FDA0806088012857
:102FE00006D10A485A46A188C430FFF7DFF8A0800E
:102FF0006088022898D105485A46A188C430FFF756
:103000003BFAA08090E70000002800408C000020E0
:103010000010014000080140000C01400646000875
:103020002F00000044020020200000200C0000209F
:103030000400002025640000534B4F5200000000A4
:103040002DE9F04100F580540746E06A0E46002560
:10305000B0420ED0384600F00FF8050009D1607874
:10306000012332463946FFF78BFB08B16E1E01255E
:10307000E6622846BDE8F0812DE9F04100F5805474
:10308000804620790027E8B1E56A607801232A4666
:103090004146FFF78FFB08B1012713E000202071A4
:1030A000206AA169281A88420CD2E67808E0A06953
:1030B0000123054460782A464146FFF77BFB761ED4
:1030C000022EF4D23846BDE8F08100000000000076
:1030D00000000000000000000000000000000010E0
:1030E0000010001000100010001000000010000080
:1030F0000000002800280028000000000000000058
:1031000000000000000000240024007C002400488F
:10311000007C0048004800000000003800540050C7
:103120000038001400540054003800100000002043
:10313000005400580030002800540014000800001B
:10314000000000100028002800100034004800484B
:10315000003400000000001000100010000000000B
:103160000000000000000000000000080010002027
:103170000020002000200020002000100008002077
:1031800000100008000800080008000800080010EF
:10319000002000100038001000280000000000008F
:1031A0000000000000000000000000100010007C83
:1031B00000100010000000000000000000000000EF
:1031C00000000000000000000010001000100000CF
:1031D00000000000000000000038000000000000B7
:1031E00000000000000000000000000000000000DF
:1031F000001000000000000800080010001000107F
:1032000000100020002000000000003800440044AE
:103210000054004400440044003800000000001046
:1032200000300050001000100010001000100000CE
:103230000000003800440044000400080010002092
:10324000007C000000000038004400040018000466
:1032500000040044003800000000000800180028A6
:1032600000280048007C0008000800000000007CE6
:1032700000400040007800040004004400380000D2
:10328000000000380044004000780044004400443E
:10329000003800000000007C00040008001000104E
:1032A00000200020002000000000003800440044FE
:1032B000003800440044004400380000000000389A
:1032C000004400440044003C000400440038000076
:1032D00000000000000000100000000000000000DE
:1032E00000100000000000000000000000100000BE
:1032F0000000000000100010001000000000000C92
:10330000003000400030000C000000000000000011
:1033100000000000007C0000007C000000000000B5
:1033200000000000000000600018000400180060A9
:1033300000000000000000380044000400080010F5
:103340000010000000100000000000380044004C95
:103350000054005C004000400038000000000010F5
:103360000028002800280028007C004400440000B9
:103370000000007800440044007800440044004409
:103380000078000000000038004400400040004089
:103390000040004400380000000000700048004475
:1033A0000044004400440048007000000000007C1D
:1033B00000400040007C004000400040007C0000D5
:1033C0000000007C004000400078004000400040C9
:1033D0000040000000000038004400400040005C55
:1033E0000044004400380000000000440044004451
:1033F000007C004400440044004400000000003809
:103400000010001000100010001000100038000024
:103410000000000400040004000400040004004450
:1034200000380000000000440048005000600050D8
:1034300000480048004400000000004000400040F8
:103440000040004000400040007C000000000044BC
:10345000006C006C00540044004400440044000030
:10346000000000440064006400540054004C004C10
:1034700000440000000000380044004400440044C0
:10348000004400440038000000000078004400447C
:103490000044007800400040004000000000003878
:1034A0000044004400440044004400540038000438
:1034B00000000078004400440044007800480048C0
:1034C00000440000000000380044004000300008C4
:1034D00000040044003800000000007C00100010D0
:1034E0000010001000100010001000000000004448
:1034F00000440044004400440044004400380000FC
:103500000000004400440044002800280028001067
:103510000010000000000044004400540054005417
:10352000006C00280028000000000044002800284B
:103530000010001000280028004400000000004493
:1035400000440028002800100010001000100000A7
:103550000000007C00040008001000100020004063
:10356000007C000000000018001000100010001087
:1035700000100010001000100018002000200010A3
:1035800000100010001000080008000000000030CB
:1035900000100010001000100010001000100010AB
:1035A0000030001000280028004400000000000047
:1035B000000000000000000000000000000000000B
:1035C000000000000000000000FE002000100000CD
:1035D00000000000000000000000000000000000EB
:1035E000000000380044003C0044004C003400005F
:1035F00000000040004000580064004400440064A3
:1036000000580000000000000000003800440040A6
:1036100000400044003800000000000400040034B2
:10362000004C00440044004C003400000000000046
:10363000000000380044007C0040004400380000D6
:103640000000000C0010007C0010001000100010A2
:10365000001000000000000000000034004C004496
:103660000044004C00340004007800400040005842
:1036700000640044004400440044000000000010C6
:10368000000000700010001000100010001000007A
:10369000000000100000007000100010001000106A
:1036A0000010001000E000400040004800500060A2
:1036B000005000480044000000000070001000109E
:1036C00000100010001000100010000000000000AA
:1036D00000000078005400540054005400540000CE
:1036E0000000000000000058006400440044004452
:1036F00000440000000000000000003800440044C6
:1037000000440044003800000000000000000058A1
:103710000064004400440064005800400040000081
:1037200000000034004C00440044004C003400040D
:103730000004000000000058006400400040004009
:10374000004000000000000000000038004400308D
:10375000000800440038000000000020002000782D
:1037600000200020002000200018000000000000C1
:1037700000000044004400440044004C00340000B9
:103780000000000000000044004400280028002839
:10379000001000000000000000000054005400541D
:1037A000006C002800280000000000000000004419
:1037B0000028001000100028004400000000000055
:1037C00000000044004400280028001000100010F1
:1037D000006000000000007C000800100020004095
:1037E000007C0000000000180010001000100020F5
:1037F0000020001000100010001800100010001031
:103800000010001000100010001000100010003018
:103810000010001000100008000800100010001038
:1038200000300000000000000074004C00000000A8
:103830000000000000000000000000000000000088
:103840000000000000000000000000000000000078
:10385000000000000000000000000000000C000C50
:10386000000C000C000C000C000C000C000C000CF8
:10387000000C0000000C000C000000000000000024
:10388000001B001B001B001B001B000000000000B1
:103890000000000000000000000000000000000028
:1038A000000000008019801980198019C07FC07F36
:1038B00080190033C07FC07F0033003300330033F2
:1038C0000000000000000000001E003F80758065C1
:1038D0000074003C001E00078005806580658075CF
:1038E000003F001E0004000400000000007000D82B
:1038F00040D8C0D880D900730006000C801BC036A9
:10390000C066C046C0068003000000000000000042
:10391000001E003F003300330033001E000CC03C8B
:10392000C066806380618063C03E801C0000000030
:1039300000000000000C000C000C000C000C00004B
:103940000000000000000000000000000000000077
:1039500000000000000080000001000300060006D7
:103960000004000C000C000C000C000C000C000407
:10397000000600060003000180000020001000186F
:10398000000C000C000400060006000600060006FD
:1039900000060004000C000C0018001000200000BD
:1039A000000C002D003F001E00330000000000004E
:1039B0000000000000000000000000000000000007
:1039C0000000000000000000000C000C000C000CC7
:1039D000C0FFC0FF000C000C000C000C0000000039
:1039E00000000000000000000000000000000000D7
:1039F00000000000000000000000000000000000C7
:103A0000000C000C0004000400080000000000008E
:103A1000000000000000000000000000001E001E6A
:103A20000000000000000000000000000000000096
:103A30000000000000000000000000000000000086
:103A40000000000000000000000C000C000000005E
:103A5000000000000003000300030006000600064B
:103A60000006000C000C000C000C001800180018D8
:103A70000000000000000000001E003F00338061D5
:103A800080618061806D806D8061806180610033C4
:103A9000003F001E00000000000000000006000EB5
:103AA000001E00360026000600060006000600067E
:103AB00000060006000600060000000000000000EE
:103AC000001E003F8073806180618001000300065A
:103AD000000C001800300060807F807F0000000034
:103AE00000000000001C003E006300630003000EA5
:103AF000000E00038001800180618073003F001E82
:103B000000000000000000000006000E000E001E75
:103B1000001E0016003600360066807F807F00069B
:103B2000000600060000000000000000007F007F8B
:103B3000006000600060006E007F80638001800193
:103B400080618073003F001E000000000000000044
:103B5000001E003F803380610060006E007F807334
:103B60008061806180618033003F001E00000000A2
:103B700000000000807F807F8001000300030006BA
:103B80000006000C000C000C0008001800180018BB
:103B90000000000000000000001E003F8063806104
:103BA00080610021001E003F806180618061806132
:103BB000003F001E0000000000000000001E003F4B
:103BC00000738061806180618073803F801D80010F
:103BD00080610073003F001E000000000000000034
:103BE0000000000000000000000C000C00000000BD
:103BF0000000000000000000000C000C00000000AD
:103C00000000000000000000000000000000000CA8
:103C1000000C00000000000000000000000C000C80
:103C20000004000400080000000000000000800004
:103C30008003000E003800600038000E8003800012
:103C40000000000000000000000000000000000074
:103C500000000000807F807F00000000807F807F68
:103C60000000000000000000000000000000000054
:103C700000000000000000400070001C00078001F0
:103C80000007001C00700040000000000000000061
:103C900000000000001F803FC071C060C000C00174
:103CA00080030007000E000C000C0000000C000C4C
:103CB0000000000000000000001E003F8031807105
:103CC0008063806F806D806D806F806700600032E0
:103CD000003E001C0000000000000000000E000E6E
:103CE000001B001B001B001B80318031803F803F88
:103CF0008031C060C060C0600000000000000000B3
:103D0000007C007E0063006300630063007E007E31
:103D10000063806180618063007F007E000000009E
:103D200000000000001E003F8031806100600060E4
:103D3000006000600060006080618031003F001E14
:103D40000000000000000000007C007F0063806332
:103D50008061806180618061806180610063006357
:103D6000007E007C0000000000000000807F807F5B
:103D70000060006000600060007F007F0060006005
:103D800000600060807F807F000000000000000075
:103D9000807F807F0060006000600060007F007FA7
:103DA00000600060006000600060006000000000D3
:103DB00000000000001E003F803180610060006054
:103DC000006080638063806180618031803F001E7D
:103DD000000000000000000080618061806180615F
:103DE00080618061807F807F80618061806180618F
:103DF000806180610000000000000000003F003F83
:103E0000000C000C000C000C000C000C000C000C52
:103E1000000C000C003F003F00000000000000000C
:103E2000800180018001800180018001800180018A
:103E30008001806180618073003F001E00000000EF
:103E400000000000C0608061006300660066006CD6
:103E50000078007C00660066006380618061C0605D
:103E600000000000000000000060006000600060D2
:103E70000060006000600060006000600060006042
:103E8000807F807F0000000000000000C071C071D2
:103E9000C07BC07AC06AC06AC06EC064C060C060C7
:103EA000C060C060C060C060000000000000000092
:103EB00080718071807980798079806D806D806D6E
:103EC0008065806780678067806380630000000092
:103ED00000000000001E003F0033806180618061AF
:103EE000806180618061806180610033003F001EDD
:103EF0000000000000000000007E007F8063806101
:103F0000806180618063007F007E006000600060EF
:103F1000006000600000000000000000001E003F84
:103F20000033806180618061806180618061806533
:103F300080670033803F401E00000000000000004A
:103F4000007E007F8063806180618063007F007EEF
:103F500000660063006380618061C0600000000053
:103F600000000000000E001F80318031003000385A
:103F7000001E00078003806180618031003F001EC9
:103F80000000000000000000C0FFC0FF000C000C9B
:103F9000000C000C000C000C000C000C000C000CC1
:103FA000000C000C00000000000000008061806137
:103FB00080618061806180618061806180618061F9
:103FC00080618073003F001E0000000000000000C0
:103FD000C060C060C060803180318031001B001B38
:103FE000001B001B000E000E000E0004000000006D
:103FF00000000000C0C0C0C0C0C0C0C0C0C0C0CCB5
:10400000804C804C805E80528052807380618061E1
:104010000000000000000000C0C08060806100332C
:10402000003B001E000C000C001E001F003B8071B6
:104030008061C0C00000000000000000C0C08061BE
:10404000806100330033001E001E000C000C000CC9
:10405000000C000C000C000C000000000000000030
:10406000803F803F8001000300030006000C000C2D
:104070000018001800300060807F807F0000000082
:104080000000000F000F000C000C000C000C000CD6
:10409000000C000C000C000C000C000C000C000CC0
:1040A000000C000F000F0000001800180018000C92
:1040B000000C000C000C00060006000600060003C1
:1040C00000030003000000000000001E001E0006A8
:1040D00000060006000600060006000600060006B0
:1040E00000060006000600060006001E001E000076
:1040F000000C000C001E0012003300338061806150
:1041000000000000000000000000000000000000AF
:10411000000000000000000000000000000000009F
:10412000000000000000000000000000000000008F
:104130000000E0FF0000000000380018000C000044
:10414000000000000000000000000000000000006F
:10415000000000000000000000000000000000005F
:1041600000000000001F803F80618001801F803FB1
:1041700080618063807FC038000000000000000084
:104180000060006000600060006E007F80738061EE
:104190008061806180618073007F006E000000009C
:1041A000000000000000000000000000001E003FB2
:1041B000807380610060006080618073003F001E3A
:1041C00000000000000000008001800180018001EB
:1041D000801D803F80738061806180618061807319
:1041E000803F801D00000000000000000000000073
:1041F00000000000001E003F00738061807F807F10
:1042000000608071003F001E000000000000000000
:10421000C007C00F000C000C807F807F000C000CDA
:10422000000C000C000C000C000C000C0000000046
:1042300000000000000000000000801D803F80732F
:1042400080618061806180618073803F801D80011A
:104250008063007F003E000000600060006000603E
:10426000006F807F8071806180618061806180618A
:104270008061806100000000000000000006000670
:1042800000000000003E003E00060006000600069A
:104290000006000600060006000000000000000600
:1042A000000600000000003E003E0006000600067A
:1042B0000006000600060006000600060046007E16
:1042C000003C0000006000600060006080610063EE
:1042D0000066006C007C0076006300638061C06053
:1042E0000000000000000000003E003E0006000646
:1042F000000600060006000600060006000600068E
:1043000000060006000000000000000000000000A1
:104310000000000080DDC0FFC0CEC0CCC0CCC0CC4F
:10432000C0CCC0CCC0CCC0CC00000000000000005D
:104330000000000000000000006F807F807180613D
:104340008061806180618061806180610000000027
:10435000000000000000000000000000001E003F00
:10436000807380618061806180618073003F001E86
:104370000000000000000000000000000000006ECF
:10438000007F807380618061806180618073007FC5
:10439000006E00600060006000600000000000002F
:1043A0000000801D803F807380618061806180613A
:1043B0008073803F801D80018001800180010000AA
:1043C00000000000000000000067803F003900305E
:1043D00000300030003000300030003000000000BD
:1043E000000000000000000000000000001E803FF0
:1043F00080610060007F803F80018061007F001E3F
:104400000000000000000000000000080018001874
:10441000007F007F0018001800180018001800180E
:10442000801F800F0000000000000000000000005E
:104430000000000080618061806180618061806136
:1044400080618063807F803D0000000000000000EC
:104450000000000000000000C06080318031803129
:10446000001B001B001B000E000E000600000000D9
:1044700000000000000000000000000080DD80DD82
:1044800080DD00550055005500770077002200229E
:10449000000000000000000000000000000000001C
:1044A000806100330033001E000C000C001E00333E
:1044B00000338061000000000000000000000000E8
:1044C000000080618061803100330033001B001BDD
:1044D000001B000E000E000E001C007C007000008F
:1044E0000000000000000000C07FC07F80010003CA
:1044F0000006000C00180030C07FC07F00000000E4
:104500000000800380070006000600060006000683
:10451000000E001C001C000E00060006000600062F
:10452000000680078003000600060006000600065D
:10453000000600060006000600060006000600064B
:10454000000600060006000600060038003C000CCD
:10455000000C000C000C000C000E00070007000E01
:10456000000C000C000C000C000C003C003800009B
:104570000000000000000000000000008038807F84
:1045800000470000000000000000000000000000E4
:1045900000000F0180961180FFB103012C2DB203A2
:1045A000012C2DB306012C2D012C2DB40107C003C5
:1045B000A20284C101C5C2020A00C3028A2AC4023F
:1045C0008AEEC5010E20003601C03A0105022A0418
:1045D0000000007F2B040000007F04E010021C0795
:1045E000123732292D29252B3900010310E1100340
:1045F0001D07062E2C292D2E2E373F0000021013EA
:10460000800A29806400FFFFFFFFFFFFFFFFFFFF1D
:10461000FFFFFFFFFFFFFFFFFFFFFFFFFFFFFFFFAA
:10462000FFFFFFFFFFFFFFFFFFFFFFFFFFFFFFFF9A
:10463000FFFFFFFFFFFFFFFFFFFFFFFFFFFFFFFF8A
:10464000FFFFFFFFFFFFFFFFFFFFFFFFFFFFFFFF7A
:10465000FFFFFFFFFFFFFFFFFFFFFFFFFFFFFFFF6A
:10466000FFFFFFFFFFFFFFFFFFFFFFFFFFFFFFFF5A
:10467000FFFFFFFFFFFFFFFFFFFFFFFFFFFFFFFF4A
:10468000FFFFFFFFFFFFFFFFFFFFFFFFFFFFFFFF3A
:10469000FFFFFFFFFFFFFFFFFFFFFFFFFFFFFFFF2A
:1046A000000000000000000000000000000000000A
:1046B00000000000FFFFFFFFFFFFFFFFFFFFFFFF06
:1046C000FFFFFFFFFFFFFFFFFFFFFFFFFFFFFFFFFA
:1046D000FFFF0000000000000000000000000000DC
:1046E0000000FFFFFFFFFFFFFFFFFFFFFFFFFFFFD8
:1046F000FFFFFFFFFFFFFFFFFFFF000000000000C4
:1047000000000000000000000000FFFFFFFFFFFFAF
:10471000FFFFFFFFFFFFFFFFFFFFFFFFFFFFFFFFA9
:10472000FFFFFFFF0000000000000000000000008D
:104730000000000000000000FFDFFFFFFFFFFFFFA1
:10474000FFFFFFFFFFFFFFFFFFFFFFFFFFFFFFFF79
:10475000FFFFFFFFFFFF000000000000000000005F
:10476000000000000000FFFFFFFFFFFFFFFFFFFF53
:10477000FFFFFFFFFFFFFFFFFFFFFFFFFFFF000047
:104780000000000000000000000000000000FFFF2B
:10479000FFFFFFFFFFFFFFFFFFFFFFFFFFFFFFFF29
:1047A000FFFFFFFFFFFF000000000000000000000F
:1047B0000000000000000000000000000000FFFFFB
:1047C000FFFFFFFFFFFFFFFFFFFFFFFFFFFFFFFFF9
:1047D000FFFFFFFFFFFFFFFFFFFF000000000000E3
:1047E00000000000000000000000FFFFFFFFFFFFCF
:1047F000FFFFFFFFFFFFFFFFFFFFFFFFFFFFFFFFC9
:10480000FFFF0000000000000000000000000000AA
:104810000000FFFFFFFFFFFFFFFFFFFFFFFFFFFFA6
:10482000FFFFFFFFFFFFFFFFFFFF00000000000092
:104830000000000000000000000000000000000078
:104840000000FFFFFFFFFFFFFFFFFFFFFFFFFFFF76
:10485000FFFFFFFFFFFFFFFFFFFFFFFFFFFF000066
:104860000000000000000000000000000000FFFF4A
:10487000FFFFFFFFFFFFFFFFFFFFFFFFFFFFFFFF48
:10488000FFFFFFFFFFFF000000000000000000002E
:10489000000000000000FFFFFFFFFFFFFFFFFFFF22
:1048A000FFFFFFFFFFFFFFFFFFFFFFFFFFFF000016
:1048B00000000000000000000000000000000000F8
:1048C000000000000000FFDFFFFFFFFFFFFFFFFF12
:1048D000FFFFFFFFFFFFFFFFFFFFFFFFFFFFFFFFE8
:1048E000FFFF0000000000000000000000000000CA
:1048F0000000FFFFFFFFFFFFFFFFFFFFFFFFFFFFC6
:10490000FFFFFFFFFFFFFFFFFFFF000000000000B1
:1049100000000000000000000000FFFFFFFFFFFF9D
:10492000FFFFFFFFFFFFFFFFFFFFFFFFFFFFFFFF97
:104930000000000000000000000000000000000077
:10494000000000000000000000000000FFFFFFFF6B
:10495000FFFFFFFFFFFFFFFFFFFFFFFFFFFFFFFF67
:10496000FFFFFFFFFFFF000000000000000000004D
:10497000000000000000FFFFFFFFFFFFFFFFFFFF41
:10498000FFFFFFFFFFFFFFFFFFFFFFFFFFFF000035
:104990000000000000000000000000000000FFFF19
:1049A000FFFFFFFFFFFFFFFFFFFFFFFFFFFFFFFF17
:1049B000FFFFFFFF000000000000000000000000FB
:1049C00000000000000000000000000000000000E7
:1049D000FFFFFFFFFFFFFFFFFFFFFFFFFFFFFFFFE7
:1049E000FFFFFFFFFFFFFFFFFFFF000000000000D1
:1049F00000000000000000000000FFFFFFFFFFFFBD
:104A0000FFFFFFFFFFFFFFFFFFFFFFFFFFFFFFFFB6
:104A1000FFFF000000000000000000000000000098
:104A20000000FFFFFFFFFFFFFFFFFFFFFFFFFFFF94
:104A3000FFFFFFFFFFFFFFFF00000000000000007E
:104A40000000000000000000000000000000000066
:104A500000000000FFDFFFFFFFFFFFFFFFFFFFFF82
:104A6000FFFFFFFFFFFFFFFFFFFFFFFFFFFF000054
:104A70000000000000000000000000000000FFFF38
:104A8000FFFFFFFFFFFFFFFFFFFFFFFFFFFFFFFF36
:104A9000FFFFFFFFFFFF000000000000000000001C
:104AA000000000000000FFFFFFFFFFFFFFFFFFFF10
:104AB000FFFFFFFFFFFFFFFFFFFF00000000000000
:104AC00000000000000000000000000000000000E6
:104AD00000000000000000000000FFFFFFFFFFFFDC
:104AE000FFFFFFFFFFFFFFFFFFFFFFFFFFFFFFFFD6
:104AF000FFFF0000000000000000000000000000B8
:104B00000000FFFFFFFFFFFFFFFFFFFFFFFFFFFFB3
:104B1000FFFFFFFFFFFFFFFFFFFF0000000000009F
:104B200000000000000000000000FFFFFFFFFFFF8B
:104B3000FFFFFFFFFFFFFFFFFFFFFFFFFFFF000083
:104B40000000000000000000000000000000000065
:104B50000000000000000000000000000000FFFF57
:104B6000FFFFFFFFFFFFFFFFFFFFFFFFFFFFFFFF55
:104B7000FFFFFFFFFFFF000000000000000000003B
:104B8000000000000000FFFFFFFFFFFFFFFFFFFF2F
:104B9000FFFFFFFFFFFFFFFFFFFFFFFFFFFF000023
:104BA0000000000000000000000000000000FFFF07
:104BB000FFFFFFFFFFFFFFFFFFFFFFFFFFFFFFFF05
:104BC000FFFF0000000000000000000000000000E7
:104BD00000000000000000000000000000000000D5
:104BE00000000000FFFFFFFFFFFFFFFFFFFFFFFFD1
:104BF000FFFFFFFFFFFFFFFFFFFF000000000000BF
:104C000000000000000000000000FFFFFFFFFFFFAA
:104C1000FFFFFFFFFFFFFFFFFFFFFFFFFFFFFFFFA4
:104C2000FFFF000000000000000000000000000086
:104C30000000FFFFFFFFFFFFFFFFFFFFFFFFFFFF82
:104C4000FFFFFFFF00000000000000000000000068
:104C5000000000000000F6FF00000000000000005F
:104C60000000000000000000FFFFFFFFFFFFFFFF4C
:104C7000FFFFFFFFFFFFFFFFFFFFFFFFFFFF000042
:104C80000000000000000000000000000000FFFF26
:104C9000FFFFFFFFFFFFFFFFFFFFFFFFFFFFFFFF24
:104CA000FFFFFFFFFFFF000000000000000000000A
:104CB000000000000000FFFFFFFFFFFFFFFFFFFFFE
:104CC000FFFFFFFFFFFFFFFF0000000000000000EC
:104CD0000000000000000000FFFFFFFF00000000D8
:104CE000000000000000000000000000FFFFFFFFC8
:104CF000FFFFFFFFFFFFFFFFFFFFFFFFFFFFFFFFC4
:104D0000FFFF0000000000000000000000000000A5
:104D10000000FFFFFFFFFFFFFFFFFFFFFFFFFFFFA1
:104D2000FFFFFFFFFFFFFFFFFFFF0000000000008D
:104D300000000000000000000000FFFFFFFFFFFF79
:104D4000FFFFFFFFFFFFFFFFFFFFFBFF0000000073
:104D5000000000000000000000000000FFFFFFFF57
:104D60000000000000000000000000000000000043
:104D70000000FFFFFFFFFFFFFFFFFFFFFFFFFFFF41
:104D8000FFFFFFFFFFFF0000000000000000000029
:104D9000000000000000FFFFFFFFFFFFFFFFFFFF1D
:104DA000FFFFFFFFFFFFFFFFFFFFFFFFFFFF000011
:104DB0000000000000000000000000000000FFFFF5
:104DC000FFFFFFFFFFFFFFFFFFFFFFFFFFFF0000F1
:104DD00000000000000000000000000000000000D3
:104DE000FFFFFFFFD2FE00000000000000000000F7
:104DF000000000000000FFFFFFFFFFFFFFFFFFFFBD
:104E0000FFFFFFFFFFFFFFFFFFFF000000000000AC
:104E100000000000000000000000FFFFFFFFFFFF98
:104E2000FFFFFFFFFFFFFFFFFFFFFFFFFFFFFFFF92
:104E3000FFFF000000000000000000000000000074
:104E40000000FFFFFFFFFFFFFFFFFFFFFFFFFFFF70
:104E5000FFFF000000000000000000000000000054
:104E60000000FFFFFFFFFFFFFBFF0000000000004E
:104E700000000000000000000000FFFFFFFFFFFF38
:104E8000FFFFFFFFFFFFFFFFFFFFFFFFFFFF000030
:104E90000000000000000000000000000000FFFF14
:104EA000FFFFFFFFFFFFFFFFFFFFFFFFFFFFFFFF12
:104EB000FFFFFFFFFFFF00000000000000000000F8
:104EC000000000000000FFFFFFFFFFFFFFFFFFFFEC
:104ED000FFFFFFFFFBFF00000000000000000000DC
:104EE000000000000000FFFFFFFFFFFFFFFF0000CA
:104EF00000000000000000000000000000000000B2
:104F0000FFFFFFFFFFFFFFFFFFFFFFFFFFFFFFFFB1
:104F1000FFFF000000000000000000000000000093
:104F20000000FFFFFFFFFFFFFFFFFFFFFFFFFFFF8F
:104F3000FFFFFFFFFFFFFFFFFFFF0000000000007B
:104F400000000000000000000000FFFFFFFFFFFF67
:104F5000FFFFFFFFFFFFFFFF000000000000000059
:104F600000000000000000000000FFFFFFFFFFFF47
:104F7000FFFFD2FE00000000000000000000000063
:104F800000000000FFFFFFFFFFFFFFFFFFFFFFFF2D
:104F9000FFFFFFFFFFFF0000000000000000000017
:104FA000000000000000FFFFFFFFFFFFFFFFFFFF0B
:104FB000FFFFFFFFFFFFFFFFFFFFFFFFFFFF0000FF
:104FC0000000000000000000000000000000FFFFE3
:104FD000FFFFFFFFFFFFFFFFFFFFFFFF00000000DD
:104FE000000000000000000000000000FFDFFFFFE5
:104FF000FFFFFFFFFFFFFBFF0000000000000000BD
:1050000000000000000000000000FFFFFFFFFFFFA6
:10501000FFFFFFFFFFFFFFFFFFFF0000000000009A
:1050200000000000000000000000FFFFFFFFFFFF86
:10503000FFFFFFFFFFFFFFFFFFFFFFFFFFFFFFFF80
:10504000FFFF000000000000000000000000000062
:105050000000FFFFFFFFFFFFFFFFFFFFFFFFFBFF62
:105060000000000000000000000000000000000040
:10507000FFFFFFFFFFFFFFFFFFFFFFFF000000003C
:105080000000000000000000000000000000FFFF22
:10509000FFFFFFFFFFFFFFFFFFFFFFFFFFFF00001E
:1050A0000000000000000000000000000000FFFF02
:1050B000FFFFFFFFFFFFFFFFFFFFFFFFFFFFFFFF00
:1050C000FFFFFFFFFFFF00000000000000000000E6
:1050D000000000000000FFFFFFFFFFFFFFFFFFFFDA
:1050E000FFFF0000000000000000000000000000C2
:1050F00000000000FFFFFFFFFFFFFFFFFFFFFFFFBC
:10510000000000000000000000000000000000009F
:105110000000FFFFFFFFFFFFFFFFFFFFFFFFFFFF9D
:10512000FFFF000000000000000000000000000081
:105130000000FFFFFFFFFFFFFFFFFFFFFFFFFFFF7D
:10514000FFFFFFFFFFFFFFFFFFFF00000000000069
:1051500000000000000000000000FFFFFFFFFFFF55
:10516000FFFFFFFFFFFF0000000000000000000045
:10517000000000000000FFDFFFFFFFFFFFFFFFFF59
:10518000FFFFFFFFFBFF0000000000000000000029
:105190000000000000000000FFFFFFFFFFFFFFFF17
:1051A000FFFFFFFFFFFF0000000000000000000005
:1051B000000000000000FFFFFFFFFFFFFFFFFFFFF9
:1051C000FFFFFFFFFFFFFFFFFFFFFFFFFFFF0000ED
:1051D0000000000000000000000000000000FFFFD1
:1051E000FFFFFFFFFFFFFFFFF6FF000000000000D2
:1051F00000000000000000000000000000000000AF
:10520000000000000000000000000000000000009E
:10521000000000000000000000000000FFFFFFFF92
:10522000FFFFFFFFFFFFFFFFFFFF00000000000088
:1052300000000000000000000000FFFFFFFFFFFF74
:10524000FFFFFFFFFFFFFFFFFFFFFFFFFFFFFFFF6E
:10525000FFFF000000000000000000000000000050
:105260000000FFFFFFFFFFFFFFFFFFFF0000000048
:10527000000000000000000000000000000000002E
:10528000000000000000000000000000000000001E
:10529000000000000000000000000000000000000E
:1052A000FFFFFFFFFFFFFFFFFFFFFFFFFFFF00000C
:1052B0000000000000000000000000000000FFFFF0
:1052C000FFFFFFFFFFFFFFFFFFFFFFFFFFFFFFFFEE
:1052D000FFFFFFFFFFFF00000000000000000000D4
:1052E000000000000000FFFFFFFFFFFFFFFFFFFFC8
:1052F00000000000000000000000000000000000AE
:10530000000000000000000000000000000000009D
:10531000000000000000000000000000000000008D
:10532000000000000000FFFFFFFFFFFFFFFFFFFF87
:10533000FFFF00000000000000000000000000006F
:105340000000FFDFFFFFFFFFFFFFFFFFFFFFFFFF8B
:10535000FFFFFFFFFFFFFFFFFFFF00000000000057
:1053600000000000000000000000FFFFFFFFFFFF43
:10537000FFFFF6FF0000000000000000000000003A
:10538000000000000000000000000000000000001D
:10539000000000000000000000000000000000000D
:1053A00000000000000000000000FFFFFFFFFFFF03
:1053B000FFFFFFFFFFFF00000000000000000000F3
:1053C000000000000000FFFFFFFFFFFFFFFFFFFFE7
:1053D000FFFFFFFFFFFFFFFFFFFFFFFFF6FF0000E4
:1053E0000000000000000000000000000000FFFFBF
:1053F000FFFFFFFFFFFF00000000000000000000B3
:10540000000000000000000000000000000000009C
:10541000000000000000000000000000000000008C
:105420000000000000000000000000000000FFFF7E
:10543000FFFFFFFFFFFFFFFFFFFFF6FF0000000081
:10544000000000000000000000000000FFFFFFFF60
:10545000FFFFFFFFFFFFFFFFFFFFFFFFFFFFFFFF5C
:10546000000000000000000000000000000000003C
:10547000FFFFFFFFFFFFFFFFFFFF00000000000036
:10548000000000000000000000000000000000001C
:10549000000000000000000000000000000000000C
:1054A00000000000000000000000000000000000FC
:1054B00000000000FFFFFFFFFFFFFFFFFFFFFFFFF8
:1054C00000000000000000000000000000000000DC
:1054D0000000FFFFFFFFFFFFFFFFFFFFFFFFFFFFDA
:1054E000FFFF0000000000000000000000000000BE
:1054F00000000000FFFFFFFFFFFFFFFFF6FF0000BF
:105500000000000000000000000000000000FFFF9D
:10551000FFFFFFFFFFFFFFFFFFFFFFFFFFFFFFFF9B
:10552000FFFFFFFFFFFF0000000000000000000081
:105530000000000000000000FFFFFFFFFFFFFFFF73
:10554000FFFFFFFF0000000000000000000000005F
:105550000000000000000000FFFFFFFFFFFFFFFF53
:10556000FFFFFFFF0000000000000000000000003F
:105570000000000000000000FFFFFFFFFFFFFFFF33
:10558000000000000000000000000000000000001B
:105590000000FFFFFFFFFFFFFFFFFFFFFFFFFFFF19
:1055A000FFFFFFFFFFFFFFFFFFFF00000000000005
:1055B000000000000000000000000000FFFFFFFFEF
:1055C000FFFFFFFFFFFFFFFFFBFF000000000000E9
:1055D00000000000000000000000000000000000CB
:1055E00000000000000000000000000000000000BB
:1055F00000000000000000000000FFFFFFFFFFFFB1
:10560000FFFFFBFF000000000000000000000000A2
:1056100000000000FFB7FFFFFFFFFFFFFFFFFFFFDE
:10562000FFFFFFFFFFFFFFFFFFFFFFFFFFFFFFFF8A
:10563000000000000000000000000000000000006A
:105640000000FFFFFFFFFFFFFFFFFFFFFFFF000066
:10565000000000000000000000000000000000004A
:10566000000000000000000000000000000000003A
:105670000000000000000000000000000000FFFF2C
:10568000FFFFFFFFFFFFD2FE000000000000000050
:105690000000000000000000FFFFFFFFFFFFFFFF12
:1056A000FFFFFFFFFFFFFFFFFFFFFFFFFFFFFFFF0A
:1056B000FFFFFFFF000000000000000000000000EE
:1056C000000000000000FFFFFFFFFFFFFFFFFFFFE4
:1056D000FFFFFFFF000000000000000000000000CE
:1056E00000000000000000000000000000000000BA
:1056F00000000000000000000000000000000000AA
:10570000FFFFFFFFFFFFFFFFFFFF000000000000A3
:10571000000000000000000000000000FFFFFFFF8D
:10572000FFFFFFFFFFFFFFFFFFFFFFFFFFFFFFFF89
:10573000FFFFFFFFFFFFFFFFF6FF0000000000007C
:1057400000000000000000000000FFFFFFFFFFFF5F
:10575000FFFFFFFFFFFFFFFFFFFF00000000000053
:105760000000000000000000000000000000000039
:105770000000000000000000000000000000000029
:105780000000FFFFFFFFFFFFFFFFFFFFFFFF000025
:105790000000000000000000000000000000FFB753
:1057A000FFFFFFFFFFFFFFFFFFFFFFFFFFFFFFFF09
:1057B000FFFFFFFFFFFFFFFFFFFFFFFFFFFF0000F7
:1057C00000000000000000000000000000000000D9
:1057D000FFFFFFFFFFFFFFFFFFFFFFFFFFFFFFFFD9
:1057E000FFFF0000000000000000000000000000BB
:1057F00000000000000000000000000000000000A9
:1058000000000000FFFFFFFFFFFFFFFFFFFFFFFFA4
:10581000FFFF00000000000000000000000000008A
:105820000000FFFFFFFFFFFFFFFFFFFFFFFFFFFF86
:10583000FFFFFFFFFFFFFFFFFFFFFFFFFFFFFFFF78
:10584000FFFF00000000000000000000000000005A
:1058500000000000FFFFFFFFFFFFFFFFFFFFFFFF54
:10586000FFFFFFFFFFFFFFFFFFFF00000000000042
:105870000000000000000000000000000000000028
:1058800000000000FFFFFFFFFFFFFFFFFFFFFFFF24
:10589000FFFFFFFFFFFFFFFFFFFFFFFFFFFFFFFF18
:1058A000FFFFFFFFFFFFFFFFFFFFFFFFFFFFFFFF08
:1058B000FFFFFFFFFFFFFFFFFFFFFFFFFFFFFFFFF8
:1058C000FFFFFFFFFFFFFFFFFFFFFFFFFFFFFFFFE8
:1058D000FFFFFFFFFFFFFFFFFFFFFFFFFFFFFFFFD8
:1058E000FFFFFFFFFFFFFFFFFFFFFFFFFFFFFFFFC8
:1058F000FFFFFFFFFFFFFFFFFFFFFFFFFFFFFFFFB8
:10590000FFFFFFFFFFFFFFFFFFFFFFFFFFFFFFFFA7
:10591000FFFFFFFFFFFFFFFFFFFFFFFFFFFFFFFF97
:10592000FFFFFFFFFFFFFFFFFFFFFFFFFFFFFFFF87
:10593000FFFFFFFFFFFFFFFFFFFFFFFFFFFFFFFF77
:10594000FFFFFFFFFFFFFFFFFFFFFFFFFFFFFFFF67
:10595000FFFFFFFFFFFFFFFFFFFFFFFFFFFFFFFF57
:10596000FFFFFFFFFFFFFFFFFFFFFFFFFFFFFFFF47
:10597000FFFFFFFFFFFFFFFFFFFFFFFFFFFFFFFF37
:10598000FFFFFFFFFFFFFFFFFFFFFFFFFFFFFFFF27
:10599000FFFFFFFFFFFFFFFFFFFFFFFFFFFF000015
:1059A00000000000000001020304060708090000CF
:1059B00000000102030404000008000000000000D1
:1059C0000002000100001000E8590008000000205B
:1059D00074000000280100085C5A000874000020D0
:1059E000841A00004401000800010000070A0000BA
:1059F000CA3000080B12000036380008000201000F
:105A0000A000800040802000000000000000000096
:105A10000000000000000000000000000000000086
:105A20000000000001000000100000000000000065
:105A30000024F40001000000091F0008211F0008D5
:105A40001D1F0008311F0008191F0008000000007A
:0C5A50000000000000000000000000004A
:04000005080000ED02
:00000001FF
